{"address":"0xa82fF9aFd8f496c3d6ac40E2a0F282E47488CFc9","bytecode":"0x6080604052620000126012600a62000274565b6200001f90600a62000342565b60075560088054600160ff19909116811790915561012c600955600b805461ffff19166101011790556002600c819055600d55600e553480156200006257600080fd5b50604051620046ba380380620046ba8339810160408190526200008591620001d9565b62000090336200016c565b600380546001600160a01b038085166001600160a01b031992831617909255600480549284169290911691909117905533600090815260016020526040812080546a52b7d2dcc80cd2e40000009290620000ec90849062000210565b90915550506040516a52b7d2dcc80cd2e4000000815233906000907fddf252ad1be2c89b69c2b068fc378daa952ba7f163c4a11628f55a4df523b3ef9060200160405180910390a35050306000908152601060205260408082208054600160ff19918216811790925533845291909220805490911690911790556200037a565b600080546001600160a01b038381166001600160a01b0319831681178455604051919092169283917f8be0079c531659141344cd1fd0a4f28419497f9722a3daafe3b4186f6b6457e09190a35050565b80516001600160a01b0381168114620001d457600080fd5b919050565b60008060408385031215620001ec578182fd5b620001f783620001bc565b91506200020760208401620001bc565b90509250929050565b6000821982111562000226576200022662000364565b500190565b600181815b808511156200026c57816000190482111562000250576200025062000364565b808516156200025e57918102915b93841c939080029062000230565b509250929050565b60006200028560ff8416836200028c565b9392505050565b6000826200029d575060016200033c565b81620002ac575060006200033c565b8160018114620002c55760028114620002d057620002f0565b60019150506200033c565b60ff841115620002e457620002e462000364565b50506001821b6200033c565b5060208310610133831016604e8410600b841016171562000315575081810a6200033c565b6200032183836200022b565b806000190482111562000338576200033862000364565b0290505b92915050565b60008160001904831182151516156200035f576200035f62000364565b500290565b634e487b7160e01b600052601160045260246000fd5b614330806200038a6000396000f3fe60806040526004361061039b5760003560e01c80637ec2cb51116101dc578063c957cba411610102578063e3bcccb4116100a0578063f25558cc1161006f578063f25558cc14610bd9578063f2fde38b14610bf8578063f683aaec14610c18578063f9ef569014610c3857600080fd5b8063e3bcccb414610b4f578063ecb030c214610b7f578063ed5792d714610b9f578063edf9d25e14610bb957600080fd5b8063d8248358116100dc578063d824835814610ab9578063d9703c0414610acf578063da1cdbe414610ae9578063dd62ed3e14610b0957600080fd5b8063c957cba414610a49578063ccc4573014610a83578063d337a7c114610aa357600080fd5b8063a35ea7df1161017a578063adc5a97211610149578063adc5a972146109b9578063be24af9a146109e9578063c34994b114610a09578063c35e2ceb14610a2957600080fd5b8063a35ea7df14610923578063a457c2d714610943578063a9059cbb14610963578063ac6c28021461098357600080fd5b80638efd5e3b116101b65780638efd5e3b14610894578063910b38d2146108b457806395d89b41146108d4578063999a7ee71461090357600080fd5b80637ec2cb511461083657806387b7a267146108565780638da5cb5b1461087657600080fd5b806323b872dd116102c157806356f952ee1161025f57806370a082311161022e57806370a08231146107b4578063715018a6146107d457806374798d6b146107e957806376a902311461081657600080fd5b806356f952ee14610734578063649c0443146107545780636648f80214610774578063695dadd41461079457600080fd5b8063313ce5671161029b578063313ce5671461065257806339038f2a1461067957806339509351146106f45780634b0ee02a1461071457600080fd5b806323b872dd146105ff57806326ed367f1461061f5780632fa107ae1461063f57600080fd5b806318160ddd116103395780631de3b450116103085780631de3b4501461058f5780631fb0383e146105a5578063220f6696146105c557806322a9385b146105df57600080fd5b806318160ddd1461051a5780631a6ea8e1146105395780631d4eaead146105595780631db2bf2e1461056f57600080fd5b806306fdde031161037557806306fdde0314610450578063095ea7b3146104945780630e6a9f8c146104b457806314337135146104f857600080fd5b806303e870ca146103a757806303fd2a45146103fa57806306c933d81461041057600080fd5b366103a257005b600080fd5b3480156103b357600080fd5b506103dd6103c2366004613c15565b6015602052600090815260409020546001600160a01b031681565b6040516001600160a01b0390911681526020015b60405180910390f35b34801561040657600080fd5b506103dd61dead81565b34801561041c57600080fd5b5061044061042b366004613c15565b60106020526000908152604090205460ff1681565b60405190151581526020016103f1565b34801561045c57600080fd5b506104876040518060400160405280600b81526020016a537061636552696465727360a81b81525081565b6040516103f19190613fdc565b3480156104a057600080fd5b506104406104af366004613d56565b610c4e565b3480156104c057600080fd5b506104ea6104cf366004613c15565b6001600160a01b031660009081526001602052604090205490565b6040519081526020016103f1565b34801561050457600080fd5b50610518610513366004613c4d565b610c65565b005b34801561052657600080fd5b506104ea6a52b7d2dcc80cd2e400000081565b34801561054557600080fd5b506006546103dd906001600160a01b031681565b34801561056557600080fd5b506104ea600d5481565b34801561057b57600080fd5b506016546103dd906001600160a01b031681565b34801561059b57600080fd5b506104ea600c5481565b3480156105b157600080fd5b506105186105c0366004613ead565b610db4565b3480156105d157600080fd5b50600f546104409060ff1681565b3480156105eb57600080fd5b506105186105fa366004613c15565b610e44565b34801561060b57600080fd5b5061044061061a366004613c85565b610ec6565b34801561062b57600080fd5b5061051861063a366004613d29565b610f70565b61051861064d366004613d81565b610fe3565b34801561065e57600080fd5b50610667601281565b60405160ff90911681526020016103f1565b34801561068557600080fd5b50610699610694366004613c85565b6111e0565b6040516103f19190600060c0820190506001600160a01b038084511683526020840151602084015260408401516040840152606084015160608401528060808501511660808401528060a08501511660a08401525092915050565b34801561070057600080fd5b5061044061070f366004613d56565b6117dc565b34801561072057600080fd5b506104ea61072f366004613c15565b611818565b34801561074057600080fd5b506104ea61074f366004613c15565b611842565b34801561076057600080fd5b5061051861076f366004613c15565b611868565b34801561078057600080fd5b5061051861078f366004613c15565b6118d2565b3480156107a057600080fd5b506105186107af366004613ead565b61193c565b3480156107c057600080fd5b506104ea6107cf366004613c15565b611989565b3480156107e057600080fd5b50610518611a02565b3480156107f557600080fd5b506104ea610804366004613c15565b600a6020526000908152604090205481565b34801561082257600080fd5b506004546103dd906001600160a01b031681565b34801561084257600080fd5b50610518610851366004613e75565b611a56565b34801561086257600080fd5b50610518610871366004613cc5565b611ab8565b34801561088257600080fd5b506000546001600160a01b03166103dd565b3480156108a057600080fd5b506105186108af366004613ead565b611f70565b3480156108c057600080fd5b506105186108cf366004613d56565b612015565b3480156108e057600080fd5b506104876040518060400160405280600381526020016229a82960e91b81525081565b34801561090f57600080fd5b506103dd61091e366004613ead565b6120a0565b34801561092f57600080fd5b506017546103dd906001600160a01b031681565b34801561094f57600080fd5b5061044061095e366004613d56565b6120ca565b34801561096f57600080fd5b5061044061097e366004613d56565b612163565b34801561098f57600080fd5b506103dd61099e366004613c15565b6014602052600090815260409020546001600160a01b031681565b3480156109c557600080fd5b506104406109d4366004613c15565b60136020526000908152604090205460ff1681565b3480156109f557600080fd5b50610518610a04366004613ead565b612170565b348015610a1557600080fd5b506104ea610a24366004613c4d565b61220e565b348015610a3557600080fd5b506005546103dd906001600160a01b031681565b348015610a5557600080fd5b506104ea610a64366004613c15565b6001600160a01b03166000908152600160208190526040909120015490565b348015610a8f57600080fd5b50610518610a9e366004613e75565b612499565b348015610aaf57600080fd5b506104ea60095481565b348015610ac557600080fd5b506104ea60075481565b348015610adb57600080fd5b506008546104409060ff1681565b348015610af557600080fd5b50610518610b04366004613e75565b6124f4565b348015610b1557600080fd5b506104ea610b24366004613c4d565b6001600160a01b03918216600090815260026020908152604080832093909416825291909152205490565b348015610b5b57600080fd5b50610440610b6a366004613c15565b60116020526000908152604090205460ff1681565b348015610b8b57600080fd5b50610518610b9a366004613ead565b61254f565b348015610bab57600080fd5b50600b546104409060ff1681565b348015610bc557600080fd5b50610518610bd4366004613c15565b6125dd565b348015610be557600080fd5b50600b5461044090610100900460ff1681565b348015610c0457600080fd5b50610518610c13366004613c15565b612647565b348015610c2457600080fd5b506003546103dd906001600160a01b031681565b348015610c4457600080fd5b506104ea600e5481565b6000610c5b338484612700565b5060015b92915050565b6000546001600160a01b03163314610cb25760405162461bcd60e51b815260206004820181905260248201526000805160206142bb83398151915260448201526064015b60405180910390fd5b6001600160a01b03821660009081526011602052604090205460ff1615610d085760405162461bcd60e51b815260206004820152600a6024820152694445582065786973747360b01b6044820152606401610ca9565b6012805460018181019092557fbb8a6a4669ba250d26cd7a459eca9d215f8307e33aebe50379bc5a3617ec34440180546001600160a01b039485166001600160a01b031991821681179092556000828152601160209081526040808320805460ff19908116881790915596909716808352601382528783208054909716909517909555828152601585528581208054831685179055928352601490935292902080549091169091179055565b6000546001600160a01b03163314610dfc5760405162461bcd60e51b815260206004820181905260248201526000805160206142bb8339815191526044820152606401610ca9565b6005811115610e3f5760405162461bcd60e51b815260206004820152600f60248201526e4d6178204255524e2054415820352560881b6044820152606401610ca9565b600d55565b6000546001600160a01b03163314610e8c5760405162461bcd60e51b815260206004820181905260248201526000805160206142bb8339815191526044820152606401610ca9565b601680546001600160a01b039092166001600160a01b0319909216821790556000908152601060205260409020805460ff19166001179055565b6000610ed3848484612825565b6001600160a01b038416600090815260026020908152604080832033845290915290205482811015610f585760405162461bcd60e51b815260206004820152602860248201527f45524332303a207472616e7366657220616d6f756e74206578636565647320616044820152676c6c6f77616e636560c01b6064820152608401610ca9565b610f658533858403612700565b506001949350505050565b6000546001600160a01b03163314610fb85760405162461bcd60e51b815260206004820181905260248201526000805160206142bb8339815191526044820152606401610ca9565b6001600160a01b03919091166000908152601060205260409020805460ff1916911515919091179055565b600f805460ff191660011790556004546001600160a01b031683611008333086612b00565b6040516323b872dd60e01b8152336004820152306024820152604481018490526001600160a01b038316906323b872dd90606401602060405180830381600087803b15801561105657600080fd5b505af115801561106a573d6000803e3d6000fd5b505050506040513d601f19601f8201168201806040525081019061108e9190613e91565b5061109a308686612700565b60405163095ea7b360e01b81526001600160a01b0382811660048301526024820185905283169063095ea7b390604401602060405180830381600087803b1580156110e457600080fd5b505af11580156110f8573d6000803e3d6000fd5b505050506040513d601f19601f8201168201806040525081019061111c9190613e91565b506004805460405162e8e33760e81b815230928101929092526001600160a01b039081166024830152604482018690526064820185905260006084830181905260a48301523360c48301524260e483015282169063e8e337009061010401606060405180830381600087803b15801561119457600080fd5b505af11580156111a8573d6000803e3d6000fd5b505050506040513d601f19601f820116820180604052508101906111cc9190613f00565b5050600f805460ff19169055505050505050565b6040805160c081018252600080825260208201819052918101829052606081018290526080810182905260a0810191909152600f805460ff19166001179055600554336001600160a01b039091161461127b5760405162461bcd60e51b815260206004820152601d60248201527f43414c4c45523a204f6e6c79205370722047616d6520616c6c6f7765640000006044820152606401610ca9565b61128484611818565b8211156112c65760405162461bcd60e51b815260206004820152601060248201526f4e6f7420656e6f7567682066756e647360801b6044820152606401610ca9565b600480546040805163c45a015560e01b8152905186936001600160a01b03938416936000939086169263c45a015592828101926020929190829003018186803b15801561131257600080fd5b505afa158015611326573d6000803e3d6000fd5b505050506040513d601f19601f8201168201806040525081019061134a9190613c31565b90506000808661136f8a6001600160a01b031660009081526001602052604090205490565b1061137c578691506113a4565b6001600160a01b03891660009081526001602052604090205491506113a182886141f0565b90505b6001600160a01b038916600090815260016020819052604082200180548392906113cf9084906141f0565b90915550506001600160a01b038916600090815260016020526040812080548492906113fc9084906141f0565b9091555061140c905081836140b7565b306000908152600160205260408120805490919061142b9084906140b7565b909155505060405187815230906001600160a01b038b16906000805160206142db8339815191529060200160405180910390a3600061146b886002612bb8565b905061147830878a612700565b6040516370a0823160e01b81523060048201526000906001600160a01b038716906370a082319060240160206040518083038186803b1580156114ba57600080fd5b505afa1580156114ce573d6000803e3d6000fd5b505050506040513d601f19601f820116820180604052508101906114f29190613ec5565b90506114fe8783612bcb565b6040516370a0823160e01b81523060048201526000906115859083906001600160a01b038a16906370a08231906024015b60206040518083038186803b15801561154757600080fd5b505afa15801561155b573d6000803e3d6000fd5b505050506040513d601f19601f8201168201806040525081019061157f9190613ec5565b90612d4f565b60405163095ea7b360e01b81526001600160a01b038a81166004830152602482018390529192509088169063095ea7b390604401602060405180830381600087803b1580156115d357600080fd5b505af11580156115e7573d6000803e3d6000fd5b505050506040513d601f19601f8201168201806040525081019061160b9190613e91565b5061161730898c612700565b6004805460055460405162e8e33760e81b815230938101939093526001600160a01b039182166024840152604483018690526064830184905260006084840181905260a4840181905290821660c48401524260e484015291908a169063e8e337009061010401606060405180830381600087803b15801561169757600080fd5b505af11580156116ab573d6000803e3d6000fd5b505050506040513d601f19601f820116820180604052508101906116cf9190613f00565b925050506040518060c001604052808e6001600160a01b031681526020018281526020018781526020018681526020018a6001600160a01b03168152602001886001600160a01b031663e6a4390530600460009054906101000a90046001600160a01b03166040518363ffffffff1660e01b81526004016117669291906001600160a01b0392831681529116602082015260400190565b60206040518083038186803b15801561177e57600080fd5b505afa158015611792573d6000803e3d6000fd5b505050506040513d601f19601f820116820180604052508101906117b69190613c31565b6001600160a01b03169052600f805460ff191690559d9c50505050505050505050505050565b3360008181526002602090815260408083206001600160a01b03871684529091528120549091610c5b9185906118139086906140b7565b612700565b6001600160a01b03811660009081526001602081905260408220908101549054610c5f91906140b7565b6001600160a01b0381166000908152600a6020526040812054600954610c5f91906140b7565b6000546001600160a01b031633146118b05760405162461bcd60e51b815260206004820181905260248201526000805160206142bb8339815191526044820152606401610ca9565b600680546001600160a01b0319166001600160a01b0392909216919091179055565b6000546001600160a01b0316331461191a5760405162461bcd60e51b815260206004820181905260248201526000805160206142bb8339815191526044820152606401610ca9565b600580546001600160a01b0319166001600160a01b0392909216919091179055565b6000546001600160a01b031633146119845760405162461bcd60e51b815260206004820181905260248201526000805160206142bb8339815191526044820152606401610ca9565b600955565b3360009081526011602052604081205460ff16806119b657503360009081526010602052604090205460ff165b156119e6576001600160a01b0382166000908152600160208190526040909120908101549054610c5f91906140b7565b506001600160a01b031660009081526001602052604090205490565b6000546001600160a01b03163314611a4a5760405162461bcd60e51b815260206004820181905260248201526000805160206142bb8339815191526044820152606401610ca9565b611a546000612d5b565b565b6000546001600160a01b03163314611a9e5760405162461bcd60e51b815260206004820181905260248201526000805160206142bb8339815191526044820152606401610ca9565b600b80549115156101000261ff0019909216919091179055565b600f805460ff19166001179055600554336001600160a01b0390911614611b215760405162461bcd60e51b815260206004820152601d60248201527f43414c4c45523a204f6e6c79205370722047616d6520616c6c6f7765640000006044820152606401610ca9565b60405163095ea7b360e01b81526001600160a01b0380881660048301526024820186905287919087169063095ea7b390604401602060405180830381600087803b158015611b6e57600080fd5b505af1158015611b82573d6000803e3d6000fd5b505050506040513d601f19601f82011682018060405250810190611ba69190613e91565b5060048054601654604051635d5155ef60e11b815230938101939093526001600160a01b039182166024840152604483018890526000606484018190526084840181905290821660a48401524260c484015291829184169063baa2abde9060e4016040805180830381600087803b158015611c2057600080fd5b505af1158015611c34573d6000803e3d6000fd5b505050506040513d601f19601f82011682018060405250810190611c589190613edd565b6016546040516327a9b11f60e11b81523060048201529294509092506001600160a01b031690634f53623e90602401600060405180830381600087803b158015611ca157600080fd5b505af1158015611cb5573d6000803e3d6000fd5b5050601654600480546040516327a9b11f60e11b81526001600160a01b03918216928101929092529091169250634f53623e9150602401600060405180830381600087803b158015611d0657600080fd5b505af1158015611d1a573d6000803e3d6000fd5b505050506000611d2930611989565b9050611d358483612dab565b6000611d448261157f30611989565b90506000611d5282866140b7565b9050611d846040518060400160405280600e81526020016d746f74616c5370724261636b202560901b81525082612fad565b600080611d92838b8b612ff6565b91509150611dd56040518060400160405280601581526020017f6e6577547261646561626c6542616c616e63652025000000000000000000000081525083612fad565b611e146040518060400160405280601481526020017f6e6577506c617961626c6542616c616e6365202500000000000000000000000081525082612fad565b611e426040518060600160405280603a8152602001614281603a913984611e3b84866140b7565b1115613320565b82611e4d82846140b7565b1115611ea75760405162461bcd60e51b815260206004820152602360248201527f496620796f752073656520746869732c206974732070726f6261626c7920612060448201526262756760e81b6064820152608401610ca9565b3060009081526001602052604081208054859290611ec69084906141f0565b90915550506001600160a01b038b1660009081526001602052604081208054849290611ef39084906140b7565b90915550506001600160a01b038b1660009081526001602081905260408220018054839290611f239084906140b7565b90915550506040518281526001600160a01b038c169030906000805160206142db8339815191529060200160405180910390a35050600f805460ff19169055505050505050505050505050565b6000546001600160a01b03163314611fb85760405162461bcd60e51b815260206004820181905260248201526000805160206142bb8339815191526044820152606401610ca9565b611fc46012600a614126565b611fcf90600a6141d1565b8110156120105760405162461bcd60e51b815260206004820152600f60248201526e026b4b7103634b897101f1e9018981608d1b6044820152606401610ca9565b600755565b6005546001600160a01b0316331461206f5760405162461bcd60e51b815260206004820152601d60248201527f43414c4c45523a204f6e6c79205370722047616d6520616c6c6f7765640000006044820152606401610ca9565b6001600160a01b0382166000908152600a6020526040812080548392906120979084906140b7565b90915550505050565b601281815481106120b057600080fd5b6000918252602090912001546001600160a01b0316905081565b3360009081526002602090815260408083206001600160a01b03861684529091528120548281101561214c5760405162461bcd60e51b815260206004820152602560248201527f45524332303a2064656372656173656420616c6c6f77616e63652062656c6f77604482015264207a65726f60d81b6064820152608401610ca9565b6121593385858403612700565b5060019392505050565b6000610c5b338484612825565b6000546001600160a01b031633146121b85760405162461bcd60e51b815260206004820181905260248201526000805160206142bb8339815191526044820152606401610ca9565b60058111156122095760405162461bcd60e51b815260206004820152601660248201527f4d61782052455741524420504f4f4c20544158203525000000000000000000006044820152606401610ca9565b600e55565b604080516002808252606082018352600092859284929091602083019080368337019050509050308160008151811061225757634e487b7160e01b600052603260045260246000fd5b6001600160a01b03928316602091820292909201015260045482519116908290600190811061229657634e487b7160e01b600052603260045260246000fd5b6001600160a01b03928316602091820292909201015260405163d06ca61f60e01b815260009184169063d06ca61f906122dd90670de0b6b3a7640000908690600401613fbb565b60006040518083038186803b1580156122f557600080fd5b505afa158015612309573d6000803e3d6000fd5b505050506040513d6000823e601f3d908101601f191682016040526123319190810190613db5565b60018151811061235157634e487b7160e01b600052603260045260246000fd5b60209081029190910101516003546040516370a0823160e01b81526001600160a01b038881166004830152929350600092909116906370a082319060240160206040518083038186803b1580156123a757600080fd5b505afa1580156123bb573d6000803e3d6000fd5b505050506040513d601f19601f820116820180604052508101906123df9190613ec5565b905060018110156123ee575060015b6001600160a01b0386166000908152600a602052604081205460095461241491906140b7565b9050600083838302670de0b6b3a7640000028161244157634e487b7160e01b600052601260045260246000fd5b04905060006124526012600a614126565b61245c90836141d1565b9050806124688a611818565b11156124765750600061248c565b61247f89611818565b61248990826141f0565b90505b9998505050505050505050565b6000546001600160a01b031633146124e15760405162461bcd60e51b815260206004820181905260248201526000805160206142bb8339815191526044820152606401610ca9565b6008805460ff1916911515919091179055565b6000546001600160a01b0316331461253c5760405162461bcd60e51b815260206004820181905260248201526000805160206142bb8339815191526044820152606401610ca9565b600b805460ff1916911515919091179055565b6000546001600160a01b031633146125975760405162461bcd60e51b815260206004820181905260248201526000805160206142bb8339815191526044820152606401610ca9565b60058111156125d85760405162461bcd60e51b815260206004820152600d60248201526c4d6178204c502054415820352560981b6044820152606401610ca9565b600c55565b6000546001600160a01b031633146126255760405162461bcd60e51b815260206004820181905260248201526000805160206142bb8339815191526044820152606401610ca9565b601780546001600160a01b0319166001600160a01b0392909216919091179055565b6000546001600160a01b0316331461268f5760405162461bcd60e51b815260206004820181905260248201526000805160206142bb8339815191526044820152606401610ca9565b6001600160a01b0381166126f45760405162461bcd60e51b815260206004820152602660248201527f4f776e61626c653a206e6577206f776e657220697320746865207a65726f206160448201526564647265737360d01b6064820152608401610ca9565b6126fd81612d5b565b50565b6001600160a01b0383166127625760405162461bcd60e51b8152602060048201526024808201527f45524332303a20617070726f76652066726f6d20746865207a65726f206164646044820152637265737360e01b6064820152608401610ca9565b6001600160a01b0382166127c35760405162461bcd60e51b815260206004820152602260248201527f45524332303a20617070726f766520746f20746865207a65726f206164647265604482015261737360f01b6064820152608401610ca9565b6001600160a01b0383811660008181526002602090815260408083209487168084529482529182902085905590518481527f8c5be1e5ebec7d5bd14f71427d1e84f3dd0314c0f7b2291e5b200ac8c7c3b92591015b60405180910390a3505050565b6001600160a01b0383166128895760405162461bcd60e51b815260206004820152602560248201527f45524332303a207472616e736665722066726f6d20746865207a65726f206164604482015264647265737360d81b6064820152608401610ca9565b6001600160a01b0382166128eb5760405162461bcd60e51b815260206004820152602360248201527f45524332303a207472616e7366657220746f20746865207a65726f206164647260448201526265737360e81b6064820152608401610ca9565b3360009081526011602052604090205460ff16801561290d5750600f5460ff16155b801561293257506001600160a01b03831660009081526013602052604090205460ff16155b80156129405750600b5460ff165b8015612956575060075461295330611989565b10155b801561299e57506001600160a01b03831660009081526010602052604090205460ff168061299c57506001600160a01b03821660009081526010602052604090205460ff165b155b156129d4576129cb604051806040016040528060078152602001666c69717569666960c81b815250613365565b6129d4336133a8565b6001600160a01b03831660009081526013602052604090205460ff1680612a1357506001600160a01b03821660009081526013602052604090205460ff165b8015612a5b57506001600160a01b03831660009081526010602052604090205460ff1680612a5957506001600160a01b03821660009081526010602052604090205460ff165b155b15612a9357612a8360405180604001604052806002815260200161543160f01b815250613365565b612a8e8383836134b6565b505050565b6005546001600160a01b0383811691161415612ad657612acc604051806040016040528060028152602001612a1960f11b815250613365565b612a8e8382613892565b612af960405180604001604052806002815260200161543360f01b815250613365565b612a8e8383835b6001600160a01b03831660009081526001602052604090205481811015612b395760405162461bcd60e51b8152600401610ca990614035565b6001600160a01b03808516600090815260016020526040808220858503905591851681529081208054849290612b709084906140b7565b92505081905550826001600160a01b0316846001600160a01b03166000805160206142db83398151915284604051612baa91815260200190565b60405180910390a350505050565b6000612bc482846140cf565b9392505050565b6040805160028082526060820183526000926020830190803683370190505090503081600081518110612c0e57634e487b7160e01b600052603260045260246000fd5b6001600160a01b039283166020918202929092010152600454825191169082906001908110612c4d57634e487b7160e01b600052603260045260246000fd5b60200260200101906001600160a01b031690816001600160a01b031681525050612c78308484612700565b601654604051635c11d79560e01b81526001600160a01b0385811692635c11d79592612cb3928792600092889290911690429060040161407b565b600060405180830381600087803b158015612ccd57600080fd5b505af1158015612ce1573d6000803e3d6000fd5b5050601654600480546040516327a9b11f60e11b81526001600160a01b03918216928101929092529091169250634f53623e9150602401600060405180830381600087803b158015612d3257600080fd5b505af1158015612d46573d6000803e3d6000fd5b50505050505050565b6000612bc482846141f0565b600080546001600160a01b038381166001600160a01b0319831681178455604051919092169283917f8be0079c531659141344cd1fd0a4f28419497f9722a3daafe3b4186f6b6457e09190a35050565b6004546040805160028082526060820183526001600160a01b0390931692600092602083019080368337505060045482519293506001600160a01b031691839150600090612e0957634e487b7160e01b600052603260045260246000fd5b60200260200101906001600160a01b031690816001600160a01b0316815250503081600181518110612e4b57634e487b7160e01b600052603260045260246000fd5b6001600160a01b03928316602091820292909201015260405163095ea7b360e01b81528582166004820152602481018590529083169063095ea7b390604401602060405180830381600087803b158015612ea457600080fd5b505af1158015612eb8573d6000803e3d6000fd5b505050506040513d601f19601f82011682018060405250810190612edc9190613e91565b50601654604051635c11d79560e01b81526001600160a01b0386811692635c11d79592612f18928892600092889290911690429060040161407b565b600060405180830381600087803b158015612f3257600080fd5b505af1158015612f46573d6000803e3d6000fd5b50506016546040516327a9b11f60e11b81523060048201526001600160a01b039091169250634f53623e9150602401600060405180830381600087803b158015612f8f57600080fd5b505af1158015612fa3573d6000803e3d6000fd5b5050505050505050565b612ff28282604051602401612fc3929190614013565b60408051601f198184030181529190526020810180516001600160e01b03166309710a9d60e41b179052613a61565b5050565b60008083838261300682846140b7565b90508088141561301b57829450819350613315565b808810156132b157600061302f89836141f0565b90506130606040518060400160405280600d81526020016c646966666572656e636520257360981b81525082612fad565b600061306d600283614207565b9050613098604051806040016040528060078152602001667265737420257360c81b81525082612fad565b60006130a482846140b7565b90506130d36040518060400160405280600b81526020016a68616c664469666620257360a81b81525082612fad565b6130de816002612bb8565b905061310d6040518060400160405280600b81526020016a68616c664469666620257360a81b81525082612fad565b85811115801561311d5750848111155b156131e15761314660405180604001604052806003815260200162292a1960e91b815250613365565b61315081876141f0565b97506131916040518060400160405280601681526020017f6e6577547261646561626c6542616c616e63652025730000000000000000000081525089612fad565b61319b81866141f0565b96506131dc6040518060400160405280601581526020017f6e6577506c617961626c6542616c616e6365202573000000000000000000000081525088612fad565b6132a9565b8581111580156131f057508481115b156132475761321960405180604001604052806003815260200162292a1960e91b815250613365565b600061322586836141f0565b905061323181836140b7565b61323b90886141f0565b985060009750506132a9565b85811180156132565750848111155b156132a95761327f6040518060400160405280600381526020016252543360e81b815250613365565b600061328b87836141f0565b905061329781836140b7565b6132a190876141f0565b975060009850505b505050613315565b80881115613315576132dd6040518060400160405280600381526020016214950d60ea1b815250613365565b60006132e9828a6141f0565b905060006132f8826002612bb8565b905061330481866140b7565b965061331081856140b7565b955050505b505050935093915050565b612ff28282604051602401613336929190613fef565b60408051601f198184030181529190526020810180516001600160e01b031663c3b5563560e01b179052613a61565b6126fd816040516024016133799190613fdc565b60408051601f198184030181529190526020810180516001600160e01b031663104c13eb60e21b179052613a61565b600f805460ff1916600117905560045481906001600160a01b031660006133ce30611989565b905060006133dd826002612bb8565b905060006133eb8383612d4f565b6040516370a0823160e01b81523060048201529091506000906001600160a01b038616906370a082319060240160206040518083038186803b15801561343057600080fd5b505afa158015613444573d6000803e3d6000fd5b505050506040513d601f19601f820116820180604052508101906134689190613ec5565b90506134748684612bcb565b6040516370a0823160e01b81523060048201526000906134a99083906001600160a01b038916906370a082319060240161152f565b90506111cc878483613a82565b6001600160a01b0383166000908152600160205260409020548111156134ee5760405162461bcd60e51b8152600401610ca990614035565b6001600160a01b038316600090815260016020526040902080548290039055600b54610100900460ff16156136bf57600c5460009061353890613532846064612bb8565b90613c09565b90506000613556600d54613532606486612bb890919063ffffffff16565b90506000613574600e54613532606487612bb890919063ffffffff16565b90508061358183856140b7565b61358b91906140b7565b61359590856141f0565b306000908152600160205260408120805492965085929091906135b99084906140b7565b909155505061dead600090815260016020527fb34209a263f6c38fe55f099e9e70f9d67e93982480ff3234a5e0108028ad164d80548492906135fc9084906140b7565b90915550506006546001600160a01b03166000908152600160205260408120805483929061362b9084906140b7565b9091555050600c5460405190815230906001600160a01b038816906000805160206142db8339815191529060200160405180910390a360405182815261dead9030906000805160206142db8339815191529060200160405180910390a36006546040518281526001600160a01b03918216918816906000805160206142db8339815191529060200160405180910390a35050505b6001600160a01b03831660009081526013602052604090205460ff161561380f5760085460ff1615613766576001600160a01b03808416600090815260146020526040812054909161371291168461220e565b9050808211156137645760405162461bcd60e51b815260206004820152601e60248201527f4e6f7420686f6c64696e6720656e6f75676820506c616e6574204e66747300006044820152606401610ca9565b505b60006137786032613532846064612bb8565b6001600160a01b0384166000908152600160205260408120805492935083929091906137a59084906140b7565b90915550506001600160a01b038316600090815260016020819052604082200180548392906137d59084906140b7565b92505081905550826001600160a01b0316846001600160a01b03166000805160206142db83398151915283604051612baa91815260200190565b6001600160a01b03821660009081526013602052604090205460ff1615612a8e576001600160a01b038216600090815260016020526040812080548392906138589084906140b7565b92505081905550816001600160a01b0316836001600160a01b03166000805160206142db8339815191528360405161281891815260200190565b6001600160a01b038216600090815260016020819052604082209081015490546138bc91906140b7565b9050818110156138de5760405162461bcd60e51b8152600401610ca990614035565b6001600160a01b0383166000908152600160208190526040909120015482908111156139cc576001600160a01b0384166000908152600160208190526040909120015461392b90826141f0565b6001600160a01b03851660009081526001602081905260408220908101829055805492935083929091906139609084906141f0565b90915550506005546001600160a01b03166000908152600160205260408120805485929061398f9084906140b7565b90915550506005546040518481526001600160a01b03918216918616906000805160206142db8339815191529060200160405180910390a3613a5b565b6001600160a01b038416600090815260016020819052604082200180548592906139f79084906141f0565b90915550506005546001600160a01b031660009081526001602052604081208054859290613a269084906140b7565b90915550506005546040518481526001600160a01b03909116906000906000805160206142db83398151915290602001612baa565b50505050565b80516a636f6e736f6c652e6c6f67602083016000808483855afa5050505050565b613a8d308484612700565b6004805460405163095ea7b360e01b81526001600160a01b038681169382019390935260248101849052911690819063095ea7b390604401602060405180830381600087803b158015613adf57600080fd5b505af1158015613af3573d6000803e3d6000fd5b505050506040513d601f19601f82011682018060405250810190613b179190613e91565b506004546001600160a01b038086169163e8e33700913091168686600080613b476000546001600160a01b031690565b60405160e089901b7fffffffff000000000000000000000000000000000000000000000000000000001681526001600160a01b039788166004820152958716602487015260448601949094526064850192909252608484015260a483015290911660c48201524260e482015261010401606060405180830381600087803b158015613bd157600080fd5b505af1158015613be5573d6000803e3d6000fd5b505050506040513d601f19601f82011682018060405250810190612d469190613f00565b6000612bc482846141d1565b600060208284031215613c26578081fd5b8135612bc48161425d565b600060208284031215613c42578081fd5b8151612bc48161425d565b60008060408385031215613c5f578081fd5b8235613c6a8161425d565b91506020830135613c7a8161425d565b809150509250929050565b600080600060608486031215613c99578081fd5b8335613ca48161425d565b92506020840135613cb48161425d565b929592945050506040919091013590565b60008060008060008060c08789031215613cdd578182fd5b8635613ce88161425d565b95506020870135613cf88161425d565b9450604087013593506060870135613d0f8161425d565b9598949750929560808101359460a0909101359350915050565b60008060408385031215613d3b578182fd5b8235613d468161425d565b91506020830135613c7a81614272565b60008060408385031215613d68578182fd5b8235613d738161425d565b946020939093013593505050565b600080600060608486031215613d95578283fd5b8335613da08161425d565b95602085013595506040909401359392505050565b60006020808385031215613dc7578182fd5b825167ffffffffffffffff80821115613dde578384fd5b818501915085601f830112613df1578384fd5b815181811115613e0357613e03614247565b8060051b604051601f19603f83011681018181108582111715613e2857613e28614247565b604052828152858101935084860182860187018a1015613e46578788fd5b8795505b83861015613e68578051855260019590950194938601938601613e4a565b5098975050505050505050565b600060208284031215613e86578081fd5b8135612bc481614272565b600060208284031215613ea2578081fd5b8151612bc481614272565b600060208284031215613ebe578081fd5b5035919050565b600060208284031215613ed6578081fd5b5051919050565b60008060408385031215613eef578182fd5b505080516020909101519092909150565b600080600060608486031215613f14578081fd5b8351925060208401519150604084015190509250925092565b6000815180845260208085019450808401835b83811015613f655781516001600160a01b031687529582019590820190600101613f40565b509495945050505050565b60008151808452815b81811015613f9557602081850181015186830182015201613f79565b81811115613fa65782602083870101525b50601f01601f19169290920160200192915050565b828152604060208201526000613fd46040830184613f2d565b949350505050565b602081526000612bc46020830184613f70565b6040815260006140026040830185613f70565b905082151560208301529392505050565b6040815260006140266040830185613f70565b90508260208301529392505050565b60208082526026908201527f45524332303a207472616e7366657220616d6f756e7420657863656564732062604082015265616c616e636560d01b606082015260800190565b85815284602082015260a06040820152600061409a60a0830186613f2d565b6001600160a01b0394909416606083015250608001529392505050565b600082198211156140ca576140ca61421b565b500190565b6000826140de576140de614231565b500490565b600181815b8085111561411e5781600019048211156141045761410461421b565b8085161561411157918102915b93841c93908002906140e8565b509250929050565b6000612bc460ff84168360008261413f57506001610c5f565b8161414c57506000610c5f565b8160018114614162576002811461416c57614188565b6001915050610c5f565b60ff84111561417d5761417d61421b565b50506001821b610c5f565b5060208310610133831016604e8410600b84101617156141ab575081810a610c5f565b6141b583836140e3565b80600019048211156141c9576141c961421b565b029392505050565b60008160001904831182151516156141eb576141eb61421b565b500290565b6000828210156142025761420261421b565b500390565b60008261421657614216614231565b500690565b634e487b7160e01b600052601160045260246000fd5b634e487b7160e01b600052601260045260246000fd5b634e487b7160e01b600052604160045260246000fd5b6001600160a01b03811681146126fd57600080fd5b80151581146126fd57600080fdfe286e6577547261646561626c6542616c616e63652b6e6577506c617961626c6542616c616e636529203c3d20746f74616c5370724261636b20254f776e61626c653a2063616c6c6572206973206e6f7420746865206f776e6572ddf252ad1be2c89b69c2b068fc378daa952ba7f163c4a11628f55a4df523b3efa264697066735822122049b070e0c2163a66ec494897a453a24174d2a3cdb9039a72f50b3f5ea70a7cfe64736f6c63430008040033","abi":[{"inputs":[{"internalType":"address","name":"_sprNftAddress","type":"address"},{"internalType":"address","name":"_busdAddress","type":"address"}],"stateMutability":"nonpayable","type":"constructor"},{"anonymous":false,"inputs":[{"indexed":true,"internalType":"address","name":"owner","type":"address"},{"indexed":true,"internalType":"address","name":"spender","type":"address"},{"indexed":false,"internalType":"uint256","name":"value","type":"uint256"}],"name":"Approval","type":"event"},{"anonymous":false,"inputs":[{"indexed":true,"internalType":"address","name":"previousOwner","type":"address"},{"indexed":true,"internalType":"address","name":"newOwner","type":"address"}],"name":"OwnershipTransferred","type":"event"},{"anonymous":false,"inputs":[{"indexed":true,"internalType":"address","name":"from","type":"address"},{"indexed":true,"internalType":"address","name":"to","type":"address"},{"indexed":false,"internalType":"uint256","name":"value","type":"uint256"}],"name":"Transfer","type":"event"},{"inputs":[],"name":"DEAD","outputs":[{"internalType":"address","name":"","type":"address"}],"stateMutability":"view","type":"function"},{"inputs":[{"internalType":"address","name":"routerAddr","type":"address"},{"internalType":"uint256","name":"sprAmount","type":"uint256"},{"internalType":"uint256","name":"busdAmount","type":"uint256"}],"name":"addBnbLiquidity","outputs":[],"stateMutability":"payable","type":"function"},{"inputs":[{"internalType":"address","name":"routerAddress","type":"address"},{"internalType":"address","name":"pair","type":"address"}],"name":"addDex","outputs":[],"stateMutability":"nonpayable","type":"function"},{"inputs":[{"internalType":"address","name":"_wallet","type":"address"},{"internalType":"uint256","name":"_amount","type":"uint256"}],"name":"addPurchasingPower","outputs":[],"stateMutability":"nonpayable","type":"function"},{"inputs":[{"internalType":"address","name":"owner","type":"address"},{"internalType":"address","name":"spender","type":"address"}],"name":"allowance","outputs":[{"internalType":"uint256","name":"","type":"uint256"}],"stateMutability":"view","type":"function"},{"inputs":[{"internalType":"address","name":"spender","type":"address"},{"internalType":"uint256","name":"amount","type":"uint256"}],"name":"approve","outputs":[{"internalType":"bool","name":"","type":"bool"}],"stateMutability":"nonpayable","type":"function"},{"inputs":[],"name":"backendSignerAddress","outputs":[{"internalType":"address","name":"","type":"address"}],"stateMutability":"view","type":"function"},{"inputs":[{"internalType":"address","name":"account","type":"address"}],"name":"balanceOf","outputs":[{"internalType":"uint256","name":"","type":"uint256"}],"stateMutability":"view","type":"function"},{"inputs":[],"name":"burnTax","outputs":[{"internalType":"uint256","name":"","type":"uint256"}],"stateMutability":"view","type":"function"},{"inputs":[],"name":"busdAddress","outputs":[{"internalType":"address","name":"","type":"address"}],"stateMutability":"view","type":"function"},{"inputs":[],"name":"decimals","outputs":[{"internalType":"uint8","name":"","type":"uint8"}],"stateMutability":"view","type":"function"},{"inputs":[{"internalType":"address","name":"spender","type":"address"},{"internalType":"uint256","name":"subtractedValue","type":"uint256"}],"name":"decreaseAllowance","outputs":[{"internalType":"bool","name":"","type":"bool"}],"stateMutability":"nonpayable","type":"function"},{"inputs":[{"internalType":"address","name":"","type":"address"}],"name":"dexAddress","outputs":[{"internalType":"bool","name":"","type":"bool"}],"stateMutability":"view","type":"function"},{"inputs":[{"internalType":"uint256","name":"","type":"uint256"}],"name":"dexAddresses","outputs":[{"internalType":"address","name":"","type":"address"}],"stateMutability":"view","type":"function"},{"inputs":[{"internalType":"address","name":"","type":"address"}],"name":"dexPairAddress","outputs":[{"internalType":"address","name":"","type":"address"}],"stateMutability":"view","type":"function"},{"inputs":[{"internalType":"address","name":"","type":"address"}],"name":"extraPurchasingPower","outputs":[{"internalType":"uint256","name":"","type":"uint256"}],"stateMutability":"view","type":"function"},{"inputs":[],"name":"inSwapAndLiquify","outputs":[{"internalType":"bool","name":"","type":"bool"}],"stateMutability":"view","type":"function"},{"inputs":[{"internalType":"address","name":"spender","type":"address"},{"internalType":"uint256","name":"addedValue","type":"uint256"}],"name":"increaseAllowance","outputs":[{"internalType":"bool","name":"","type":"bool"}],"stateMutability":"nonpayable","type":"function"},{"inputs":[],"name":"isTokenTaxEnabled","outputs":[{"internalType":"bool","name":"","type":"bool"}],"stateMutability":"view","type":"function"},{"inputs":[],"name":"liquifyEnabled","outputs":[{"internalType":"bool","name":"","type":"bool"}],"stateMutability":"view","type":"function"},{"inputs":[],"name":"lpTax","outputs":[{"internalType":"uint256","name":"","type":"uint256"}],"stateMutability":"view","type":"function"},{"inputs":[],"name":"maxUsdPurchasePerPlanetNft","outputs":[{"internalType":"uint256","name":"","type":"uint256"}],"stateMutability":"view","type":"function"},{"inputs":[],"name":"minAmountToLiquify","outputs":[{"internalType":"uint256","name":"","type":"uint256"}],"stateMutability":"view","type":"function"},{"inputs":[],"name":"name","outputs":[{"internalType":"string","name":"","type":"string"}],"stateMutability":"view","type":"function"},{"inputs":[],"name":"owner","outputs":[{"internalType":"address","name":"","type":"address"}],"stateMutability":"view","type":"function"},{"inputs":[{"internalType":"address","name":"","type":"address"}],"name":"pairAddress","outputs":[{"internalType":"bool","name":"","type":"bool"}],"stateMutability":"view","type":"function"},{"inputs":[{"internalType":"address","name":"","type":"address"}],"name":"pairDexAddress","outputs":[{"internalType":"address","name":"","type":"address"}],"stateMutability":"view","type":"function"},{"inputs":[{"internalType":"address","name":"account","type":"address"}],"name":"playableBalanceOf","outputs":[{"internalType":"uint256","name":"","type":"uint256"}],"stateMutability":"view","type":"function"},{"inputs":[{"internalType":"address","name":"routerAddr","type":"address"},{"internalType":"address","name":"buyer","type":"address"}],"name":"purchasingPower","outputs":[{"internalType":"uint256","name":"","type":"uint256"}],"stateMutability":"view","type":"function"},{"inputs":[{"internalType":"address","name":"_wallet","type":"address"}],"name":"purchasingPowerAmount","outputs":[{"internalType":"uint256","name":"","type":"uint256"}],"stateMutability":"view","type":"function"},{"inputs":[],"name":"purchasingPowerEnabled","outputs":[{"internalType":"bool","name":"","type":"bool"}],"stateMutability":"view","type":"function"},{"inputs":[],"name":"renounceOwnership","outputs":[],"stateMutability":"nonpayable","type":"function"},{"inputs":[],"name":"rewardPoolTax","outputs":[{"internalType":"uint256","name":"","type":"uint256"}],"stateMutability":"view","type":"function"},{"inputs":[{"internalType":"address","name":"_backendSignerAddress","type":"address"}],"name":"setBackendSignerAddress","outputs":[],"stateMutability":"nonpayable","type":"function"},{"inputs":[{"internalType":"uint256","name":"_burnTax","type":"uint256"}],"name":"setBurnTax","outputs":[],"stateMutability":"nonpayable","type":"function"},{"inputs":[{"internalType":"bool","name":"_isTokenTaxEnabled","type":"bool"}],"name":"setIsTokenTaxEnabled","outputs":[],"stateMutability":"nonpayable","type":"function"},{"inputs":[{"internalType":"bool","name":"_liquifyEnabled","type":"bool"}],"name":"setLiquifyEnabled","outputs":[],"stateMutability":"nonpayable","type":"function"},{"inputs":[{"internalType":"uint256","name":"_lpTax","type":"uint256"}],"name":"setLpTax","outputs":[],"stateMutability":"nonpayable","type":"function"},{"inputs":[{"internalType":"uint256","name":"_maxUsdPurchasePerPlanetNft","type":"uint256"}],"name":"setMaxUsdPurchasePerPlanetNft","outputs":[],"stateMutability":"nonpayable","type":"function"},{"inputs":[{"internalType":"uint256","name":"_minAmountToLiquify","type":"uint256"}],"name":"setMinAmountToLiquify","outputs":[],"stateMutability":"nonpayable","type":"function"},{"inputs":[{"internalType":"bool","name":"_purchasingPowerEnabled","type":"bool"}],"name":"setPurchasingPowerEnabled","outputs":[],"stateMutability":"nonpayable","type":"function"},{"inputs":[{"internalType":"uint256","name":"_rewardPoolTax","type":"uint256"}],"name":"setRewardPoolTax","outputs":[],"stateMutability":"nonpayable","type":"function"},{"inputs":[{"internalType":"address","name":"_sprFundProxy","type":"address"}],"name":"setSprFundProxy","outputs":[],"stateMutability":"nonpayable","type":"function"},{"inputs":[{"internalType":"address","name":"_sprGameAddress","type":"address"}],"name":"setSprGameAddress","outputs":[],"stateMutability":"nonpayable","type":"function"},{"inputs":[{"internalType":"address","name":"_sprRewardPoolAddress","type":"address"}],"name":"setSprRewardPoolAddress","outputs":[],"stateMutability":"nonpayable","type":"function"},{"inputs":[{"internalType":"address","name":"_addr","type":"address"},{"internalType":"bool","name":"_exclude","type":"bool"}],"name":"setWhitelistedAddresses","outputs":[],"stateMutability":"nonpayable","type":"function"},{"inputs":[],"name":"sprFundProxyAddress","outputs":[{"internalType":"address","name":"","type":"address"}],"stateMutability":"view","type":"function"},{"inputs":[],"name":"sprGameAddress","outputs":[{"internalType":"address","name":"","type":"address"}],"stateMutability":"view","type":"function"},{"inputs":[],"name":"sprNft","outputs":[{"internalType":"contract ERC721","name":"","type":"address"}],"stateMutability":"view","type":"function"},{"inputs":[],"name":"sprRewardPoolAddress","outputs":[{"internalType":"address","name":"","type":"address"}],"stateMutability":"view","type":"function"},{"inputs":[],"name":"symbol","outputs":[{"internalType":"string","name":"","type":"string"}],"stateMutability":"view","type":"function"},{"inputs":[{"internalType":"address","name":"account","type":"address"}],"name":"totalBalanceOf","outputs":[{"internalType":"uint256","name":"","type":"uint256"}],"stateMutability":"view","type":"function"},{"inputs":[],"name":"totalSupply","outputs":[{"internalType":"uint256","name":"","type":"uint256"}],"stateMutability":"view","type":"function"},{"inputs":[{"internalType":"address","name":"account","type":"address"}],"name":"tradeableBalanceOf","outputs":[{"internalType":"uint256","name":"","type":"uint256"}],"stateMutability":"view","type":"function"},{"inputs":[{"internalType":"address","name":"recipient","type":"address"},{"internalType":"uint256","name":"amount","type":"uint256"}],"name":"transfer","outputs":[{"internalType":"bool","name":"","type":"bool"}],"stateMutability":"nonpayable","type":"function"},{"inputs":[{"internalType":"address","name":"sender","type":"address"},{"internalType":"address","name":"recipient","type":"address"},{"internalType":"uint256","name":"amount","type":"uint256"}],"name":"transferFrom","outputs":[{"internalType":"bool","name":"","type":"bool"}],"stateMutability":"nonpayable","type":"function"},{"inputs":[{"internalType":"address","name":"newOwner","type":"address"}],"name":"transferOwnership","outputs":[],"stateMutability":"nonpayable","type":"function"},{"inputs":[{"internalType":"address","name":"user","type":"address"},{"internalType":"address","name":"routerAddr","type":"address"},{"internalType":"uint256","name":"sprAmount","type":"uint256"}],"name":"userAddLiquidity","outputs":[{"components":[{"internalType":"address","name":"user","type":"address"},{"internalType":"uint256","name":"lpAmount","type":"uint256"},{"internalType":"uint256","name":"tradeableBalance","type":"uint256"},{"internalType":"uint256","name":"playableBalance","type":"uint256"},{"internalType":"address","name":"router","type":"address"},{"internalType":"address","name":"pair","type":"address"}],"internalType":"struct UserAddLiquidity","name":"","type":"tuple"}],"stateMutability":"nonpayable","type":"function"},{"inputs":[{"internalType":"address","name":"routerAddr","type":"address"},{"internalType":"address","name":"pair","type":"address"},{"internalType":"uint256","name":"lpAmount","type":"uint256"},{"internalType":"address","name":"receiver","type":"address"},{"internalType":"uint256","name":"tradeableBalance","type":"uint256"},{"internalType":"uint256","name":"playableBalance","type":"uint256"}],"name":"userRemoveLiquidity","outputs":[],"stateMutability":"nonpayable","type":"function"},{"inputs":[{"internalType":"address","name":"","type":"address"}],"name":"whitelistedAddresses","outputs":[{"internalType":"bool","name":"","type":"bool"}],"stateMutability":"view","type":"function"},{"stateMutability":"payable","type":"receive"}]}