{"address":"0x4c5859f0F772848b2D91F1D83E2Fe57935348029","bytecode":"0x60c0604052600b60808190526a213630b1b5a6b0ba3a32b960a91b60a09081526200002e91600691906200039f565b5060408051808201909152600380825262424b4d60e81b60209092019182526200005b916007916200039f565b503480156200006957600080fd5b50604051620024ad380380620024ad8339810160408190526200008c9162000445565b600680546200009b90620005bc565b80601f0160208091040260200160405190810160405280929190818152602001828054620000c990620005bc565b80156200011a5780601f10620000ee576101008083540402835291602001916200011a565b820191906000526020600020905b815481529060010190602001808311620000fc57829003601f168201915b5050505050600780546200012e90620005bc565b80601f01602080910402602001604051908101604052809291908181526020018280546200015c90620005bc565b8015620001ad5780601f106200018157610100808354040283529160200191620001ad565b820191906000526020600020905b8154815290600101906020018083116200018f57829003601f168201915b5050505050620001cc620001c66200025e60201b60201c565b62000262565b8151620001e19060049060208501906200039f565b508051620001f79060059060208401906200039f565b50505062000232336200020f620002b260201b60201c565b6200021c90600a620004d9565b6200022c90633b9aca006200059a565b620002b7565b600880546001600160a01b0390921661010002610100600160a81b03199092169190911790556200060f565b3390565b600080546001600160a01b038381166001600160a01b0319831681178455604051919092169283917f8be0079c531659141344cd1fd0a4f28419497f9722a3daafe3b4186f6b6457e09190a35050565b601290565b6001600160a01b038216620003125760405162461bcd60e51b815260206004820152601f60248201527f45524332303a206d696e7420746f20746865207a65726f206164647265737300604482015260640160405180910390fd5b806003600082825462000326919062000475565b90915550506001600160a01b038216600090815260016020526040812080548392906200035590849062000475565b90915550506040518181526001600160a01b038316906000907fddf252ad1be2c89b69c2b068fc378daa952ba7f163c4a11628f55a4df523b3ef9060200160405180910390a35050565b828054620003ad90620005bc565b90600052602060002090601f016020900481019282620003d157600085556200041c565b82601f10620003ec57805160ff19168380011785556200041c565b828001600101855582156200041c579182015b828111156200041c578251825591602001919060010190620003ff565b506200042a9291506200042e565b5090565b5b808211156200042a57600081556001016200042f565b60006020828403121562000457578081fd5b81516001600160a01b03811681146200046e578182fd5b9392505050565b600082198211156200048b576200048b620005f9565b500190565b600181815b80851115620004d1578160001904821115620004b557620004b5620005f9565b80851615620004c357918102915b93841c939080029062000495565b509250929050565b60006200046e60ff841683600082620004f55750600162000594565b81620005045750600062000594565b81600181146200051d5760028114620005285762000548565b600191505062000594565b60ff8411156200053c576200053c620005f9565b50506001821b62000594565b5060208310610133831016604e8410600b84101617156200056d575081810a62000594565b62000579838362000490565b8060001904821115620005905762000590620005f9565b0290505b92915050565b6000816000190483118215151615620005b757620005b7620005f9565b500290565b600181811c90821680620005d157607f821691505b60208210811415620005f357634e487b7160e01b600052602260045260246000fd5b50919050565b634e487b7160e01b600052601160045260246000fd5b611e8e806200061f6000396000f3fe6080604052600436106101965760003560e01c806370a08231116100e1578063a457c2d71161008a578063c35e2ceb11610064578063c35e2ceb14610491578063dd62ed3e146104b1578063f2fde38b146104f7578063f76f8d781461051757600080fd5b8063a457c2d714610431578063a9059cbb14610451578063bbe9ad841461047157600080fd5b80638da5cb5b116100bb5780638da5cb5b146103e957806395d89b4114610407578063a3f4df7e1461041c57600080fd5b806370a0823114610379578063715018a6146103af57806376a90231146103c457600080fd5b806323b872dd11610143578063395093511161011d57806339509351146103265780635cb8f4a9146103465780636648f8021461035957600080fd5b806323b872dd14610289578063313ce567146102a957806339038f2a146102c557600080fd5b80631db2bf2e116101745780631db2bf2e14610215578063220f66961461024d57806322a9385b1461026757600080fd5b806306fdde031461019b578063095ea7b3146101c657806318160ddd146101f6575b600080fd5b3480156101a757600080fd5b506101b061052c565b6040516101bd9190611ce0565b60405180910390f35b3480156101d257600080fd5b506101e66101e1366004611bf9565b6105be565b60405190151581526020016101bd565b34801561020257600080fd5b506003545b6040519081526020016101bd565b34801561022157600080fd5b50600954610235906001600160a01b031681565b6040516001600160a01b0390911681526020016101bd565b34801561025957600080fd5b506008546101e69060ff1681565b34801561027357600080fd5b50610287610282366004611af0565b6105d6565b005b34801561029557600080fd5b506101e66102a4366004611b67565b610657565b3480156102b557600080fd5b50604051601281526020016101bd565b3480156102d157600080fd5b506102e56102e0366004611b67565b61067b565b6040516101bd919081516001600160a01b03908116825260208084015190830152604080840151821690830152606092830151169181019190915260800190565b34801561033257600080fd5b506101e6610341366004611bf9565b610b73565b610287610354366004611c24565b610bb2565b34801561036557600080fd5b50610287610374366004611af0565b610db7565b34801561038557600080fd5b50610207610394366004611af0565b6001600160a01b031660009081526001602052604090205490565b3480156103bb57600080fd5b50610287610e33565b3480156103d057600080fd5b506008546102359061010090046001600160a01b031681565b3480156103f557600080fd5b506000546001600160a01b0316610235565b34801561041357600080fd5b506101b0610e99565b34801561042857600080fd5b506101b0610ea8565b34801561043d57600080fd5b506101e661044c366004611bf9565b610f36565b34801561045d57600080fd5b506101e661046c366004611bf9565b610fc8565b34801561047d57600080fd5b5061028761048c366004611ba7565b610fd6565b34801561049d57600080fd5b50600a54610235906001600160a01b031681565b3480156104bd57600080fd5b506102076104cc366004611b2f565b6001600160a01b03918216600090815260026020908152604080832093909416825291909152205490565b34801561050357600080fd5b50610287610512366004611af0565b6112a9565b34801561052357600080fd5b506101b0611374565b60606004805461053b90611df2565b80601f016020809104026020016040519081016040528092919081815260200182805461056790611df2565b80156105b45780601f10610589576101008083540402835291602001916105b4565b820191906000526020600020905b81548152906001019060200180831161059757829003601f168201915b5050505050905090565b6000336105cc818585611381565b5060019392505050565b6000546001600160a01b031633146106355760405162461bcd60e51b815260206004820181905260248201527f4f776e61626c653a2063616c6c6572206973206e6f7420746865206f776e657260448201526064015b60405180910390fd5b600980546001600160a01b0319166001600160a01b0392909216919091179055565b6000336106658582856114a5565b610670858585611537565b506001949350505050565b6040805160808101825260008082526020820181905291810182905260608101919091526008805460ff19166001179055600a54336001600160a01b03909116146107085760405162461bcd60e51b815260206004820152601d60248201527f43414c4c45523a204f6e6c79205370722047616d6520616c6c6f776564000000604482015260640161062c565b6001600160a01b0384166000908152600160205260409020548211156107635760405162461bcd60e51b815260206004820152601060248201526f4e6f7420656e6f7567682066756e647360801b604482015260640161062c565b60008390506000600860019054906101000a90046001600160a01b031690506000826001600160a01b031663c45a01556040518163ffffffff1660e01b815260040160206040518083038186803b1580156107bd57600080fd5b505afa1580156107d1573d6000803e3d6000fd5b505050506040513d601f19601f820116820180604052508101906107f59190611b13565b9050610802873087611537565b600061080f600287611dbb565b905061081c308588611381565b6040516370a0823160e01b81523060048201526000906001600160a01b038516906370a082319060240160206040518083038186803b15801561085e57600080fd5b505afa158015610872573d6000803e3d6000fd5b505050506040513d601f19601f820116820180604052508101906108969190611c78565b90506108a28583611705565b6040516370a0823160e01b815230600482015260009082906001600160a01b038716906370a082319060240160206040518083038186803b1580156108e657600080fd5b505afa1580156108fa573d6000803e3d6000fd5b505050506040513d601f19601f8201168201806040525081019061091e9190611c78565b6109289190611ddb565b60405163095ea7b360e01b81526001600160a01b038881166004830152602482018390529192509086169063095ea7b390604401602060405180830381600087803b15801561097657600080fd5b505af115801561098a573d6000803e3d6000fd5b505050506040513d601f19601f820116820180604052508101906109ae9190611c58565b506109ba30878a611381565b600854600a5460405162e8e33760e81b81523060048201526001600160a01b0361010090930483166024820152604481018690526064810184905260006084820181905260a4820181905291831660c48201524260e4820152909188169063e8e337009061010401606060405180830381600087803b158015610a3c57600080fd5b505af1158015610a50573d6000803e3d6000fd5b505050506040513d601f19601f82011682018060405250810190610a749190611cb3565b9250505060405180608001604052808c6001600160a01b03168152602001828152602001886001600160a01b03168152602001866001600160a01b031663e6a4390530600860019054906101000a90046001600160a01b03166040518363ffffffff1660e01b8152600401610aff9291906001600160a01b0392831681529116602082015260400190565b60206040518083038186803b158015610b1757600080fd5b505afa158015610b2b573d6000803e3d6000fd5b505050506040513d601f19601f82011682018060405250810190610b4f9190611b13565b6001600160a01b031690526008805460ff191690559b9a5050505050505050505050565b3360008181526002602090815260408083206001600160a01b03871684529091528120549091906105cc9082908690610bad908790611da3565b611381565b6008805460ff1916600117908190556001600160a01b036101009091041683610bdc333086611537565b6040516323b872dd60e01b8152336004820152306024820152604481018490526001600160a01b038316906323b872dd90606401602060405180830381600087803b158015610c2a57600080fd5b505af1158015610c3e573d6000803e3d6000fd5b505050506040513d601f19601f82011682018060405250810190610c629190611c58565b50610c6e308686611381565b60405163095ea7b360e01b81526001600160a01b0382811660048301526024820185905283169063095ea7b390604401602060405180830381600087803b158015610cb857600080fd5b505af1158015610ccc573d6000803e3d6000fd5b505050506040513d601f19601f82011682018060405250810190610cf09190611c58565b5060085460405162e8e33760e81b81523060048201526101009091046001600160a01b039081166024830152604482018690526064820185905260006084830181905260a48301523360c48301524260e483015282169063e8e337009061010401606060405180830381600087803b158015610d6b57600080fd5b505af1158015610d7f573d6000803e3d6000fd5b505050506040513d601f19601f82011682018060405250810190610da39190611cb3565b50506008805460ff19169055505050505050565b6000546001600160a01b03163314610e115760405162461bcd60e51b815260206004820181905260248201527f4f776e61626c653a2063616c6c6572206973206e6f7420746865206f776e6572604482015260640161062c565b600a80546001600160a01b0319166001600160a01b0392909216919091179055565b6000546001600160a01b03163314610e8d5760405162461bcd60e51b815260206004820181905260248201527f4f776e61626c653a2063616c6c6572206973206e6f7420746865206f776e6572604482015260640161062c565b610e976000611891565b565b60606005805461053b90611df2565b60068054610eb590611df2565b80601f0160208091040260200160405190810160405280929190818152602001828054610ee190611df2565b8015610f2e5780601f10610f0357610100808354040283529160200191610f2e565b820191906000526020600020905b815481529060010190602001808311610f1157829003601f168201915b505050505081565b3360008181526002602090815260408083206001600160a01b038716845290915281205490919083811015610fbb5760405162461bcd60e51b815260206004820152602560248201527f45524332303a2064656372656173656420616c6c6f77616e63652062656c6f77604482015264207a65726f60d81b606482015260840161062c565b6106708286868403611381565b6000336105cc818585611537565b6008805460ff19166001179055600a54336001600160a01b039091161461103f5760405162461bcd60e51b815260206004820152601d60248201527f43414c4c45523a204f6e6c79205370722047616d6520616c6c6f776564000000604482015260640161062c565b60405163095ea7b360e01b81526001600160a01b0380861660048301526024820184905285919085169063095ea7b390604401602060405180830381600087803b15801561108c57600080fd5b505af11580156110a0573d6000803e3d6000fd5b505050506040513d601f19601f820116820180604052508101906110c49190611c58565b50600854600954604051635d5155ef60e11b81523060048201526101009092046001600160a01b039081166024840152604483018690526000606484018190526084840181905291811660a48401524260c48401529091829184169063baa2abde9060e4016040805180830381600087803b15801561114257600080fd5b505af1158015611156573d6000803e3d6000fd5b505050506040513d601f19601f8201168201806040525081019061117a9190611c90565b6009546040516327a9b11f60e11b81523060048201529294509092506001600160a01b031690634f53623e90602401600060405180830381600087803b1580156111c357600080fd5b505af11580156111d7573d6000803e3d6000fd5b50506009546008546040516327a9b11f60e11b81526001600160a01b036101009092048216600482015291169250634f53623e9150602401600060405180830381600087803b15801561122957600080fd5b505af115801561123d573d6000803e3d6000fd5b505030600090815260016020526040902054915061125d905084836118e1565b30600090815260016020526040812054611278908390611ddb565b905060006112868286611da3565b9050611293308883611537565b50506008805460ff191690555050505050505050565b6000546001600160a01b031633146113035760405162461bcd60e51b815260206004820181905260248201527f4f776e61626c653a2063616c6c6572206973206e6f7420746865206f776e6572604482015260640161062c565b6001600160a01b0381166113685760405162461bcd60e51b815260206004820152602660248201527f4f776e61626c653a206e6577206f776e657220697320746865207a65726f206160448201526564647265737360d01b606482015260840161062c565b61137181611891565b50565b60078054610eb590611df2565b6001600160a01b0383166113e35760405162461bcd60e51b8152602060048201526024808201527f45524332303a20617070726f76652066726f6d20746865207a65726f206164646044820152637265737360e01b606482015260840161062c565b6001600160a01b0382166114445760405162461bcd60e51b815260206004820152602260248201527f45524332303a20617070726f766520746f20746865207a65726f206164647265604482015261737360f01b606482015260840161062c565b6001600160a01b0383811660008181526002602090815260408083209487168084529482529182902085905590518481527f8c5be1e5ebec7d5bd14f71427d1e84f3dd0314c0f7b2291e5b200ac8c7c3b925910160405180910390a3505050565b6001600160a01b03838116600090815260026020908152604080832093861683529290522054600019811461153157818110156115245760405162461bcd60e51b815260206004820152601d60248201527f45524332303a20696e73756666696369656e7420616c6c6f77616e6365000000604482015260640161062c565b6115318484848403611381565b50505050565b6001600160a01b03831661159b5760405162461bcd60e51b815260206004820152602560248201527f45524332303a207472616e736665722066726f6d20746865207a65726f206164604482015264647265737360d81b606482015260840161062c565b6001600160a01b0382166115fd5760405162461bcd60e51b815260206004820152602360248201527f45524332303a207472616e7366657220746f20746865207a65726f206164647260448201526265737360e81b606482015260840161062c565b6001600160a01b038316600090815260016020526040902054818110156116755760405162461bcd60e51b815260206004820152602660248201527f45524332303a207472616e7366657220616d6f756e7420657863656564732062604482015265616c616e636560d01b606482015260840161062c565b6001600160a01b038085166000908152600160205260408082208585039055918516815290812080548492906116ac908490611da3565b92505081905550826001600160a01b0316846001600160a01b03167fddf252ad1be2c89b69c2b068fc378daa952ba7f163c4a11628f55a4df523b3ef846040516116f891815260200190565b60405180910390a3611531565b604080516002808252606082018352600092602083019080368337019050509050308160008151811061174857634e487b7160e01b600052603260045260246000fd5b6001600160a01b0392831660209182029290920101526008548251610100909104909116908290600190811061178e57634e487b7160e01b600052603260045260246000fd5b60200260200101906001600160a01b031690816001600160a01b0316815250506117b9308484611381565b600954604051635c11d79560e01b81526001600160a01b0385811692635c11d795926117f49287926000928892909116904290600401611d33565b600060405180830381600087803b15801561180e57600080fd5b505af1158015611822573d6000803e3d6000fd5b50506009546008546040516327a9b11f60e11b81526001600160a01b036101009092048216600482015291169250634f53623e9150602401600060405180830381600087803b15801561187457600080fd5b505af1158015611888573d6000803e3d6000fd5b50505050505050565b600080546001600160a01b038381166001600160a01b0319831681178455604051919092169283917f8be0079c531659141344cd1fd0a4f28419497f9722a3daafe3b4186f6b6457e09190a35050565b6008546040805160028082526060820183526101009093046001600160a01b031692600092602083019080368337019050509050600860019054906101000a90046001600160a01b03168160008151811061194c57634e487b7160e01b600052603260045260246000fd5b60200260200101906001600160a01b031690816001600160a01b031681525050308160018151811061198e57634e487b7160e01b600052603260045260246000fd5b6001600160a01b03928316602091820292909201015260405163095ea7b360e01b81528582166004820152602481018590529083169063095ea7b390604401602060405180830381600087803b1580156119e757600080fd5b505af11580156119fb573d6000803e3d6000fd5b505050506040513d601f19601f82011682018060405250810190611a1f9190611c58565b50600954604051635c11d79560e01b81526001600160a01b0386811692635c11d79592611a5b9288926000928892909116904290600401611d33565b600060405180830381600087803b158015611a7557600080fd5b505af1158015611a89573d6000803e3d6000fd5b50506009546040516327a9b11f60e11b81523060048201526001600160a01b039091169250634f53623e9150602401600060405180830381600087803b158015611ad257600080fd5b505af1158015611ae6573d6000803e3d6000fd5b5050505050505050565b600060208284031215611b01578081fd5b8135611b0c81611e43565b9392505050565b600060208284031215611b24578081fd5b8151611b0c81611e43565b60008060408385031215611b41578081fd5b8235611b4c81611e43565b91506020830135611b5c81611e43565b809150509250929050565b600080600060608486031215611b7b578081fd5b8335611b8681611e43565b92506020840135611b9681611e43565b929592945050506040919091013590565b60008060008060808587031215611bbc578081fd5b8435611bc781611e43565b93506020850135611bd781611e43565b9250604085013591506060850135611bee81611e43565b939692955090935050565b60008060408385031215611c0b578182fd5b8235611c1681611e43565b946020939093013593505050565b600080600060608486031215611c38578283fd5b8335611c4381611e43565b95602085013595506040909401359392505050565b600060208284031215611c69578081fd5b81518015158114611b0c578182fd5b600060208284031215611c89578081fd5b5051919050565b60008060408385031215611ca2578182fd5b505080516020909101519092909150565b600080600060608486031215611cc7578283fd5b8351925060208401519150604084015190509250925092565b6000602080835283518082850152825b81811015611d0c57858101830151858201604001528201611cf0565b81811115611d1d5783604083870101525b50601f01601f1916929092016040019392505050565b600060a082018783526020878185015260a0604085015281875180845260c0860191508289019350845b81811015611d825784516001600160a01b031683529383019391830191600101611d5d565b50506001600160a01b03969096166060850152505050608001529392505050565b60008219821115611db657611db6611e2d565b500190565b600082611dd657634e487b7160e01b81526012600452602481fd5b500490565b600082821015611ded57611ded611e2d565b500390565b600181811c90821680611e0657607f821691505b60208210811415611e2757634e487b7160e01b600052602260045260246000fd5b50919050565b634e487b7160e01b600052601160045260246000fd5b6001600160a01b038116811461137157600080fdfea2646970667358221220ba758ec2f130e21706133a37ff1e0a8d118c38a53edf94e583b3565cebb4b4b564736f6c63430008040033","abi":[{"inputs":[{"internalType":"address","name":"_busdAddress","type":"address"}],"stateMutability":"nonpayable","type":"constructor"},{"anonymous":false,"inputs":[{"indexed":true,"internalType":"address","name":"owner","type":"address"},{"indexed":true,"internalType":"address","name":"spender","type":"address"},{"indexed":false,"internalType":"uint256","name":"value","type":"uint256"}],"name":"Approval","type":"event"},{"anonymous":false,"inputs":[{"indexed":true,"internalType":"address","name":"previousOwner","type":"address"},{"indexed":true,"internalType":"address","name":"newOwner","type":"address"}],"name":"OwnershipTransferred","type":"event"},{"anonymous":false,"inputs":[{"indexed":true,"internalType":"address","name":"from","type":"address"},{"indexed":true,"internalType":"address","name":"to","type":"address"},{"indexed":false,"internalType":"uint256","name":"value","type":"uint256"}],"name":"Transfer","type":"event"},{"inputs":[],"name":"NAME","outputs":[{"internalType":"string","name":"","type":"string"}],"stateMutability":"view","type":"function"},{"inputs":[],"name":"SYMBOL","outputs":[{"internalType":"string","name":"","type":"string"}],"stateMutability":"view","type":"function"},{"inputs":[{"internalType":"address","name":"routerAddr","type":"address"},{"internalType":"uint256","name":"sprAmount","type":"uint256"},{"internalType":"uint256","name":"busdAmount","type":"uint256"}],"name":"addBusdLiquidity","outputs":[],"stateMutability":"payable","type":"function"},{"inputs":[{"internalType":"address","name":"owner","type":"address"},{"internalType":"address","name":"spender","type":"address"}],"name":"allowance","outputs":[{"internalType":"uint256","name":"","type":"uint256"}],"stateMutability":"view","type":"function"},{"inputs":[{"internalType":"address","name":"spender","type":"address"},{"internalType":"uint256","name":"amount","type":"uint256"}],"name":"approve","outputs":[{"internalType":"bool","name":"","type":"bool"}],"stateMutability":"nonpayable","type":"function"},{"inputs":[{"internalType":"address","name":"account","type":"address"}],"name":"balanceOf","outputs":[{"internalType":"uint256","name":"","type":"uint256"}],"stateMutability":"view","type":"function"},{"inputs":[],"name":"busdAddress","outputs":[{"internalType":"address","name":"","type":"address"}],"stateMutability":"view","type":"function"},{"inputs":[],"name":"decimals","outputs":[{"internalType":"uint8","name":"","type":"uint8"}],"stateMutability":"view","type":"function"},{"inputs":[{"internalType":"address","name":"spender","type":"address"},{"internalType":"uint256","name":"subtractedValue","type":"uint256"}],"name":"decreaseAllowance","outputs":[{"internalType":"bool","name":"","type":"bool"}],"stateMutability":"nonpayable","type":"function"},{"inputs":[],"name":"inSwapAndLiquify","outputs":[{"internalType":"bool","name":"","type":"bool"}],"stateMutability":"view","type":"function"},{"inputs":[{"internalType":"address","name":"spender","type":"address"},{"internalType":"uint256","name":"addedValue","type":"uint256"}],"name":"increaseAllowance","outputs":[{"internalType":"bool","name":"","type":"bool"}],"stateMutability":"nonpayable","type":"function"},{"inputs":[],"name":"name","outputs":[{"internalType":"string","name":"","type":"string"}],"stateMutability":"view","type":"function"},{"inputs":[],"name":"owner","outputs":[{"internalType":"address","name":"","type":"address"}],"stateMutability":"view","type":"function"},{"inputs":[],"name":"renounceOwnership","outputs":[],"stateMutability":"nonpayable","type":"function"},{"inputs":[{"internalType":"address","name":"_sprFundProxy","type":"address"}],"name":"setSprFundProxy","outputs":[],"stateMutability":"nonpayable","type":"function"},{"inputs":[{"internalType":"address","name":"_sprGameAddress","type":"address"}],"name":"setSprGameAddress","outputs":[],"stateMutability":"nonpayable","type":"function"},{"inputs":[],"name":"sprFundProxyAddress","outputs":[{"internalType":"address","name":"","type":"address"}],"stateMutability":"view","type":"function"},{"inputs":[],"name":"sprGameAddress","outputs":[{"internalType":"address","name":"","type":"address"}],"stateMutability":"view","type":"function"},{"inputs":[],"name":"symbol","outputs":[{"internalType":"string","name":"","type":"string"}],"stateMutability":"view","type":"function"},{"inputs":[],"name":"totalSupply","outputs":[{"internalType":"uint256","name":"","type":"uint256"}],"stateMutability":"view","type":"function"},{"inputs":[{"internalType":"address","name":"to","type":"address"},{"internalType":"uint256","name":"amount","type":"uint256"}],"name":"transfer","outputs":[{"internalType":"bool","name":"","type":"bool"}],"stateMutability":"nonpayable","type":"function"},{"inputs":[{"internalType":"address","name":"from","type":"address"},{"internalType":"address","name":"to","type":"address"},{"internalType":"uint256","name":"amount","type":"uint256"}],"name":"transferFrom","outputs":[{"internalType":"bool","name":"","type":"bool"}],"stateMutability":"nonpayable","type":"function"},{"inputs":[{"internalType":"address","name":"newOwner","type":"address"}],"name":"transferOwnership","outputs":[],"stateMutability":"nonpayable","type":"function"},{"inputs":[{"internalType":"address","name":"_wallet","type":"address"},{"internalType":"address","name":"_routerAddr","type":"address"},{"internalType":"uint256","name":"_sprAmount","type":"uint256"}],"name":"userAddLiquidity","outputs":[{"components":[{"internalType":"address","name":"wallet","type":"address"},{"internalType":"uint256","name":"lpAmount","type":"uint256"},{"internalType":"address","name":"router","type":"address"},{"internalType":"address","name":"pair","type":"address"}],"internalType":"struct UserAddLiquidity","name":"","type":"tuple"}],"stateMutability":"nonpayable","type":"function"},{"inputs":[{"internalType":"address","name":"routerAddr","type":"address"},{"internalType":"address","name":"pair","type":"address"},{"internalType":"uint256","name":"lpAmount","type":"uint256"},{"internalType":"address","name":"receiver","type":"address"}],"name":"userRemoveLiquidity","outputs":[],"stateMutability":"nonpayable","type":"function"}]}