{"address":"0x67d269191c92Caf3cD7723F116c85e6E9bf55933","bytecode":"0x6080604052600180546001600160a01b03191661dead1781556608e1bc9bf040006006556007805460ff1916821790556032600a55600d805461010161ffff19909116179055600e819055600f805462ffffff191690911790553480156200006657600080fd5b50604051620042f5380380620042f5833981016040819052620000899162000138565b6200009433620000e8565b600380546001600160a01b039586166001600160a01b0319918216179091556004805494861694821694909417909355600280549285169284169290921790915560058054919093169116179055620001b8565b600080546001600160a01b038381166001600160a01b0319831681178455604051919092169283917f8be0079c531659141344cd1fd0a4f28419497f9722a3daafe3b4186f6b6457e09190a35050565b600080600080608085870312156200014e578384fd5b84516200015b816200019f565b60208601519094506200016e816200019f565b604086015190935062000181816200019f565b606086015190925062000194816200019f565b939692955090935050565b6001600160a01b0381168114620001b557600080fd5b50565b61412d80620001c86000396000f3fe6080604052600436106101e35760003560e01c80638e8bc9b011610102578063cf9d423011610095578063efc1741511610064578063efc1741514610601578063f2fde38b14610617578063f4c07d8114610637578063fcd555741461064a57600080fd5b8063cf9d423014610580578063d1ecc46114610593578063d963d89b146105a6578063ea25ebb2146105e157600080fd5b8063b5980d61116100d1578063b5980d6114610492578063be43cf0d146104b2578063c4340f92146104d1578063c9513dbd146104f157600080fd5b80638e8bc9b01461041257806390d49b9d14610445578063a293a31e14610465578063b459a6951461047857600080fd5b80634de812051161017a5780636773249f116101495780636773249f146103ac578063715018a6146103cc57806373ccdec9146103e15780638da5cb5b146103f457600080fd5b80634de812051461031c5780635acb36ce1461033c578063600106f41461036c578063672f967c1461038c57600080fd5b806318a26c86116101b657806318a26c861461028e57806326f346a0146102a15780632a3d97a1146102ce57806345fba4f3146102fc57600080fd5b80630d72d57f146101e857806312a9aea91461022557806314e94c6e1461023a5780631815ce7d1461026e575b600080fd5b3480156101f457600080fd5b50600554610208906001600160a01b031681565b6040516001600160a01b0390911681526020015b60405180910390f35b6102386102333660046136bb565b61066a565b005b34801561024657600080fd5b5061025a610255366004613746565b610af9565b60405161021c989796959493929190613ed6565b34801561027a57600080fd5b50610238610289366004613604565b610cee565b61023861029c36600461391b565b610d58565b3480156102ad57600080fd5b506102c16102bc366004613781565b61114d565b60405161021c9190613ec3565b3480156102da57600080fd5b506102ee6102e936600461367b565b611215565b60405190815260200161021c565b34801561030857600080fd5b50610238610317366004613643565b611241565b34801561032857600080fd5b50610238610337366004613643565b61129c565b34801561034857600080fd5b50600f5461035c9062010000900460ff1681565b604051901515815260200161021c565b34801561037857600080fd5b50610238610387366004613643565b611300565b34801561039857600080fd5b506102386103a7366004613b30565b611362565b3480156103b857600080fd5b506102386103c7366004613b30565b6113af565b3480156103d857600080fd5b506102386113fc565b6102386103ef366004613bd7565b611450565b34801561040057600080fd5b506000546001600160a01b0316610208565b34801561041e57600080fd5b5061043261042d366004613746565b611915565b60405161021c9796959493929190613e2d565b34801561045157600080fd5b50610238610460366004613604565b611a7a565b610238610473366004613b60565b611ae4565b34801561048457600080fd5b50600f5461035c9060ff1681565b34801561049e57600080fd5b506102386104ad366004613643565b61206a565b3480156104be57600080fd5b50600f5461035c90610100900460ff1681565b3480156104dd57600080fd5b506102386104ec366004613643565b6120c5565b3480156104fd57600080fd5b5061054d61050c366004613746565b805160208183018101805160098252928201919093012091528054600182015460028301546003909301546001600160a01b03928316939192918216911684565b604080516001600160a01b039586168152602081019490945291841691830191909152909116606082015260800161021c565b61023861058e366004613a8a565b612127565b6102386105a13660046139ac565b61269a565b3480156105b257600080fd5b5061035c6105c1366004613746565b805160208183018101805160108252928201919093012091525460ff1681565b3480156105ed57600080fd5b506102386105fc366004613643565b61293f565b34801561060d57600080fd5b506102ee60065481565b34801561062357600080fd5b50610238610632366004613604565b61299a565b61023861064536600461367b565b612a53565b34801561065657600080fd5b50610238610665366004613b30565b612ff0565b600061067e6003546001600160a01b031690565b60048054604051630805372f60e01b81529293506001600160a01b0316916000918391630805372f916106b5918d918d9101613e89565b60006040518083038186803b1580156106cd57600080fd5b505afa1580156106e1573d6000803e3d6000fd5b505050506040513d6000823e601f3d908101601f1916820160405261070991908101906137c4565b600f5490915060ff166107635760405162461bcd60e51b815260206004820152601e60248201527f50757263686173696e6720706c616e6574732069732064697361626c6564000060448201526064015b60405180910390fd5b8060400151156107b55760405162461bcd60e51b815260206004820152601a60248201527f506c616e6574206775696420616c726561647920657869737473000000000000604482015260640161075a565b6040516370a0823160e01b815233600482015287906001600160a01b038516906370a082319060240160206040518083038186803b1580156107f657600080fd5b505afa15801561080a573d6000803e3d6000fd5b505050506040513d601f19601f8201168201806040525081019061082e9190613b48565b10156108715760405162461bcd60e51b81526020600482015260126024820152712737ba1032b737bab3b4103a37b5b2b7399760711b604482015260640161075a565b604051636eb1769f60e11b815233600482015230602482015287906001600160a01b0385169063dd62ed3e9060440160206040518083038186803b1580156108b857600080fd5b505afa1580156108cc573d6000803e3d6000fd5b505050506040513d601f19601f820116820180604052508101906108f09190613b48565b101561093e5760405162461bcd60e51b815260206004820152601960248201527f417070726f7665207472616e73616374696f6e20666972737400000000000000604482015260640161075a565b60065434146109875760405162461bcd60e51b81526020600482015260156024820152744e6f742073656e6420656e6f75676820424e42277360581b604482015260640161075a565b60008989338a6040516020016109a09493929190613cc3565b60408051601f1981840301815290829052600554633248da1f60e11b835290925073__$ad9ca387392769a074e8e3cd9fd740c701$__91636491b43e916109f9916001600160a01b039091169085908c90600401613d91565b60006040518083038186803b158015610a1157600080fd5b505af4158015610a25573d6000803e3d6000fd5b50506002546006546040516001600160a01b03909216935080156108fc029250906000818181858888f19350505050158015610a65573d6000803e3d6000fd5b506040516351f71c5760e11b81526001600160a01b0384169063a3ee38ae90610a9a9033908e908e908c908c90600401613deb565b602060405180830381600087803b158015610ab457600080fd5b505af1158015610ac8573d6000803e3d6000fd5b505050506040513d601f19601f82011682018060405250810190610aec9190613b48565b5050505050505050505050565b8051602081830181018051600b82529282019190930120915280548190610b1f90614053565b80601f0160208091040260200160405190810160405280929190818152602001828054610b4b90614053565b8015610b985780601f10610b6d57610100808354040283529160200191610b98565b820191906000526020600020905b815481529060010190602001808311610b7b57829003601f168201915b505050505090806001018054610bad90614053565b80601f0160208091040260200160405190810160405280929190818152602001828054610bd990614053565b8015610c265780601f10610bfb57610100808354040283529160200191610c26565b820191906000526020600020905b815481529060010190602001808311610c0957829003601f168201915b505050600284015460038501546004860154600587015460068801805497986001600160a01b039095169793965091945060ff169291610c6590614053565b80601f0160208091040260200160405190810160405280929190818152602001828054610c9190614053565b8015610cde5780601f10610cb357610100808354040283529160200191610cde565b820191906000526020600020905b815481529060010190602001808311610cc157829003601f168201915b5050505050908060070154905088565b6000546001600160a01b03163314610d365760405162461bcd60e51b815260206004820181905260248201526000805160206140d8833981519152604482015260640161075a565b600580546001600160a01b0319166001600160a01b0392909216919091179055565b600f5462010000900460ff16610dba5760405162461bcd60e51b815260206004820152602160248201527f506c616e65742074726164696e6720746f67676c65206e6f7420656e61626c656044820152601960fa1b606482015260840161075a565b60048054604051630805372f60e01b81526001600160a01b03909116916000918391630805372f91610df0918991899101613e89565b60006040518083038186803b158015610e0857600080fd5b505afa158015610e1c573d6000803e3d6000fd5b505050506040513d6000823e601f3d908101601f19168201604052610e4491908101906137c4565b905060108787604051610e58929190613cb3565b9081526040519081900360200190205460ff1615610eb85760405162461bcd60e51b815260206004820152601c60248201527f416c726561647920746f67676c65642077697468207265712e20696400000000604482015260640161075a565b8060400151610f095760405162461bcd60e51b815260206004820152601460248201527f506c616e657420646f65736e7420657869737473000000000000000000000000604482015260640161075a565b80516040516331a9108f60e11b815233916001600160a01b03851691636352211e91610f3b9160040190815260200190565b60206040518083038186803b158015610f5357600080fd5b505afa158015610f67573d6000803e3d6000fd5b505050506040513d601f19601f82011682018060405250810190610f8b9190613627565b6001600160a01b031614610fcd5760405162461bcd60e51b81526020600482015260096024820152682737ba1037bbb732b960b91b604482015260640161075a565b60008787878787604051602001610fe8959493929190613cf3565b60408051601f1981840301815290829052600554633248da1f60e11b835290925073__$ad9ca387392769a074e8e3cd9fd740c701$__91636491b43e91611041916001600160a01b039091169085908e90600401613d91565b60006040518083038186803b15801561105957600080fd5b505af415801561106d573d6000803e3d6000fd5b50505050600160108989604051611085929190613cb3565b908152604051908190036020018120805492151560ff199093169290921790915563c876022760e01b81526001600160a01b0384169063c8760227906110d390899089908990600401613e9d565b600060405180830381600087803b1580156110ed57600080fd5b505af1158015611101573d6000803e3d6000fd5b50506002546006546040516001600160a01b03909216935080156108fc029250906000818181858888f19350505050158015611141573d6000803e3d6000fd5b50505050505050505050565b8151602081840181018051600c82529282019185019190912091905280548290811061117857600080fd5b9060005260206000200160009150915050805461119490614053565b80601f01602080910402602001604051908101604052809291908181526020018280546111c090614053565b801561120d5780601f106111e25761010080835404028352916020019161120d565b820191906000526020600020905b8154815290600101906020018083116111f057829003601f168201915b505050505081565b6000600c8383604051611229929190613cb3565b90815260405190819003602001902054905092915050565b6000546001600160a01b031633146112895760405162461bcd60e51b815260206004820181905260248201526000805160206140d8833981519152604482015260640161075a565b600f805460ff1916911515919091179055565b6000546001600160a01b031633146112e45760405162461bcd60e51b815260206004820181905260248201526000805160206140d8833981519152604482015260640161075a565b600f8054911515620100000262ff000019909216919091179055565b6000546001600160a01b031633146113485760405162461bcd60e51b815260206004820181905260248201526000805160206140d8833981519152604482015260640161075a565b600d80549115156101000261ff0019909216919091179055565b6000546001600160a01b031633146113aa5760405162461bcd60e51b815260206004820181905260248201526000805160206140d8833981519152604482015260640161075a565b600a55565b6000546001600160a01b031633146113f75760405162461bcd60e51b815260206004820181905260248201526000805160206140d8833981519152604482015260640161075a565b600e55565b6000546001600160a01b031633146114445760405162461bcd60e51b815260206004820181905260248201526000805160206140d8833981519152604482015260640161075a565b61144e600061303d565b565b60006114646003546001600160a01b031690565b600d54909150610100900460ff166114be5760405162461bcd60e51b815260206004820152601460248201527f57697468647261772069732064697361626c6564000000000000000000000000604482015260640161075a565b60065434146115075760405162461bcd60e51b81526020600482015260156024820152744e6f742073656e6420656e6f75676820424e42277360581b604482015260640161075a565b600e5460009061151860648a613fcd565b6115229190613fed565b604080516101206020601f8b01819004028201810190925261010081018981529293509182918a908a9081908501838280828437600092019190915250505090825250604080516020601f8901819004810282018101909252878152918101919088908890819084018382808284376000920191909152505050908252503360208083019190915242604080840191909152606083018c905260016080840152805180820182526008815267776974686472617760c01b9281019290925260a083019190915260c090910183905251600b90611601908a908a90613cb3565b9081526020016040518091039020600082015181600001908051906020019061162b92919061342d565b506020828101518051611644926001850192019061342d565b5060408201516002820180546001600160a01b0319166001600160a01b03909216919091179055606082015160038201556080820151600482015560a082015160058201805460ff191691151591909117905560c082015180516116b291600684019160209091019061342d565b5060e082015181600701559050506000888686336040516020016116d99493929190613d5c565b60408051601f1981840301815290829052600554633248da1f60e11b835290925073__$ad9ca387392769a074e8e3cd9fd740c701$__91636491b43e91611732916001600160a01b039091169085908990600401613d91565b60006040518083038186803b15801561174a57600080fd5b505af415801561175e573d6000803e3d6000fd5b50505050600c8686604051611774929190613cb3565b90815260405160209181900382019020805460018101825560009182529190206117a0910189896134b1565b506002546006546040516001600160a01b039092169181156108fc0291906000818181858888f193505050501580156117dd573d6000803e3d6000fd5b5060025460405163a9059cbb60e01b81526001600160a01b039182166004820152602481018490529084169063a9059cbb90604401602060405180830381600087803b15801561182c57600080fd5b505af1158015611840573d6000803e3d6000fd5b505050506040513d601f19601f82011682018060405250810190611864919061365f565b506001600160a01b03831663a9059cbb3361187f858d61400c565b6040517fffffffff0000000000000000000000000000000000000000000000000000000060e085901b1681526001600160a01b0390921660048301526024820152604401602060405180830381600087803b1580156118dd57600080fd5b505af11580156118f1573d6000803e3d6000fd5b505050506040513d601f19601f82011682018060405250810190611141919061365f565b8051602081830181018051600882529282019190930120915280546001820180546001600160a01b03909216929161194c90614053565b80601f016020809104026020016040519081016040528092919081815260200182805461197890614053565b80156119c55780601f1061199a576101008083540402835291602001916119c5565b820191906000526020600020905b8154815290600101906020018083116119a857829003601f168201915b5050505050908060020154908060030180546119e090614053565b80601f0160208091040260200160405190810160405280929190818152602001828054611a0c90614053565b8015611a595780601f10611a2e57610100808354040283529160200191611a59565b820191906000526020600020905b815481529060010190602001808311611a3c57829003601f168201915b50505050600483015460058401546006909401549293909290915060ff1687565b6000546001600160a01b03163314611ac25760405162461bcd60e51b815260206004820181905260248201526000805160206140d8833981519152604482015260640161075a565b600280546001600160a01b0319166001600160a01b0392909216919091179055565b6000611af86003546001600160a01b031690565b600d5490915060ff16611b4d5760405162461bcd60e51b815260206004820152601660248201527f4465706f736974696e672069732064697361626c656400000000000000000000604482015260640161075a565b6040516370a0823160e01b815233600482015286906001600160a01b038316906370a082319060240160206040518083038186803b158015611b8e57600080fd5b505afa158015611ba2573d6000803e3d6000fd5b505050506040513d601f19601f82011682018060405250810190611bc69190613b48565b1015611c095760405162461bcd60e51b81526020600482015260126024820152712737ba1032b737bab3b4103a37b5b2b7399760711b604482015260640161075a565b604051636eb1769f60e11b815233600482015230602482015286906001600160a01b0383169063dd62ed3e9060440160206040518083038186803b158015611c5057600080fd5b505afa158015611c64573d6000803e3d6000fd5b505050506040513d601f19601f82011682018060405250810190611c889190613b48565b1015611cd65760405162461bcd60e51b815260206004820152601960248201527f417070726f7665207472616e73616374696f6e20666972737400000000000000604482015260640161075a565b6006543414611d1f5760405162461bcd60e51b81526020600482015260156024820152744e6f742073656e6420656e6f75676820424e42277360581b604482015260640161075a565b600e54600090611d30606489613fcd565b611d3a9190613fed565b604080516101206020601f8a01819004028201810190925261010081018881529293509182918990899081908501838280828437600092019190915250505090825250604080516020601f8801819004810282018101909252868152918101919087908790819084018382808284376000920191909152505050908252503360208083019190915242604080840191909152606083018b90526001608084015280518082018252600781526619195c1bdcda5d60ca1b9281019290925260a083019190915260c090910183905251600b90611e189089908990613cb3565b90815260200160405180910390206000820151816000019080519060200190611e4292919061342d565b506020828101518051611e5b926001850192019061342d565b5060408201516002820180546001600160a01b0319166001600160a01b03909216919091179055606082015160038201556080820151600482015560a082015160058201805460ff191691151591909117905560c08201518051611ec991600684019160209091019061342d565b5060e08201518160070155905050600c8484604051611ee9929190613cb3565b9081526040516020918190038201902080546001810182556000918252919020611f15910187876134b1565b506002546006546040516001600160a01b039092169181156108fc0291906000818181858888f19350505050158015611f52573d6000803e3d6000fd5b506040516323b872dd60e01b8152336004820152306024820152604481018890526001600160a01b038316906323b872dd90606401602060405180830381600087803b158015611fa157600080fd5b505af1158015611fb5573d6000803e3d6000fd5b505050506040513d601f19601f82011682018060405250810190611fd9919061365f565b5060025460405163a9059cbb60e01b81526001600160a01b039182166004820152602481018390529083169063a9059cbb90604401602060405180830381600087803b15801561202857600080fd5b505af115801561203c573d6000803e3d6000fd5b505050506040513d601f19601f82011682018060405250810190612060919061365f565b5050505050505050565b6000546001600160a01b031633146120b25760405162461bcd60e51b815260206004820181905260248201526000805160206140d8833981519152604482015260640161075a565b600d805460ff1916911515919091179055565b6000546001600160a01b0316331461210d5760405162461bcd60e51b815260206004820181905260248201526000805160206140d8833981519152604482015260640161075a565b600f80549115156101000261ff0019909216919091179055565b600061213b6003546001600160a01b031690565b60075490915060ff166121905760405162461bcd60e51b815260206004820152601760248201527f5374616b696e67206973206e6f7420656e61626c65642e000000000000000000604482015260640161075a565b600888886040516121a2929190613cb3565b9081526040519081900360200190206006015460ff16156122055760405162461bcd60e51b815260206004820152601760248201527f4f6e6c792031207374616b696e67206174206f6e63652e000000000000000000604482015260640161075a565b4283116122605760405162461bcd60e51b815260206004820152602360248201527f54696d652063616e74206265206c657373207468616e2063757272656e742074604482015262696d6560e81b606482015260840161075a565b6040516370a0823160e01b815233600482015286906001600160a01b038316906370a082319060240160206040518083038186803b1580156122a157600080fd5b505afa1580156122b5573d6000803e3d6000fd5b505050506040513d601f19601f820116820180604052508101906122d99190613b48565b101561231c5760405162461bcd60e51b81526020600482015260126024820152712737ba1032b737bab3b4103a37b5b2b7399760711b604482015260640161075a565b60065434146123655760405162461bcd60e51b81526020600482015260156024820152744e6f742073656e6420656e6f75676820424e42277360581b604482015260640161075a565b6002546006546040516001600160a01b039092169181156108fc0291906000818181858888f193505050501580156123a1573d6000803e3d6000fd5b506000612710600a54886123b59190613fed565b6123bf9190613fcd565b6002546040516323b872dd60e01b81523360048201526001600160a01b039182166024820152604481018390529192508316906323b872dd90606401602060405180830381600087803b15801561241557600080fd5b505af1158015612429573d6000803e3d6000fd5b505050506040513d601f19601f8201168201806040525081019061244d919061365f565b50604051631c81c79560e11b81523360048201526001600160a01b038481166024830152604482018990528316906339038f2a90606401608060405180830381600087803b15801561249e57600080fd5b505af11580156124b2573d6000803e3d6000fd5b505050506040513d601f19601f820116820180604052508101906124d691906138a0565b60098a8a6040516124e8929190613cb3565b9081526040805160209281900383018120845181546001600160a01b03199081166001600160a01b039283161783558686015160018401558685015160028401805483169184169190911790556060909601516003909201805490961691161790935560e0830181523383528051601f8c018390048302810183019091528a8152818301918c908c908190840183828082843760009201919091525050509082525060208082018a905260408051601f8a01839004830281018301825289815292019190899089908190840183828082843760009201919091525050509082525042602082015260408082018790526001606090920191909152516008906125f3908c908c90613cb3565b90815260405160209181900382019020825181546001600160a01b0319166001600160a01b0390911617815582820151805191926126399260018501929091019061342d565b50604082015160028201556060820151805161265f91600384019160209091019061342d565b506080820151600482015560a0820151600582015560c0909101516006909101805460ff191691151591909117905550505050505050505050565b600f54610100900460ff166126f15760405162461bcd60e51b815260206004820152601660248201527f506c616e657420667573696f6e2064697361626c656400000000000000000000604482015260640161075a565b6126ff89898989888861308d565b60055460405173__$ad9ca387392769a074e8e3cd9fd740c701$__91636491b43e916001600160a01b039091169061274b908d908d908d908d908d908d908d908d908d90602001613d1c565b6040516020818303038152906040528d6040518463ffffffff1660e01b815260040161277993929190613d91565b60006040518083038186803b15801561279157600080fd5b505af41580156127a5573d6000803e3d6000fd5b50506004805460405163a257ccf360e01b81526001600160a01b03909116935083925063a257ccf3916127dc918e918e9101613e89565b600060405180830381600087803b1580156127f657600080fd5b505af115801561280a573d6000803e3d6000fd5b505060405163a257ccf360e01b81526001600160a01b038416925063a257ccf3915061283c908b908b90600401613e89565b600060405180830381600087803b15801561285657600080fd5b505af115801561286a573d6000803e3d6000fd5b50506002546006546040516001600160a01b03909216935080156108fc029250906000818181858888f193505050501580156128aa573d6000803e3d6000fd5b506040516351f71c5760e11b81526001600160a01b0382169063a3ee38ae906128df9033908990899089908990600401613deb565b602060405180830381600087803b1580156128f957600080fd5b505af115801561290d573d6000803e3d6000fd5b505050506040513d601f19601f820116820180604052508101906129319190613b48565b505050505050505050505050565b6000546001600160a01b031633146129875760405162461bcd60e51b815260206004820181905260248201526000805160206140d8833981519152604482015260640161075a565b6007805460ff1916911515919091179055565b6000546001600160a01b031633146129e25760405162461bcd60e51b815260206004820181905260248201526000805160206140d8833981519152604482015260640161075a565b6001600160a01b038116612a475760405162461bcd60e51b815260206004820152602660248201527f4f776e61626c653a206e6577206f776e657220697320746865207a65726f206160448201526564647265737360d01b606482015260840161075a565b612a508161303d565b50565b60088282604051612a65929190613cb3565b9081526040519081900360200190206006015460ff16612add5760405162461bcd60e51b815260206004820152602d60248201527f596f7520617265206e6f74207374616b696e672c206e6f20776974686472617760448201526c30b61030bb30b4b630b136329760991b606482015260840161075a565b60088282604051612aef929190613cb3565b9081526020016040518091039020600501544211612b4f5760405162461bcd60e51b815260206004820152601f60248201527f5374616b696e6720706572696f64206973206e6f742066696e69736865642e00604482015260640161075a565b336001600160a01b031660088383604051612b6b929190613cb3565b908152604051908190036020019020546001600160a01b031614612bd15760405162461bcd60e51b815260206004820152601160248201527f4e6f7420796f7572207374616b696e672e000000000000000000000000000000604482015260640161075a565b6006543414612c1a5760405162461bcd60e51b81526020600482015260156024820152744e6f742073656e6420656e6f75676820424e42277360581b604482015260640161075a565b6002546006546040516001600160a01b039092169181156108fc0291906000818181858888f19350505050158015612c56573d6000803e3d6000fd5b50600060088383604051612c6b929190613cb3565b908152602001604051809103902060040181905550600060088383604051612c94929190613cb3565b9081526020016040518091039020600501819055506040518060200160405280600081525060088383604051612ccb929190613cb3565b90815260200160405180910390206001019080519060200190612cef92919061342d565b506040518060200160405280600081525060088383604051612d12929190613cb3565b90815260200160405180910390206003019080519060200190612d3692919061342d565b50600060088383604051612d4b929190613cb3565b908152602001604051809103902060020181905550600060088383604051612d74929190613cb3565b908152604051908190036020018120600601805492151560ff1990931692909217909155600090600990612dab9085908590613cb3565b908152604051908190036020018120546001600160a01b03169150600090600990612dd99086908690613cb3565b9081526020016040518091039020600101549050600060098585604051612e01929190613cb3565b908152604051908190036020018120600201546001600160a01b03169150600090600990612e329088908890613cb3565b908152604051908190036020018120600301546001600160a01b03169150600090600990612e639089908990613cb3565b908152602001604051809103902060010181905550600060098787604051612e8c929190613cb3565b908152602001604051809103902060020160006101000a8154816001600160a01b0302191690836001600160a01b03160217905550600060098787604051612ed5929190613cb3565b9081526040805160209281900383018120600390810180546001600160a01b0319166001600160a01b039687161790555463a9059cbb60e01b8252841660048201819052602482018890529151919385169263a9059cbb926044808401938290030181600087803b158015612f4957600080fd5b505af1158015612f5d573d6000803e3d6000fd5b505050506040513d601f19601f82011682018060405250810190612f81919061365f565b50604051632efa6b6160e21b81526001600160a01b038481166004830152838116602483015260448201869052868116606483015282169063bbe9ad8490608401600060405180830381600087803b158015612fdc57600080fd5b505af1158015610aec573d6000803e3d6000fd5b6000546001600160a01b031633146130385760405162461bcd60e51b815260206004820181905260248201526000805160206140d8833981519152604482015260640161075a565b600655565b600080546001600160a01b038381166001600160a01b0319831681178455604051919092169283917f8be0079c531659141344cd1fd0a4f28419497f9722a3daafe3b4186f6b6457e09190a35050565b60048054604051630805372f60e01b81526001600160a01b03909116916000918391630805372f916130c3918c918c9101613e89565b60006040518083038186803b1580156130db57600080fd5b505afa1580156130ef573d6000803e3d6000fd5b505050506040513d6000823e601f3d908101601f1916820160405261311791908101906137c4565b90506000826001600160a01b0316630805372f88886040518363ffffffff1660e01b8152600401613149929190613e89565b60006040518083038186803b15801561316157600080fd5b505afa158015613175573d6000803e3d6000fd5b505050506040513d6000823e601f3d908101601f1916820160405261319d91908101906137c4565b90506000836001600160a01b0316630805372f87876040518363ffffffff1660e01b81526004016131cf929190613e89565b60006040518083038186803b1580156131e757600080fd5b505afa1580156131fb573d6000803e3d6000fd5b505050506040513d6000823e601f3d908101601f1916820160405261322391908101906137c4565b905082604001518015613237575081604001515b6132835760405162461bcd60e51b815260206004820152601e60248201527f426f7468206275726e20706c616e6574732073686f756c642065786973740000604482015260640161075a565b82516040516331a9108f60e11b815233916001600160a01b03871691636352211e916132b59160040190815260200190565b60206040518083038186803b1580156132cd57600080fd5b505afa1580156132e1573d6000803e3d6000fd5b505050506040513d601f19601f820116820180604052508101906133059190613627565b6001600160a01b03161480156133a3575081516040516331a9108f60e11b815233916001600160a01b03871691636352211e916133489160040190815260200190565b60206040518083038186803b15801561336057600080fd5b505afa158015613374573d6000803e3d6000fd5b505050506040513d601f19601f820116820180604052508101906133989190613627565b6001600160a01b0316145b6133db5760405162461bcd60e51b81526020600482015260096024820152682737ba1037bbb732b960b91b604482015260640161075a565b8060400151156111415760405162461bcd60e51b815260206004820152601d60248201527f4e657720706c616e657420494420616c7265616479206578697374732e000000604482015260640161075a565b82805461343990614053565b90600052602060002090601f01602090048101928261345b57600085556134a1565b82601f1061347457805160ff19168380011785556134a1565b828001600101855582156134a1579182015b828111156134a1578251825591602001919060010190613486565b506134ad929150613525565b5090565b8280546134bd90614053565b90600052602060002090601f0160209004810192826134df57600085556134a1565b82601f106134f85782800160ff198235161785556134a1565b828001600101855582156134a1579182015b828111156134a157823582559160200191906001019061350a565b5b808211156134ad5760008155600101613526565b8051613545816140b4565b919050565b8051613545816140c9565b60008083601f840112613566578182fd5b50813567ffffffffffffffff81111561357d578182fd5b60208301915083602082850101111561359557600080fd5b9250929050565b600082601f8301126135ac578081fd5b81356135bf6135ba82613fa5565b613f74565b8181528460208386010111156135d3578283fd5b816020850160208301379081016020019190915292915050565b6000606082840312156135fe578081fd5b50919050565b600060208284031215613615578081fd5b8135613620816140b4565b9392505050565b600060208284031215613638578081fd5b8151613620816140b4565b600060208284031215613654578081fd5b8135613620816140c9565b600060208284031215613670578081fd5b8151613620816140c9565b6000806020838503121561368d578081fd5b823567ffffffffffffffff8111156136a3578182fd5b6136af85828601613555565b90969095509350505050565b60008060008060008060c087890312156136d3578182fd5b863567ffffffffffffffff808211156136ea578384fd5b6136f68a838b01613555565b9098509650602089013595508691506137128a60408b016135ed565b945060a0890135915080821115613727578384fd5b5061373489828a01613555565b979a9699509497509295939492505050565b600060208284031215613757578081fd5b813567ffffffffffffffff81111561376d578182fd5b6137798482850161359c565b949350505050565b60008060408385031215613793578182fd5b823567ffffffffffffffff8111156137a9578283fd5b6137b58582860161359c565b95602094909401359450505050565b600060208083850312156137d6578182fd5b825167ffffffffffffffff808211156137ed578384fd5b9084019060a08287031215613800578384fd5b613808613f4b565b82518152838301518281111561381c578586fd5b83019150601f8201871361382e578485fd5b815161383c6135ba82613fa5565b818152888683860101111561384f578687fd5b61385e82878301888701614023565b828601525061386f6040840161354a565b60408201526138806060840161354a565b60608201526138916080840161353a565b60808201529695505050505050565b6000608082840312156138b1578081fd5b6040516080810181811067ffffffffffffffff821117156138d4576138d461409e565b60405282516138e2816140b4565b81526020838101519082015260408301516138fc816140b4565b6040820152606083015161390f816140b4565b60608201529392505050565b60008060008060008060c08789031215613933578384fd5b61393d88886135ed565b9550606087013567ffffffffffffffff80821115613959578586fd5b6139658a838b01613555565b9097509550608089013591508082111561397d578384fd5b5061398a89828a01613555565b90945092505060a087013561399e816140c9565b809150509295509295509295565b6000806000806000806000806000806101008b8d0312156139cb578788fd5b6139d58c8c6135ed565b995060608b013567ffffffffffffffff808211156139f157898afd5b6139fd8e838f01613555565b909b50995060808d0135915080821115613a15578586fd5b613a218e838f01613555565b909950975060a08d0135965060c08d0135915080821115613a40578586fd5b613a4c8e838f01613555565b909650945060e08d0135915080821115613a64578384fd5b50613a718d828e01613555565b915080935050809150509295989b9194979a5092959850565b600080600080600080600080610100898b031215613aa6578182fd5b613ab08a8a6135ed565b9750606089013567ffffffffffffffff80821115613acc578384fd5b613ad88c838d01613555565b909950975060808b0135965060a08b0135915080821115613af7578384fd5b50613b048b828c01613555565b90955093505060c0890135915060e0890135613b1f816140b4565b809150509295985092959890939650565b600060208284031215613b41578081fd5b5035919050565b600060208284031215613b59578081fd5b5051919050565b600080600080600060608688031215613b77578283fd5b85359450602086013567ffffffffffffffff80821115613b95578485fd5b613ba189838a01613555565b90965094506040880135915080821115613bb9578283fd5b50613bc688828901613555565b969995985093965092949392505050565b60008060008060008060c08789031215613bef578384fd5b86359550602087013567ffffffffffffffff80821115613c0d578586fd5b613c198a838b01613555565b90975095506040890135915080821115613c31578384fd5b50613c3e89828a01613555565b9094509250613c52905088606089016135ed565b90509295509295509295565b60008151808452613c76816020860160208601614023565b601f01601f19169290920160200192915050565b81835281816020850137506000828201602090810191909152601f909101601f19169091010190565b8183823760009101908152919050565b8385823760609290921b6bffffffffffffffffffffffff1916919092019081526014810191909152603401919050565b8486823760008582018181528486823792151560f81b9290930191825250600101949350505050565b888a82376000898201818152888a823788018781528587602083013785016020810182815284868237509092016020019182525098975050505050505050565b8481528284602083013760609190911b6bffffffffffffffffffffffff19166020919092019081019190915260340192915050565b6001600160a01b038416815260a060208201526000613db360a0830185613c5e565b9050823560ff8116808214613dc757600080fd5b80604085015250506020830135606083015260408301356080830152949350505050565b6001600160a01b0386168152606060208201526000613e0e606083018688613c8a565b8281036040840152613e21818587613c8a565b98975050505050505050565b6001600160a01b038816815260e060208201526000613e4f60e0830189613c5e565b8760408401528281036060840152613e678188613c5e565b6080840196909652505060a0810192909252151560c090910152949350505050565b602081526000613779602083018486613c8a565b604081526000613eb1604083018587613c8a565b90508215156020830152949350505050565b6020815260006136206020830184613c5e565b6000610100808352613eea8184018c613c5e565b90508281036020840152613efe818b613c5e565b90506001600160a01b038916604084015287606084015286608084015285151560a084015282810360c0840152613f358186613c5e565b9150508260e08301529998505050505050505050565b60405160a0810167ffffffffffffffff81118282101715613f6e57613f6e61409e565b60405290565b604051601f8201601f1916810167ffffffffffffffff81118282101715613f9d57613f9d61409e565b604052919050565b600067ffffffffffffffff821115613fbf57613fbf61409e565b50601f01601f191660200190565b600082613fe857634e487b7160e01b81526012600452602481fd5b500490565b600081600019048311821515161561400757614007614088565b500290565b60008282101561401e5761401e614088565b500390565b60005b8381101561403e578181015183820152602001614026565b8381111561404d576000848401525b50505050565b600181811c9082168061406757607f821691505b602082108114156135fe57634e487b7160e01b600052602260045260246000fd5b634e487b7160e01b600052601160045260246000fd5b634e487b7160e01b600052604160045260246000fd5b6001600160a01b0381168114612a5057600080fd5b8015158114612a5057600080fdfe4f776e61626c653a2063616c6c6572206973206e6f7420746865206f776e6572a264697066735822122028ed89056ed40ee4768ea2ce0748d7a7e62540f5f7c62ca9b14cad7f4fd0833f64736f6c63430008040033","abi":[{"inputs":[{"internalType":"address payable","name":"_blackMatterTokenAddress","type":"address"},{"internalType":"address","name":"_spaceRidersPlanetNFT","type":"address"},{"internalType":"address payable","name":"_feeWallet","type":"address"},{"internalType":"address","name":"_backendAddress","type":"address"}],"stateMutability":"nonpayable","type":"constructor"},{"anonymous":false,"inputs":[{"indexed":true,"internalType":"address","name":"previousOwner","type":"address"},{"indexed":true,"internalType":"address","name":"newOwner","type":"address"}],"name":"OwnershipTransferred","type":"event"},{"inputs":[],"name":"backendAddress","outputs":[{"internalType":"address","name":"","type":"address"}],"stateMutability":"view","type":"function"},{"inputs":[{"internalType":"uint256","name":"amount","type":"uint256"},{"internalType":"string","name":"guid","type":"string"},{"internalType":"string","name":"planetId","type":"string"}],"name":"bkmDeposit","outputs":[],"stateMutability":"payable","type":"function"},{"inputs":[{"internalType":"string","name":"","type":"string"},{"internalType":"uint256","name":"","type":"uint256"}],"name":"bkmTransactionMap","outputs":[{"internalType":"string","name":"","type":"string"}],"stateMutability":"view","type":"function"},{"inputs":[{"internalType":"string","name":"","type":"string"}],"name":"bkmTransactions","outputs":[{"internalType":"string","name":"guid","type":"string"},{"internalType":"string","name":"planetId","type":"string"},{"internalType":"address","name":"owner","type":"address"},{"internalType":"uint256","name":"createdTimestamp","type":"uint256"},{"internalType":"uint256","name":"amount","type":"uint256"},{"internalType":"bool","name":"exists","type":"bool"},{"internalType":"string","name":"txType","type":"string"},{"internalType":"uint256","name":"fee","type":"uint256"}],"stateMutability":"view","type":"function"},{"inputs":[{"internalType":"uint256","name":"amount","type":"uint256"},{"internalType":"string","name":"guid","type":"string"},{"internalType":"string","name":"planetId","type":"string"},{"components":[{"internalType":"uint8","name":"v","type":"uint8"},{"internalType":"bytes32","name":"r","type":"bytes32"},{"internalType":"bytes32","name":"s","type":"bytes32"}],"internalType":"struct OnlyBackend.signatureData","name":"sD","type":"tuple"}],"name":"bkmWithdraw","outputs":[],"stateMutability":"payable","type":"function"},{"inputs":[],"name":"bnbFee","outputs":[{"internalType":"uint256","name":"","type":"uint256"}],"stateMutability":"view","type":"function"},{"inputs":[{"internalType":"string","name":"planetGuid","type":"string"},{"internalType":"uint256","name":"planetPrice","type":"uint256"},{"components":[{"internalType":"uint8","name":"v","type":"uint8"},{"internalType":"bytes32","name":"r","type":"bytes32"},{"internalType":"bytes32","name":"s","type":"bytes32"}],"internalType":"struct OnlyBackend.signatureData","name":"sD","type":"tuple"},{"internalType":"string","name":"tokenURI","type":"string"}],"name":"buyPlanet","outputs":[],"stateMutability":"payable","type":"function"},{"inputs":[{"internalType":"uint256","name":"newBnbFee","type":"uint256"}],"name":"changeBnbFee","outputs":[],"stateMutability":"nonpayable","type":"function"},{"inputs":[],"name":"enablePlanetFusion","outputs":[{"internalType":"bool","name":"","type":"bool"}],"stateMutability":"view","type":"function"},{"inputs":[],"name":"enablePlanetPurchases","outputs":[{"internalType":"bool","name":"","type":"bool"}],"stateMutability":"view","type":"function"},{"inputs":[],"name":"enablePlanetTrading","outputs":[{"internalType":"bool","name":"","type":"bool"}],"stateMutability":"view","type":"function"},{"inputs":[{"components":[{"internalType":"uint8","name":"v","type":"uint8"},{"internalType":"bytes32","name":"r","type":"bytes32"},{"internalType":"bytes32","name":"s","type":"bytes32"}],"internalType":"struct OnlyBackend.signatureData","name":"sD","type":"tuple"},{"internalType":"string","name":"burnPlanetGuid1","type":"string"},{"internalType":"string","name":"burnPlanetGuid2","type":"string"},{"internalType":"uint256","name":"tokenPrice","type":"uint256"},{"internalType":"string","name":"newPlanetGuid","type":"string"},{"internalType":"string","name":"newTokenURI","type":"string"}],"name":"fusionPlanet","outputs":[],"stateMutability":"payable","type":"function"},{"inputs":[{"internalType":"string","name":"guid","type":"string"}],"name":"getBkmTransactionMapCount","outputs":[{"internalType":"uint256","name":"","type":"uint256"}],"stateMutability":"view","type":"function"},{"inputs":[],"name":"owner","outputs":[{"internalType":"address","name":"","type":"address"}],"stateMutability":"view","type":"function"},{"inputs":[],"name":"renounceOwnership","outputs":[],"stateMutability":"nonpayable","type":"function"},{"inputs":[{"internalType":"address","name":"backendSignerAddress","type":"address"}],"name":"setBackendAddress","outputs":[],"stateMutability":"nonpayable","type":"function"},{"inputs":[{"internalType":"bool","name":"enabled","type":"bool"}],"name":"setBenefitStakingEnabled","outputs":[],"stateMutability":"nonpayable","type":"function"},{"inputs":[{"internalType":"uint256","name":"newFee","type":"uint256"}],"name":"setBenefitStakingPerformanceFeeBP","outputs":[],"stateMutability":"nonpayable","type":"function"},{"inputs":[{"internalType":"uint256","name":"_fee","type":"uint256"}],"name":"setBkmFee","outputs":[],"stateMutability":"nonpayable","type":"function"},{"inputs":[{"internalType":"address payable","name":"newFeeWallet","type":"address"}],"name":"setFeeWallet","outputs":[],"stateMutability":"nonpayable","type":"function"},{"inputs":[{"components":[{"internalType":"uint8","name":"v","type":"uint8"},{"internalType":"bytes32","name":"r","type":"bytes32"},{"internalType":"bytes32","name":"s","type":"bytes32"}],"internalType":"struct OnlyBackend.signatureData","name":"sD","type":"tuple"},{"internalType":"string","name":"planetId","type":"string"},{"internalType":"uint256","name":"amount","type":"uint256"},{"internalType":"string","name":"tier","type":"string"},{"internalType":"uint256","name":"timeRelease","type":"uint256"},{"internalType":"address","name":"router","type":"address"}],"name":"stakingRequestV2","outputs":[],"stateMutability":"payable","type":"function"},{"inputs":[{"internalType":"bool","name":"enable","type":"bool"}],"name":"toggleBkmDeposits","outputs":[],"stateMutability":"nonpayable","type":"function"},{"inputs":[{"internalType":"bool","name":"enable","type":"bool"}],"name":"toggleBkmWithdraws","outputs":[],"stateMutability":"nonpayable","type":"function"},{"inputs":[{"internalType":"bool","name":"enable","type":"bool"}],"name":"togglePlanetFusion","outputs":[],"stateMutability":"nonpayable","type":"function"},{"inputs":[{"internalType":"bool","name":"enable","type":"bool"}],"name":"togglePlanetPurchases","outputs":[],"stateMutability":"nonpayable","type":"function"},{"inputs":[{"components":[{"internalType":"uint8","name":"v","type":"uint8"},{"internalType":"bytes32","name":"r","type":"bytes32"},{"internalType":"bytes32","name":"s","type":"bytes32"}],"internalType":"struct OnlyBackend.signatureData","name":"sD","type":"tuple"},{"internalType":"string","name":"requestId","type":"string"},{"internalType":"string","name":"planetGuid","type":"string"},{"internalType":"bool","name":"trading","type":"bool"}],"name":"togglePlanetTrading","outputs":[],"stateMutability":"payable","type":"function"},{"inputs":[{"internalType":"bool","name":"enable","type":"bool"}],"name":"togglePlanetTrading","outputs":[],"stateMutability":"nonpayable","type":"function"},{"inputs":[{"internalType":"string","name":"","type":"string"}],"name":"togglePlanetTradingRequests","outputs":[{"internalType":"bool","name":"","type":"bool"}],"stateMutability":"view","type":"function"},{"inputs":[{"internalType":"address","name":"newOwner","type":"address"}],"name":"transferOwnership","outputs":[],"stateMutability":"nonpayable","type":"function"},{"inputs":[{"internalType":"string","name":"planetId","type":"string"}],"name":"unstakingRequestV2","outputs":[],"stateMutability":"payable","type":"function"},{"inputs":[{"internalType":"string","name":"","type":"string"}],"name":"userStaking","outputs":[{"internalType":"address","name":"owner","type":"address"},{"internalType":"string","name":"planetId","type":"string"},{"internalType":"uint256","name":"amount","type":"uint256"},{"internalType":"string","name":"tier","type":"string"},{"internalType":"uint256","name":"time","type":"uint256"},{"internalType":"uint256","name":"timeRelease","type":"uint256"},{"internalType":"bool","name":"staked","type":"bool"}],"stateMutability":"view","type":"function"},{"inputs":[{"internalType":"string","name":"","type":"string"}],"name":"userStakingLpInfo","outputs":[{"internalType":"address","name":"wallet","type":"address"},{"internalType":"uint256","name":"lpAmount","type":"uint256"},{"internalType":"address","name":"router","type":"address"},{"internalType":"address","name":"pair","type":"address"}],"stateMutability":"view","type":"function"}]}