{"address":"0x8A93d247134d91e0de6f96547cB0204e5BE8e5D8","bytecode":"0x6080604052600180546001600160a01b03191661dead1781556608e1bc9bf040006006556007805460ff1990811683179091556032600a55600d8054909116821790556010805461010161ffff1990911617905560118190556012805462ffffff191690911790553480156200007457600080fd5b506040516200498438038062004984833981016040819052620000979162000146565b620000a233620000f6565b600380546001600160a01b039586166001600160a01b0319918216179091556004805494861694821694909417909355600280549285169284169290921790915560058054919093169116179055620001c6565b600080546001600160a01b038381166001600160a01b0319831681178455604051919092169283917f8be0079c531659141344cd1fd0a4f28419497f9722a3daafe3b4186f6b6457e09190a35050565b600080600080608085870312156200015c578384fd5b84516200016981620001ad565b60208601519094506200017c81620001ad565b60408601519093506200018f81620001ad565b6060860151909250620001a281620001ad565b939692955090935050565b6001600160a01b0381168114620001c357600080fd5b50565b6147ae80620001d66000396000f3fe60806040526004361061021a5760003560e01c80638da5cb5b11610123578063c9513dbd116100ab578063efc174151161006f578063efc17415146106ab578063f23b5e25146106c1578063f2fde38b146106e1578063f4c07d8114610701578063fcd555741461071457600080fd5b8063c9513dbd1461059b578063cf9d42301461062a578063d1ecc4611461063d578063d963d89b14610650578063ea25ebb21461068b57600080fd5b8063aa6c9144116100f2578063aa6c91441461050f578063b459a69514610522578063b5980d611461053c578063be43cf0d1461055c578063c4340f921461057b57600080fd5b80638da5cb5b1461048b5780638e8bc9b0146104a957806390d49b9d146104dc578063a293a31e146104fc57600080fd5b80634de81205116101a65780636773249f116101755780636773249f146104035780636822a86f14610423578063715018a614610443578063729489161461045857806373ccdec91461047857600080fd5b80634de81205146103735780635acb36ce14610393578063600106f4146103c3578063672f967c146103e357600080fd5b806318a26c86116101ed57806318a26c86146102c557806326f346a0146102d85780632a3d97a11461030557806344b1fa1c1461033357806345fba4f31461035357600080fd5b80630d72d57f1461021f57806312a9aea91461025c57806314e94c6e146102715780631815ce7d146102a5575b600080fd5b34801561022b57600080fd5b5060055461023f906001600160a01b031681565b6040516001600160a01b0390911681526020015b60405180910390f35b61026f61026a366004613d3c565b610734565b005b34801561027d57600080fd5b5061029161028c366004613dc7565b610bc3565b604051610253989796959493929190614557565b3480156102b157600080fd5b5061026f6102c0366004613c85565b610db8565b61026f6102d3366004613f9c565b610e22565b3480156102e457600080fd5b506102f86102f3366004613e02565b611217565b6040516102539190614544565b34801561031157600080fd5b50610325610320366004613cfc565b6112df565b604051908152602001610253565b34801561033f57600080fd5b5061029161034e366004613dc7565b61130b565b34801561035f57600080fd5b5061026f61036e366004613cc4565b611331565b34801561037f57600080fd5b5061026f61038e366004613cc4565b61138c565b34801561039f57600080fd5b506012546103b39062010000900460ff1681565b6040519015158152602001610253565b3480156103cf57600080fd5b5061026f6103de366004613cc4565b6113f0565b3480156103ef57600080fd5b5061026f6103fe3660046141b1565b611452565b34801561040f57600080fd5b5061026f61041e3660046141b1565b61149f565b34801561042f57600080fd5b5061032561043e366004613cfc565b6114ec565b34801561044f57600080fd5b5061026f611500565b34801561046457600080fd5b506102f8610473366004613e02565b611554565b61026f610486366004614258565b61157f565b34801561049757600080fd5b506000546001600160a01b031661023f565b3480156104b557600080fd5b506104c96104c4366004613dc7565b611a44565b60405161025397969594939291906144ae565b3480156104e857600080fd5b5061026f6104f7366004613c85565b611ba9565b61026f61050a3660046141e1565b611c13565b61026f61051d3660046141e1565b612199565b34801561052e57600080fd5b506012546103b39060ff1681565b34801561054857600080fd5b5061026f610557366004613cc4565b612690565b34801561056857600080fd5b506012546103b390610100900460ff1681565b34801561058757600080fd5b5061026f610596366004613cc4565b6126eb565b3480156105a757600080fd5b506105f76105b6366004613dc7565b805160208183018101805160098252928201919093012091528054600182015460028301546003909301546001600160a01b03928316939192918216911684565b604080516001600160a01b0395861681526020810194909452918416918301919091529091166060820152608001610253565b61026f61063836600461410b565b61274d565b61026f61064b36600461402d565b612cc0565b34801561065c57600080fd5b506103b361066b366004613dc7565b805160208183018101805160138252928201919093012091525460ff1681565b34801561069757600080fd5b5061026f6106a6366004613cc4565b612f65565b3480156106b757600080fd5b5061032560065481565b3480156106cd57600080fd5b5061026f6106dc366004613cc4565b612fc0565b3480156106ed57600080fd5b5061026f6106fc366004613c85565b61301b565b61026f61070f366004613cfc565b6130d4565b34801561072057600080fd5b5061026f61072f3660046141b1565b613671565b60006107486003546001600160a01b031690565b60048054604051630805372f60e01b81529293506001600160a01b0316916000918391630805372f9161077f918d918d910161450a565b60006040518083038186803b15801561079757600080fd5b505afa1580156107ab573d6000803e3d6000fd5b505050506040513d6000823e601f3d908101601f191682016040526107d39190810190613e45565b60125490915060ff1661082d5760405162461bcd60e51b815260206004820152601e60248201527f50757263686173696e6720706c616e6574732069732064697361626c6564000060448201526064015b60405180910390fd5b80604001511561087f5760405162461bcd60e51b815260206004820152601a60248201527f506c616e6574206775696420616c7265616479206578697374730000000000006044820152606401610824565b6040516370a0823160e01b815233600482015287906001600160a01b038516906370a082319060240160206040518083038186803b1580156108c057600080fd5b505afa1580156108d4573d6000803e3d6000fd5b505050506040513d601f19601f820116820180604052508101906108f891906141c9565b101561093b5760405162461bcd60e51b81526020600482015260126024820152712737ba1032b737bab3b4103a37b5b2b7399760711b6044820152606401610824565b604051636eb1769f60e11b815233600482015230602482015287906001600160a01b0385169063dd62ed3e9060440160206040518083038186803b15801561098257600080fd5b505afa158015610996573d6000803e3d6000fd5b505050506040513d601f19601f820116820180604052508101906109ba91906141c9565b1015610a085760405162461bcd60e51b815260206004820152601960248201527f417070726f7665207472616e73616374696f6e206669727374000000000000006044820152606401610824565b6006543414610a515760405162461bcd60e51b81526020600482015260156024820152744e6f742073656e6420656e6f75676820424e42277360581b6044820152606401610824565b60008989338a604051602001610a6a9493929190614344565b60408051601f1981840301815290829052600554633248da1f60e11b835290925073__$ad9ca387392769a074e8e3cd9fd740c701$__91636491b43e91610ac3916001600160a01b039091169085908c90600401614412565b60006040518083038186803b158015610adb57600080fd5b505af4158015610aef573d6000803e3d6000fd5b50506002546006546040516001600160a01b03909216935080156108fc029250906000818181858888f19350505050158015610b2f573d6000803e3d6000fd5b506040516351f71c5760e11b81526001600160a01b0384169063a3ee38ae90610b649033908e908e908c908c9060040161446c565b602060405180830381600087803b158015610b7e57600080fd5b505af1158015610b92573d6000803e3d6000fd5b505050506040513d601f19601f82011682018060405250810190610bb691906141c9565b5050505050505050505050565b8051602081830181018051600e82529282019190930120915280548190610be9906146d4565b80601f0160208091040260200160405190810160405280929190818152602001828054610c15906146d4565b8015610c625780601f10610c3757610100808354040283529160200191610c62565b820191906000526020600020905b815481529060010190602001808311610c4557829003601f168201915b505050505090806001018054610c77906146d4565b80601f0160208091040260200160405190810160405280929190818152602001828054610ca3906146d4565b8015610cf05780601f10610cc557610100808354040283529160200191610cf0565b820191906000526020600020905b815481529060010190602001808311610cd357829003601f168201915b505050600284015460038501546004860154600587015460068801805497986001600160a01b039095169793965091945060ff169291610d2f906146d4565b80601f0160208091040260200160405190810160405280929190818152602001828054610d5b906146d4565b8015610da85780601f10610d7d57610100808354040283529160200191610da8565b820191906000526020600020905b815481529060010190602001808311610d8b57829003601f168201915b5050505050908060070154905088565b6000546001600160a01b03163314610e005760405162461bcd60e51b815260206004820181905260248201526000805160206147598339815191526044820152606401610824565b600580546001600160a01b0319166001600160a01b0392909216919091179055565b60125462010000900460ff16610e845760405162461bcd60e51b815260206004820152602160248201527f506c616e65742074726164696e6720746f67676c65206e6f7420656e61626c656044820152601960fa1b6064820152608401610824565b60048054604051630805372f60e01b81526001600160a01b03909116916000918391630805372f91610eba91899189910161450a565b60006040518083038186803b158015610ed257600080fd5b505afa158015610ee6573d6000803e3d6000fd5b505050506040513d6000823e601f3d908101601f19168201604052610f0e9190810190613e45565b905060138787604051610f22929190614334565b9081526040519081900360200190205460ff1615610f825760405162461bcd60e51b815260206004820152601c60248201527f416c726561647920746f67676c65642077697468207265712e206964000000006044820152606401610824565b8060400151610fd35760405162461bcd60e51b815260206004820152601460248201527f506c616e657420646f65736e74206578697374730000000000000000000000006044820152606401610824565b80516040516331a9108f60e11b815233916001600160a01b03851691636352211e916110059160040190815260200190565b60206040518083038186803b15801561101d57600080fd5b505afa158015611031573d6000803e3d6000fd5b505050506040513d601f19601f820116820180604052508101906110559190613ca8565b6001600160a01b0316146110975760405162461bcd60e51b81526020600482015260096024820152682737ba1037bbb732b960b91b6044820152606401610824565b600087878787876040516020016110b2959493929190614374565b60408051601f1981840301815290829052600554633248da1f60e11b835290925073__$ad9ca387392769a074e8e3cd9fd740c701$__91636491b43e9161110b916001600160a01b039091169085908e90600401614412565b60006040518083038186803b15801561112357600080fd5b505af4158015611137573d6000803e3d6000fd5b5050505060016013898960405161114f929190614334565b908152604051908190036020018120805492151560ff199093169290921790915563c876022760e01b81526001600160a01b0384169063c87602279061119d9089908990899060040161451e565b600060405180830381600087803b1580156111b757600080fd5b505af11580156111cb573d6000803e3d6000fd5b50506002546006546040516001600160a01b03909216935080156108fc029250906000818181858888f1935050505015801561120b573d6000803e3d6000fd5b50505050505050505050565b8151602081840181018051600f82529282019185019190912091905280548290811061124257600080fd5b9060005260206000200160009150915050805461125e906146d4565b80601f016020809104026020016040519081016040528092919081815260200182805461128a906146d4565b80156112d75780601f106112ac576101008083540402835291602001916112d7565b820191906000526020600020905b8154815290600101906020018083116112ba57829003601f168201915b505050505081565b6000600f83836040516112f3929190614334565b90815260405190819003602001902054905092915050565b8051602081830181018051600b82529282019190930120915280548190610be9906146d4565b6000546001600160a01b031633146113795760405162461bcd60e51b815260206004820181905260248201526000805160206147598339815191526044820152606401610824565b6012805460ff1916911515919091179055565b6000546001600160a01b031633146113d45760405162461bcd60e51b815260206004820181905260248201526000805160206147598339815191526044820152606401610824565b60128054911515620100000262ff000019909216919091179055565b6000546001600160a01b031633146114385760405162461bcd60e51b815260206004820181905260248201526000805160206147598339815191526044820152606401610824565b601080549115156101000261ff0019909216919091179055565b6000546001600160a01b0316331461149a5760405162461bcd60e51b815260206004820181905260248201526000805160206147598339815191526044820152606401610824565b600a55565b6000546001600160a01b031633146114e75760405162461bcd60e51b815260206004820181905260248201526000805160206147598339815191526044820152606401610824565b601155565b6000600c83836040516112f3929190614334565b6000546001600160a01b031633146115485760405162461bcd60e51b815260206004820181905260248201526000805160206147598339815191526044820152606401610824565b61155260006136be565b565b8151602081840181018051600c82529282019185019190912091905280548290811061124257600080fd5b60006115936003546001600160a01b031690565b601054909150610100900460ff166115ed5760405162461bcd60e51b815260206004820152601460248201527f57697468647261772069732064697361626c65640000000000000000000000006044820152606401610824565b60065434146116365760405162461bcd60e51b81526020600482015260156024820152744e6f742073656e6420656e6f75676820424e42277360581b6044820152606401610824565b60115460009061164760648a61464e565b611651919061466e565b604080516101206020601f8b01819004028201810190925261010081018981529293509182918a908a9081908501838280828437600092019190915250505090825250604080516020601f8901819004810282018101909252878152918101919088908890819084018382808284376000920191909152505050908252503360208083019190915242604080840191909152606083018c905260016080840152805180820182526008815267776974686472617760c01b9281019290925260a083019190915260c090910183905251600e90611730908a908a90614334565b9081526020016040518091039020600082015181600001908051906020019061175a929190613aae565b5060208281015180516117739260018501920190613aae565b5060408201516002820180546001600160a01b0319166001600160a01b03909216919091179055606082015160038201556080820151600482015560a082015160058201805460ff191691151591909117905560c082015180516117e1916006840191602090910190613aae565b5060e0820151816007015590505060008886863360405160200161180894939291906143dd565b60408051601f1981840301815290829052600554633248da1f60e11b835290925073__$ad9ca387392769a074e8e3cd9fd740c701$__91636491b43e91611861916001600160a01b039091169085908990600401614412565b60006040518083038186803b15801561187957600080fd5b505af415801561188d573d6000803e3d6000fd5b50505050600f86866040516118a3929190614334565b90815260405160209181900382019020805460018101825560009182529190206118cf91018989613b32565b506002546006546040516001600160a01b039092169181156108fc0291906000818181858888f1935050505015801561190c573d6000803e3d6000fd5b5060025460405163a9059cbb60e01b81526001600160a01b039182166004820152602481018490529084169063a9059cbb90604401602060405180830381600087803b15801561195b57600080fd5b505af115801561196f573d6000803e3d6000fd5b505050506040513d601f19601f820116820180604052508101906119939190613ce0565b506001600160a01b03831663a9059cbb336119ae858d61468d565b6040517fffffffff0000000000000000000000000000000000000000000000000000000060e085901b1681526001600160a01b0390921660048301526024820152604401602060405180830381600087803b158015611a0c57600080fd5b505af1158015611a20573d6000803e3d6000fd5b505050506040513d601f19601f8201168201806040525081019061120b9190613ce0565b8051602081830181018051600882529282019190930120915280546001820180546001600160a01b039092169291611a7b906146d4565b80601f0160208091040260200160405190810160405280929190818152602001828054611aa7906146d4565b8015611af45780601f10611ac957610100808354040283529160200191611af4565b820191906000526020600020905b815481529060010190602001808311611ad757829003601f168201915b505050505090806002015490806003018054611b0f906146d4565b80601f0160208091040260200160405190810160405280929190818152602001828054611b3b906146d4565b8015611b885780601f10611b5d57610100808354040283529160200191611b88565b820191906000526020600020905b815481529060010190602001808311611b6b57829003601f168201915b50505050600483015460058401546006909401549293909290915060ff1687565b6000546001600160a01b03163314611bf15760405162461bcd60e51b815260206004820181905260248201526000805160206147598339815191526044820152606401610824565b600280546001600160a01b0319166001600160a01b0392909216919091179055565b6000611c276003546001600160a01b031690565b60105490915060ff16611c7c5760405162461bcd60e51b815260206004820152601660248201527f4465706f736974696e672069732064697361626c6564000000000000000000006044820152606401610824565b6040516370a0823160e01b815233600482015286906001600160a01b038316906370a082319060240160206040518083038186803b158015611cbd57600080fd5b505afa158015611cd1573d6000803e3d6000fd5b505050506040513d601f19601f82011682018060405250810190611cf591906141c9565b1015611d385760405162461bcd60e51b81526020600482015260126024820152712737ba1032b737bab3b4103a37b5b2b7399760711b6044820152606401610824565b604051636eb1769f60e11b815233600482015230602482015286906001600160a01b0383169063dd62ed3e9060440160206040518083038186803b158015611d7f57600080fd5b505afa158015611d93573d6000803e3d6000fd5b505050506040513d601f19601f82011682018060405250810190611db791906141c9565b1015611e055760405162461bcd60e51b815260206004820152601960248201527f417070726f7665207472616e73616374696f6e206669727374000000000000006044820152606401610824565b6006543414611e4e5760405162461bcd60e51b81526020600482015260156024820152744e6f742073656e6420656e6f75676820424e42277360581b6044820152606401610824565b601154600090611e5f60648961464e565b611e69919061466e565b604080516101206020601f8a01819004028201810190925261010081018881529293509182918990899081908501838280828437600092019190915250505090825250604080516020601f8801819004810282018101909252868152918101919087908790819084018382808284376000920191909152505050908252503360208083019190915242604080840191909152606083018b90526001608084015280518082018252600781526619195c1bdcda5d60ca1b9281019290925260a083019190915260c090910183905251600e90611f479089908990614334565b90815260200160405180910390206000820151816000019080519060200190611f71929190613aae565b506020828101518051611f8a9260018501920190613aae565b5060408201516002820180546001600160a01b0319166001600160a01b03909216919091179055606082015160038201556080820151600482015560a082015160058201805460ff191691151591909117905560c08201518051611ff8916006840191602090910190613aae565b5060e08201518160070155905050600f8484604051612018929190614334565b908152604051602091819003820190208054600181018255600091825291902061204491018787613b32565b506002546006546040516001600160a01b039092169181156108fc0291906000818181858888f19350505050158015612081573d6000803e3d6000fd5b506040516323b872dd60e01b8152336004820152306024820152604481018890526001600160a01b038316906323b872dd90606401602060405180830381600087803b1580156120d057600080fd5b505af11580156120e4573d6000803e3d6000fd5b505050506040513d601f19601f820116820180604052508101906121089190613ce0565b5060025460405163a9059cbb60e01b81526001600160a01b039182166004820152602481018390529083169063a9059cbb90604401602060405180830381600087803b15801561215757600080fd5b505af115801561216b573d6000803e3d6000fd5b505050506040513d601f19601f8201168201806040525081019061218f9190613ce0565b5050505050505050565b60006121ad6003546001600160a01b031690565b600d5490915060ff1661220e5760405162461bcd60e51b8152602060048201526024808201527f4465706f736974696e6720656e6572677920746f6b656e732069732064697361604482015263189b195960e21b6064820152608401610824565b6040516370a0823160e01b815233600482015286906001600160a01b038316906370a082319060240160206040518083038186803b15801561224f57600080fd5b505afa158015612263573d6000803e3d6000fd5b505050506040513d601f19601f8201168201806040525081019061228791906141c9565b10156122ca5760405162461bcd60e51b81526020600482015260126024820152712737ba1032b737bab3b4103a37b5b2b7399760711b6044820152606401610824565b604051636eb1769f60e11b815233600482015230602482015286906001600160a01b0383169063dd62ed3e9060440160206040518083038186803b15801561231157600080fd5b505afa158015612325573d6000803e3d6000fd5b505050506040513d601f19601f8201168201806040525081019061234991906141c9565b10156123975760405162461bcd60e51b815260206004820152601960248201527f417070726f7665207472616e73616374696f6e206669727374000000000000006044820152606401610824565b60065434146123e05760405162461bcd60e51b81526020600482015260156024820152744e6f742073656e6420656e6f75676820424e42277360581b6044820152606401610824565b60405180610100016040528086868080601f016020809104026020016040519081016040528093929190818152602001838380828437600092019190915250505090825250604080516020601f870181900481028201810190925285815291810191908690869081908401838280828437600092018290525093855250503360208085019190915242604080860191909152606085018c90526001608086015280518082018252600781526619195c1bdcda5d60ca1b9281019290925260a085019190915260c0909301919091525051600b906124c09088908890614334565b908152602001604051809103902060008201518160000190805190602001906124ea929190613aae565b5060208281015180516125039260018501920190613aae565b5060408201516002820180546001600160a01b0319166001600160a01b03909216919091179055606082015160038201556080820151600482015560a082015160058201805460ff191691151591909117905560c08201518051612571916006840191602090910190613aae565b5060e08201518160070155905050600c8383604051612591929190614334565b90815260405160209181900382019020805460018101825560009182529190206125bd91018686613b32565b506002546040516323b872dd60e01b81523360048201526001600160a01b03918216602482015260448101889052908216906323b872dd90606401602060405180830381600087803b15801561261257600080fd5b505af1158015612626573d6000803e3d6000fd5b505050506040513d601f19601f8201168201806040525081019061264a9190613ce0565b506002546006546040516001600160a01b039092169181156108fc0291906000818181858888f19350505050158015612687573d6000803e3d6000fd5b50505050505050565b6000546001600160a01b031633146126d85760405162461bcd60e51b815260206004820181905260248201526000805160206147598339815191526044820152606401610824565b6010805460ff1916911515919091179055565b6000546001600160a01b031633146127335760405162461bcd60e51b815260206004820181905260248201526000805160206147598339815191526044820152606401610824565b601280549115156101000261ff0019909216919091179055565b60006127616003546001600160a01b031690565b60075490915060ff166127b65760405162461bcd60e51b815260206004820152601760248201527f5374616b696e67206973206e6f7420656e61626c65642e0000000000000000006044820152606401610824565b600888886040516127c8929190614334565b9081526040519081900360200190206006015460ff161561282b5760405162461bcd60e51b815260206004820152601760248201527f4f6e6c792031207374616b696e67206174206f6e63652e0000000000000000006044820152606401610824565b4283116128865760405162461bcd60e51b815260206004820152602360248201527f54696d652063616e74206265206c657373207468616e2063757272656e742074604482015262696d6560e81b6064820152608401610824565b6040516370a0823160e01b815233600482015286906001600160a01b038316906370a082319060240160206040518083038186803b1580156128c757600080fd5b505afa1580156128db573d6000803e3d6000fd5b505050506040513d601f19601f820116820180604052508101906128ff91906141c9565b10156129425760405162461bcd60e51b81526020600482015260126024820152712737ba1032b737bab3b4103a37b5b2b7399760711b6044820152606401610824565b600654341461298b5760405162461bcd60e51b81526020600482015260156024820152744e6f742073656e6420656e6f75676820424e42277360581b6044820152606401610824565b6002546006546040516001600160a01b039092169181156108fc0291906000818181858888f193505050501580156129c7573d6000803e3d6000fd5b506000612710600a54886129db919061466e565b6129e5919061464e565b6002546040516323b872dd60e01b81523360048201526001600160a01b039182166024820152604481018390529192508316906323b872dd90606401602060405180830381600087803b158015612a3b57600080fd5b505af1158015612a4f573d6000803e3d6000fd5b505050506040513d601f19601f82011682018060405250810190612a739190613ce0565b50604051631c81c79560e11b81523360048201526001600160a01b038481166024830152604482018990528316906339038f2a90606401608060405180830381600087803b158015612ac457600080fd5b505af1158015612ad8573d6000803e3d6000fd5b505050506040513d601f19601f82011682018060405250810190612afc9190613f21565b60098a8a604051612b0e929190614334565b9081526040805160209281900383018120845181546001600160a01b03199081166001600160a01b039283161783558686015160018401558685015160028401805483169184169190911790556060909601516003909201805490961691161790935560e0830181523383528051601f8c018390048302810183019091528a8152818301918c908c908190840183828082843760009201919091525050509082525060208082018a905260408051601f8a0183900483028101830182528981529201919089908990819084018382808284376000920191909152505050908252504260208201526040808201879052600160609092019190915251600890612c19908c908c90614334565b90815260405160209181900382019020825181546001600160a01b0319166001600160a01b039091161781558282015180519192612c5f92600185019290910190613aae565b506040820151600282015560608201518051612c85916003840191602090910190613aae565b506080820151600482015560a0820151600582015560c0909101516006909101805460ff191691151591909117905550505050505050505050565b601254610100900460ff16612d175760405162461bcd60e51b815260206004820152601660248201527f506c616e657420667573696f6e2064697361626c6564000000000000000000006044820152606401610824565b612d2589898989888861370e565b60055460405173__$ad9ca387392769a074e8e3cd9fd740c701$__91636491b43e916001600160a01b0390911690612d71908d908d908d908d908d908d908d908d908d9060200161439d565b6040516020818303038152906040528d6040518463ffffffff1660e01b8152600401612d9f93929190614412565b60006040518083038186803b158015612db757600080fd5b505af4158015612dcb573d6000803e3d6000fd5b50506004805460405163a257ccf360e01b81526001600160a01b03909116935083925063a257ccf391612e02918e918e910161450a565b600060405180830381600087803b158015612e1c57600080fd5b505af1158015612e30573d6000803e3d6000fd5b505060405163a257ccf360e01b81526001600160a01b038416925063a257ccf39150612e62908b908b9060040161450a565b600060405180830381600087803b158015612e7c57600080fd5b505af1158015612e90573d6000803e3d6000fd5b50506002546006546040516001600160a01b03909216935080156108fc029250906000818181858888f19350505050158015612ed0573d6000803e3d6000fd5b506040516351f71c5760e11b81526001600160a01b0382169063a3ee38ae90612f05903390899089908990899060040161446c565b602060405180830381600087803b158015612f1f57600080fd5b505af1158015612f33573d6000803e3d6000fd5b505050506040513d601f19601f82011682018060405250810190612f5791906141c9565b505050505050505050505050565b6000546001600160a01b03163314612fad5760405162461bcd60e51b815260206004820181905260248201526000805160206147598339815191526044820152606401610824565b6007805460ff1916911515919091179055565b6000546001600160a01b031633146130085760405162461bcd60e51b815260206004820181905260248201526000805160206147598339815191526044820152606401610824565b600d805460ff1916911515919091179055565b6000546001600160a01b031633146130635760405162461bcd60e51b815260206004820181905260248201526000805160206147598339815191526044820152606401610824565b6001600160a01b0381166130c85760405162461bcd60e51b815260206004820152602660248201527f4f776e61626c653a206e6577206f776e657220697320746865207a65726f206160448201526564647265737360d01b6064820152608401610824565b6130d1816136be565b50565b600882826040516130e6929190614334565b9081526040519081900360200190206006015460ff1661315e5760405162461bcd60e51b815260206004820152602d60248201527f596f7520617265206e6f74207374616b696e672c206e6f20776974686472617760448201526c30b61030bb30b4b630b136329760991b6064820152608401610824565b60088282604051613170929190614334565b90815260200160405180910390206005015442116131d05760405162461bcd60e51b815260206004820152601f60248201527f5374616b696e6720706572696f64206973206e6f742066696e69736865642e006044820152606401610824565b336001600160a01b0316600883836040516131ec929190614334565b908152604051908190036020019020546001600160a01b0316146132525760405162461bcd60e51b815260206004820152601160248201527f4e6f7420796f7572207374616b696e672e0000000000000000000000000000006044820152606401610824565b600654341461329b5760405162461bcd60e51b81526020600482015260156024820152744e6f742073656e6420656e6f75676820424e42277360581b6044820152606401610824565b6002546006546040516001600160a01b039092169181156108fc0291906000818181858888f193505050501580156132d7573d6000803e3d6000fd5b506000600883836040516132ec929190614334565b908152602001604051809103902060040181905550600060088383604051613315929190614334565b908152602001604051809103902060050181905550604051806020016040528060008152506008838360405161334c929190614334565b90815260200160405180910390206001019080519060200190613370929190613aae565b506040518060200160405280600081525060088383604051613393929190614334565b908152602001604051809103902060030190805190602001906133b7929190613aae565b506000600883836040516133cc929190614334565b9081526020016040518091039020600201819055506000600883836040516133f5929190614334565b908152604051908190036020018120600601805492151560ff199093169290921790915560009060099061342c9085908590614334565b908152604051908190036020018120546001600160a01b0316915060009060099061345a9086908690614334565b9081526020016040518091039020600101549050600060098585604051613482929190614334565b908152604051908190036020018120600201546001600160a01b031691506000906009906134b39088908890614334565b908152604051908190036020018120600301546001600160a01b031691506000906009906134e49089908990614334565b90815260200160405180910390206001018190555060006009878760405161350d929190614334565b908152602001604051809103902060020160006101000a8154816001600160a01b0302191690836001600160a01b03160217905550600060098787604051613556929190614334565b9081526040805160209281900383018120600390810180546001600160a01b0319166001600160a01b039687161790555463a9059cbb60e01b8252841660048201819052602482018890529151919385169263a9059cbb926044808401938290030181600087803b1580156135ca57600080fd5b505af11580156135de573d6000803e3d6000fd5b505050506040513d601f19601f820116820180604052508101906136029190613ce0565b50604051632efa6b6160e21b81526001600160a01b038481166004830152838116602483015260448201869052868116606483015282169063bbe9ad8490608401600060405180830381600087803b15801561365d57600080fd5b505af1158015610bb6573d6000803e3d6000fd5b6000546001600160a01b031633146136b95760405162461bcd60e51b815260206004820181905260248201526000805160206147598339815191526044820152606401610824565b600655565b600080546001600160a01b038381166001600160a01b0319831681178455604051919092169283917f8be0079c531659141344cd1fd0a4f28419497f9722a3daafe3b4186f6b6457e09190a35050565b60048054604051630805372f60e01b81526001600160a01b03909116916000918391630805372f91613744918c918c910161450a565b60006040518083038186803b15801561375c57600080fd5b505afa158015613770573d6000803e3d6000fd5b505050506040513d6000823e601f3d908101601f191682016040526137989190810190613e45565b90506000826001600160a01b0316630805372f88886040518363ffffffff1660e01b81526004016137ca92919061450a565b60006040518083038186803b1580156137e257600080fd5b505afa1580156137f6573d6000803e3d6000fd5b505050506040513d6000823e601f3d908101601f1916820160405261381e9190810190613e45565b90506000836001600160a01b0316630805372f87876040518363ffffffff1660e01b815260040161385092919061450a565b60006040518083038186803b15801561386857600080fd5b505afa15801561387c573d6000803e3d6000fd5b505050506040513d6000823e601f3d908101601f191682016040526138a49190810190613e45565b9050826040015180156138b8575081604001515b6139045760405162461bcd60e51b815260206004820152601e60248201527f426f7468206275726e20706c616e6574732073686f756c6420657869737400006044820152606401610824565b82516040516331a9108f60e11b815233916001600160a01b03871691636352211e916139369160040190815260200190565b60206040518083038186803b15801561394e57600080fd5b505afa158015613962573d6000803e3d6000fd5b505050506040513d601f19601f820116820180604052508101906139869190613ca8565b6001600160a01b0316148015613a24575081516040516331a9108f60e11b815233916001600160a01b03871691636352211e916139c99160040190815260200190565b60206040518083038186803b1580156139e157600080fd5b505afa1580156139f5573d6000803e3d6000fd5b505050506040513d601f19601f82011682018060405250810190613a199190613ca8565b6001600160a01b0316145b613a5c5760405162461bcd60e51b81526020600482015260096024820152682737ba1037bbb732b960b91b6044820152606401610824565b80604001511561120b5760405162461bcd60e51b815260206004820152601d60248201527f4e657720706c616e657420494420616c7265616479206578697374732e0000006044820152606401610824565b828054613aba906146d4565b90600052602060002090601f016020900481019282613adc5760008555613b22565b82601f10613af557805160ff1916838001178555613b22565b82800160010185558215613b22579182015b82811115613b22578251825591602001919060010190613b07565b50613b2e929150613ba6565b5090565b828054613b3e906146d4565b90600052602060002090601f016020900481019282613b605760008555613b22565b82601f10613b795782800160ff19823516178555613b22565b82800160010185558215613b22579182015b82811115613b22578235825591602001919060010190613b8b565b5b80821115613b2e5760008155600101613ba7565b8051613bc681614735565b919050565b8051613bc68161474a565b60008083601f840112613be7578182fd5b50813567ffffffffffffffff811115613bfe578182fd5b602083019150836020828501011115613c1657600080fd5b9250929050565b600082601f830112613c2d578081fd5b8135613c40613c3b82614626565b6145f5565b818152846020838601011115613c54578283fd5b816020850160208301379081016020019190915292915050565b600060608284031215613c7f578081fd5b50919050565b600060208284031215613c96578081fd5b8135613ca181614735565b9392505050565b600060208284031215613cb9578081fd5b8151613ca181614735565b600060208284031215613cd5578081fd5b8135613ca18161474a565b600060208284031215613cf1578081fd5b8151613ca18161474a565b60008060208385031215613d0e578081fd5b823567ffffffffffffffff811115613d24578182fd5b613d3085828601613bd6565b90969095509350505050565b60008060008060008060c08789031215613d54578182fd5b863567ffffffffffffffff80821115613d6b578384fd5b613d778a838b01613bd6565b909850965060208901359550869150613d938a60408b01613c6e565b945060a0890135915080821115613da8578384fd5b50613db589828a01613bd6565b979a9699509497509295939492505050565b600060208284031215613dd8578081fd5b813567ffffffffffffffff811115613dee578182fd5b613dfa84828501613c1d565b949350505050565b60008060408385031215613e14578182fd5b823567ffffffffffffffff811115613e2a578283fd5b613e3685828601613c1d565b95602094909401359450505050565b60006020808385031215613e57578182fd5b825167ffffffffffffffff80821115613e6e578384fd5b9084019060a08287031215613e81578384fd5b613e896145cc565b825181528383015182811115613e9d578586fd5b83019150601f82018713613eaf578485fd5b8151613ebd613c3b82614626565b8181528886838601011115613ed0578687fd5b613edf828783018887016146a4565b8286015250613ef060408401613bcb565b6040820152613f0160608401613bcb565b6060820152613f1260808401613bbb565b60808201529695505050505050565b600060808284031215613f32578081fd5b6040516080810181811067ffffffffffffffff82111715613f5557613f5561471f565b6040528251613f6381614735565b8152602083810151908201526040830151613f7d81614735565b60408201526060830151613f9081614735565b60608201529392505050565b60008060008060008060c08789031215613fb4578384fd5b613fbe8888613c6e565b9550606087013567ffffffffffffffff80821115613fda578586fd5b613fe68a838b01613bd6565b90975095506080890135915080821115613ffe578384fd5b5061400b89828a01613bd6565b90945092505060a087013561401f8161474a565b809150509295509295509295565b6000806000806000806000806000806101008b8d03121561404c578788fd5b6140568c8c613c6e565b995060608b013567ffffffffffffffff8082111561407257898afd5b61407e8e838f01613bd6565b909b50995060808d0135915080821115614096578586fd5b6140a28e838f01613bd6565b909950975060a08d0135965060c08d01359150808211156140c1578586fd5b6140cd8e838f01613bd6565b909650945060e08d01359150808211156140e5578384fd5b506140f28d828e01613bd6565b915080935050809150509295989b9194979a5092959850565b600080600080600080600080610100898b031215614127578182fd5b6141318a8a613c6e565b9750606089013567ffffffffffffffff8082111561414d578384fd5b6141598c838d01613bd6565b909950975060808b0135965060a08b0135915080821115614178578384fd5b506141858b828c01613bd6565b90955093505060c0890135915060e08901356141a081614735565b809150509295985092959890939650565b6000602082840312156141c2578081fd5b5035919050565b6000602082840312156141da578081fd5b5051919050565b6000806000806000606086880312156141f8578283fd5b85359450602086013567ffffffffffffffff80821115614216578485fd5b61422289838a01613bd6565b9096509450604088013591508082111561423a578283fd5b5061424788828901613bd6565b969995985093965092949392505050565b60008060008060008060c08789031215614270578384fd5b86359550602087013567ffffffffffffffff8082111561428e578586fd5b61429a8a838b01613bd6565b909750955060408901359150808211156142b2578384fd5b506142bf89828a01613bd6565b90945092506142d390508860608901613c6e565b90509295509295509295565b600081518084526142f78160208601602086016146a4565b601f01601f19169290920160200192915050565b81835281816020850137506000828201602090810191909152601f909101601f19169091010190565b8183823760009101908152919050565b8385823760609290921b6bffffffffffffffffffffffff1916919092019081526014810191909152603401919050565b8486823760008582018181528486823792151560f81b9290930191825250600101949350505050565b888a82376000898201818152888a823788018781528587602083013785016020810182815284868237509092016020019182525098975050505050505050565b8481528284602083013760609190911b6bffffffffffffffffffffffff19166020919092019081019190915260340192915050565b6001600160a01b038416815260a06020820152600061443460a08301856142df565b9050823560ff811680821461444857600080fd5b80604085015250506020830135606083015260408301356080830152949350505050565b6001600160a01b038616815260606020820152600061448f60608301868861430b565b82810360408401526144a281858761430b565b98975050505050505050565b6001600160a01b038816815260e0602082015260006144d060e08301896142df565b87604084015282810360608401526144e881886142df565b6080840196909652505060a0810192909252151560c090910152949350505050565b602081526000613dfa60208301848661430b565b60408152600061453260408301858761430b565b90508215156020830152949350505050565b602081526000613ca160208301846142df565b600061010080835261456b8184018c6142df565b9050828103602084015261457f818b6142df565b90506001600160a01b038916604084015287606084015286608084015285151560a084015282810360c08401526145b681866142df565b9150508260e08301529998505050505050505050565b60405160a0810167ffffffffffffffff811182821017156145ef576145ef61471f565b60405290565b604051601f8201601f1916810167ffffffffffffffff8111828210171561461e5761461e61471f565b604052919050565b600067ffffffffffffffff8211156146405761464061471f565b50601f01601f191660200190565b60008261466957634e487b7160e01b81526012600452602481fd5b500490565b600081600019048311821515161561468857614688614709565b500290565b60008282101561469f5761469f614709565b500390565b60005b838110156146bf5781810151838201526020016146a7565b838111156146ce576000848401525b50505050565b600181811c908216806146e857607f821691505b60208210811415613c7f57634e487b7160e01b600052602260045260246000fd5b634e487b7160e01b600052601160045260246000fd5b634e487b7160e01b600052604160045260246000fd5b6001600160a01b03811681146130d157600080fd5b80151581146130d157600080fdfe4f776e61626c653a2063616c6c6572206973206e6f7420746865206f776e6572a26469706673582212200dd8a0f1ff40a3049f032377b8116ef40004fedbe3e1e07df81a1d3bd9164a5764736f6c63430008040033","abi":[{"inputs":[{"internalType":"address payable","name":"_blackMatterTokenAddress","type":"address"},{"internalType":"address","name":"_spaceRidersPlanetNFT","type":"address"},{"internalType":"address payable","name":"_feeWallet","type":"address"},{"internalType":"address","name":"_backendAddress","type":"address"}],"stateMutability":"nonpayable","type":"constructor"},{"anonymous":false,"inputs":[{"indexed":true,"internalType":"address","name":"previousOwner","type":"address"},{"indexed":true,"internalType":"address","name":"newOwner","type":"address"}],"name":"OwnershipTransferred","type":"event"},{"inputs":[],"name":"backendAddress","outputs":[{"internalType":"address","name":"","type":"address"}],"stateMutability":"view","type":"function"},{"inputs":[{"internalType":"uint256","name":"amount","type":"uint256"},{"internalType":"string","name":"guid","type":"string"},{"internalType":"string","name":"planetId","type":"string"}],"name":"bkmDeposit","outputs":[],"stateMutability":"payable","type":"function"},{"inputs":[{"internalType":"string","name":"","type":"string"},{"internalType":"uint256","name":"","type":"uint256"}],"name":"bkmTransactionMap","outputs":[{"internalType":"string","name":"","type":"string"}],"stateMutability":"view","type":"function"},{"inputs":[{"internalType":"string","name":"","type":"string"}],"name":"bkmTransactions","outputs":[{"internalType":"string","name":"guid","type":"string"},{"internalType":"string","name":"planetId","type":"string"},{"internalType":"address","name":"owner","type":"address"},{"internalType":"uint256","name":"createdTimestamp","type":"uint256"},{"internalType":"uint256","name":"amount","type":"uint256"},{"internalType":"bool","name":"exists","type":"bool"},{"internalType":"string","name":"txType","type":"string"},{"internalType":"uint256","name":"fee","type":"uint256"}],"stateMutability":"view","type":"function"},{"inputs":[{"internalType":"uint256","name":"amount","type":"uint256"},{"internalType":"string","name":"guid","type":"string"},{"internalType":"string","name":"planetId","type":"string"},{"components":[{"internalType":"uint8","name":"v","type":"uint8"},{"internalType":"bytes32","name":"r","type":"bytes32"},{"internalType":"bytes32","name":"s","type":"bytes32"}],"internalType":"struct OnlyBackend.signatureData","name":"sD","type":"tuple"}],"name":"bkmWithdraw","outputs":[],"stateMutability":"payable","type":"function"},{"inputs":[],"name":"bnbFee","outputs":[{"internalType":"uint256","name":"","type":"uint256"}],"stateMutability":"view","type":"function"},{"inputs":[{"internalType":"string","name":"planetGuid","type":"string"},{"internalType":"uint256","name":"planetPrice","type":"uint256"},{"components":[{"internalType":"uint8","name":"v","type":"uint8"},{"internalType":"bytes32","name":"r","type":"bytes32"},{"internalType":"bytes32","name":"s","type":"bytes32"}],"internalType":"struct OnlyBackend.signatureData","name":"sD","type":"tuple"},{"internalType":"string","name":"tokenURI","type":"string"}],"name":"buyPlanet","outputs":[],"stateMutability":"payable","type":"function"},{"inputs":[{"internalType":"uint256","name":"newBnbFee","type":"uint256"}],"name":"changeBnbFee","outputs":[],"stateMutability":"nonpayable","type":"function"},{"inputs":[],"name":"enablePlanetFusion","outputs":[{"internalType":"bool","name":"","type":"bool"}],"stateMutability":"view","type":"function"},{"inputs":[],"name":"enablePlanetPurchases","outputs":[{"internalType":"bool","name":"","type":"bool"}],"stateMutability":"view","type":"function"},{"inputs":[],"name":"enablePlanetTrading","outputs":[{"internalType":"bool","name":"","type":"bool"}],"stateMutability":"view","type":"function"},{"inputs":[{"internalType":"uint256","name":"amount","type":"uint256"},{"internalType":"string","name":"guid","type":"string"},{"internalType":"string","name":"planetId","type":"string"}],"name":"energyDeposit","outputs":[],"stateMutability":"payable","type":"function"},{"inputs":[{"internalType":"string","name":"","type":"string"}],"name":"energyDeposits","outputs":[{"internalType":"string","name":"guid","type":"string"},{"internalType":"string","name":"planetId","type":"string"},{"internalType":"address","name":"owner","type":"address"},{"internalType":"uint256","name":"createdTimestamp","type":"uint256"},{"internalType":"uint256","name":"amount","type":"uint256"},{"internalType":"bool","name":"exists","type":"bool"},{"internalType":"string","name":"txType","type":"string"},{"internalType":"uint256","name":"fee","type":"uint256"}],"stateMutability":"view","type":"function"},{"inputs":[{"internalType":"string","name":"","type":"string"},{"internalType":"uint256","name":"","type":"uint256"}],"name":"energyDepositsMap","outputs":[{"internalType":"string","name":"","type":"string"}],"stateMutability":"view","type":"function"},{"inputs":[{"components":[{"internalType":"uint8","name":"v","type":"uint8"},{"internalType":"bytes32","name":"r","type":"bytes32"},{"internalType":"bytes32","name":"s","type":"bytes32"}],"internalType":"struct OnlyBackend.signatureData","name":"sD","type":"tuple"},{"internalType":"string","name":"burnPlanetGuid1","type":"string"},{"internalType":"string","name":"burnPlanetGuid2","type":"string"},{"internalType":"uint256","name":"tokenPrice","type":"uint256"},{"internalType":"string","name":"newPlanetGuid","type":"string"},{"internalType":"string","name":"newTokenURI","type":"string"}],"name":"fusionPlanet","outputs":[],"stateMutability":"payable","type":"function"},{"inputs":[{"internalType":"string","name":"guid","type":"string"}],"name":"getBkmTransactionMapCount","outputs":[{"internalType":"uint256","name":"","type":"uint256"}],"stateMutability":"view","type":"function"},{"inputs":[{"internalType":"string","name":"guid","type":"string"}],"name":"getEnergyDepositsMapCount","outputs":[{"internalType":"uint256","name":"","type":"uint256"}],"stateMutability":"view","type":"function"},{"inputs":[],"name":"owner","outputs":[{"internalType":"address","name":"","type":"address"}],"stateMutability":"view","type":"function"},{"inputs":[],"name":"renounceOwnership","outputs":[],"stateMutability":"nonpayable","type":"function"},{"inputs":[{"internalType":"address","name":"backendSignerAddress","type":"address"}],"name":"setBackendAddress","outputs":[],"stateMutability":"nonpayable","type":"function"},{"inputs":[{"internalType":"bool","name":"enabled","type":"bool"}],"name":"setBenefitStakingEnabled","outputs":[],"stateMutability":"nonpayable","type":"function"},{"inputs":[{"internalType":"uint256","name":"newFee","type":"uint256"}],"name":"setBenefitStakingPerformanceFeeBP","outputs":[],"stateMutability":"nonpayable","type":"function"},{"inputs":[{"internalType":"uint256","name":"_fee","type":"uint256"}],"name":"setBkmFee","outputs":[],"stateMutability":"nonpayable","type":"function"},{"inputs":[{"internalType":"address payable","name":"newFeeWallet","type":"address"}],"name":"setFeeWallet","outputs":[],"stateMutability":"nonpayable","type":"function"},{"inputs":[{"components":[{"internalType":"uint8","name":"v","type":"uint8"},{"internalType":"bytes32","name":"r","type":"bytes32"},{"internalType":"bytes32","name":"s","type":"bytes32"}],"internalType":"struct OnlyBackend.signatureData","name":"sD","type":"tuple"},{"internalType":"string","name":"planetId","type":"string"},{"internalType":"uint256","name":"amount","type":"uint256"},{"internalType":"string","name":"tier","type":"string"},{"internalType":"uint256","name":"timeRelease","type":"uint256"},{"internalType":"address","name":"router","type":"address"}],"name":"stakingRequestV2","outputs":[],"stateMutability":"payable","type":"function"},{"inputs":[{"internalType":"bool","name":"enable","type":"bool"}],"name":"toggleBkmDeposits","outputs":[],"stateMutability":"nonpayable","type":"function"},{"inputs":[{"internalType":"bool","name":"enable","type":"bool"}],"name":"toggleBkmWithdraws","outputs":[],"stateMutability":"nonpayable","type":"function"},{"inputs":[{"internalType":"bool","name":"enable","type":"bool"}],"name":"toggleEnergyDeposits","outputs":[],"stateMutability":"nonpayable","type":"function"},{"inputs":[{"internalType":"bool","name":"enable","type":"bool"}],"name":"togglePlanetFusion","outputs":[],"stateMutability":"nonpayable","type":"function"},{"inputs":[{"internalType":"bool","name":"enable","type":"bool"}],"name":"togglePlanetPurchases","outputs":[],"stateMutability":"nonpayable","type":"function"},{"inputs":[{"components":[{"internalType":"uint8","name":"v","type":"uint8"},{"internalType":"bytes32","name":"r","type":"bytes32"},{"internalType":"bytes32","name":"s","type":"bytes32"}],"internalType":"struct OnlyBackend.signatureData","name":"sD","type":"tuple"},{"internalType":"string","name":"requestId","type":"string"},{"internalType":"string","name":"planetGuid","type":"string"},{"internalType":"bool","name":"trading","type":"bool"}],"name":"togglePlanetTrading","outputs":[],"stateMutability":"payable","type":"function"},{"inputs":[{"internalType":"bool","name":"enable","type":"bool"}],"name":"togglePlanetTrading","outputs":[],"stateMutability":"nonpayable","type":"function"},{"inputs":[{"internalType":"string","name":"","type":"string"}],"name":"togglePlanetTradingRequests","outputs":[{"internalType":"bool","name":"","type":"bool"}],"stateMutability":"view","type":"function"},{"inputs":[{"internalType":"address","name":"newOwner","type":"address"}],"name":"transferOwnership","outputs":[],"stateMutability":"nonpayable","type":"function"},{"inputs":[{"internalType":"string","name":"planetId","type":"string"}],"name":"unstakingRequestV2","outputs":[],"stateMutability":"payable","type":"function"},{"inputs":[{"internalType":"string","name":"","type":"string"}],"name":"userStaking","outputs":[{"internalType":"address","name":"owner","type":"address"},{"internalType":"string","name":"planetId","type":"string"},{"internalType":"uint256","name":"amount","type":"uint256"},{"internalType":"string","name":"tier","type":"string"},{"internalType":"uint256","name":"time","type":"uint256"},{"internalType":"uint256","name":"timeRelease","type":"uint256"},{"internalType":"bool","name":"staked","type":"bool"}],"stateMutability":"view","type":"function"},{"inputs":[{"internalType":"string","name":"","type":"string"}],"name":"userStakingLpInfo","outputs":[{"internalType":"address","name":"wallet","type":"address"},{"internalType":"uint256","name":"lpAmount","type":"uint256"},{"internalType":"address","name":"router","type":"address"},{"internalType":"address","name":"pair","type":"address"}],"stateMutability":"view","type":"function"}]}