{"address":"0x0DCd1Bf9A1b36cE34237eEaFef220932846BCD82","bytecode":"0x6080604052600180546001600160a01b03191661dead1781556608e1bc9bf040006007556005600855601e6009556032600a819055600f600b819055600c805460ff191690931790925590556012805463ffffffff19166101011790553480156200006957600080fd5b50604051620046b5380380620046b58339810160408190526200008c916200014a565b6200009733620000fa565b600380546001600160a01b03199081166001600160a01b03978816179091556004805482169587169590951790945560028054851693861693909317909255600680548416918516919091179055600580549092169216919091179055620001e2565b600080546001600160a01b038381166001600160a01b0319831681178455604051919092169283917f8be0079c531659141344cd1fd0a4f28419497f9722a3daafe3b4186f6b6457e09190a35050565b600080600080600060a0868803121562000162578081fd5b85516200016f81620001c9565b60208701519095506200018281620001c9565b60408701519094506200019581620001c9565b6060870151909350620001a881620001c9565b6080870151909250620001bb81620001c9565b809150509295509295909350565b6001600160a01b0381168114620001df57600080fd5b50565b6144c380620001f26000396000f3fe6080604052600436106101f95760003560e01c80638da5cb5b1161010d578063c9513dbd116100a0578063efc174151161006f578063efc1741514610680578063f23b5e2514610696578063f2fde38b146106b6578063f4c07d81146106d6578063fcd55574146106e957600080fd5b8063c9513dbd1461056a578063d1ecc46114610612578063d963d89b14610625578063ea25ebb21461066057600080fd5b8063aa6c9144116100dc578063aa6c9144146104f8578063b459a6951461050b578063be43cf0d1461052a578063c4340f921461054a57600080fd5b80638da5cb5b146104745780638e8bc9b01461049257806390d49b9d146104c5578063919423f7146104e557600080fd5b80634de81205116101905780636822a86f1161015f5780636822a86f146103c4578063715018a6146103f257806372948916146104075780637c2727b914610434578063826c220c1461045457600080fd5b80634de81205146103185780634f26992b146103385780635acb36ce14610383578063672f967c146103a457600080fd5b8063200a7994116101cc578063200a799414610283578063337b70ad146102b357806344b1fa1c146102c657806345fba4f3146102f857600080fd5b80630d72d57f146101fe57806312a9aea91461023b5780631815ce7d1461025057806318a26c8614610270575b600080fd5b34801561020a57600080fd5b5060065461021e906001600160a01b031681565b6040516001600160a01b0390911681526020015b60405180910390f35b61024e610249366004613971565b610709565b005b34801561025c57600080fd5b5061024e61026b3660046138c1565b610ba6565b61024e61027e366004613be7565b610c10565b34801561028f57600080fd5b506102a361029e3660046139fc565b611006565b6040516102329493929190614250565b61024e6102c1366004613dc7565b6110d0565b3480156102d257600080fd5b506102e66102e13660046139fc565b6116e8565b6040516102329695949392919061428a565b34801561030457600080fd5b5061024e6103133660046138f9565b611845565b34801561032457600080fd5b5061024e6103333660046138f9565b6118a7565b34801561034457600080fd5b506103736103533660046139fc565b805160208183018101805160158252928201919093012091525460ff1681565b6040519015158152602001610232565b34801561038f57600080fd5b50601254610373906301000000900460ff1681565b3480156103b057600080fd5b5061024e6103bf366004613e58565b61190d565b3480156103d057600080fd5b506103e46103df366004613931565b61195a565b604051908152602001610232565b3480156103fe57600080fd5b5061024e611986565b34801561041357600080fd5b50610427610422366004613a37565b6119da565b604051610232919061423d565b34801561044057600080fd5b5061024e61044f366004613f55565b611aa2565b34801561046057600080fd5b5061024e61046f366004613d56565b611b66565b34801561048057600080fd5b506000546001600160a01b031661021e565b34801561049e57600080fd5b506104b26104ad3660046139fc565b611eb6565b60405161023297969594939291906141a7565b3480156104d157600080fd5b5061024e6104e03660046138c1565b61201b565b61024e6104f3366004613eff565b612085565b61024e610506366004613e88565b6122c8565b34801561051757600080fd5b5060125461037390610100900460ff1681565b34801561053657600080fd5b506012546103739062010000900460ff1681565b34801561055657600080fd5b5061024e6105653660046138f9565b6126dd565b34801561057657600080fd5b506105d46105853660046139fc565b8051602081830181018051600e825292820191909301209152805460018201546002830154600384015460048501546005909501546001600160a01b0394851695939492939192918216911686565b604080516001600160a01b039788168152602081019690965285019390935260608401919091528316608083015290911660a082015260c001610232565b61024e610620366004613c78565b612741565b34801561063157600080fd5b506103736106403660046139fc565b805160208183018101805160138252928201919093012091525460ff1681565b34801561066c57600080fd5b5061024e61067b3660046138f9565b6129f0565b34801561068c57600080fd5b506103e460075481565b3480156106a257600080fd5b5061024e6106b13660046138f9565b612a4b565b3480156106c257600080fd5b5061024e6106d13660046138c1565b612aa6565b61024e6106e4366004613931565b612b5f565b3480156106f557600080fd5b5061024e610704366004613e58565b612fab565b600061071d6003546001600160a01b031690565b60048054604051630805372f60e01b81529293506001600160a01b0316916000918391630805372f91610754918d918d9101614203565b60006040518083038186803b15801561076c57600080fd5b505afa158015610780573d6000803e3d6000fd5b505050506040513d6000823e601f3d908101601f191682016040526107a89190810190613a7a565b601254909150610100900460ff166108075760405162461bcd60e51b815260206004820152601e60248201527f50757263686173696e6720706c616e6574732069732064697361626c6564000060448201526064015b60405180910390fd5b8060400151156108595760405162461bcd60e51b815260206004820152601a60248201527f506c616e6574206775696420616c72656164792065786973747300000000000060448201526064016107fe565b604051632587701560e11b815233600482015287906001600160a01b03851690634b0ee02a9060240160206040518083038186803b15801561089a57600080fd5b505afa1580156108ae573d6000803e3d6000fd5b505050506040513d601f19601f820116820180604052508101906108d29190613e70565b10156109155760405162461bcd60e51b81526020600482015260126024820152712737ba1032b737bab3b4103a37b5b2b7399760711b60448201526064016107fe565b604051636eb1769f60e11b815233600482015230602482015287906001600160a01b0385169063dd62ed3e9060440160206040518083038186803b15801561095c57600080fd5b505afa158015610970573d6000803e3d6000fd5b505050506040513d601f19601f820116820180604052508101906109949190613e70565b10156109e25760405162461bcd60e51b815260206004820152601960248201527f417070726f7665207472616e73616374696f6e2066697273740000000000000060448201526064016107fe565b6007543414610a2b5760405162461bcd60e51b81526020600482015260156024820152744e6f742073656e6420656e6f75676820424e42277360581b60448201526064016107fe565b60008989338a604051602001610a44949392919061402a565b60408051601f1981840301815290829052600654633248da1f60e11b835290925073__$ad9ca387392769a074e8e3cd9fd740c701$__91636491b43e91610a9d916001600160a01b039091169085908c9060040161410b565b60006040518083038186803b158015610ab557600080fd5b505af4158015610ac9573d6000803e3d6000fd5b50505050610ad688612ff8565b6002546007546040516001600160a01b039092169181156108fc0291906000818181858888f19350505050158015610b12573d6000803e3d6000fd5b506040516351f71c5760e11b81526001600160a01b0384169063a3ee38ae90610b479033908e908e908c908c90600401614165565b602060405180830381600087803b158015610b6157600080fd5b505af1158015610b75573d6000803e3d6000fd5b505050506040513d601f19601f82011682018060405250810190610b999190613e70565b5050505050505050505050565b6000546001600160a01b03163314610bee5760405162461bcd60e51b8152602060048201819052602482015260008051602061446e83398151915260448201526064016107fe565b600680546001600160a01b0319166001600160a01b0392909216919091179055565b6012546301000000900460ff16610c735760405162461bcd60e51b815260206004820152602160248201527f506c616e65742074726164696e6720746f67676c65206e6f7420656e61626c656044820152601960fa1b60648201526084016107fe565b60048054604051630805372f60e01b81526001600160a01b03909116916000918391630805372f91610ca9918991899101614203565b60006040518083038186803b158015610cc157600080fd5b505afa158015610cd5573d6000803e3d6000fd5b505050506040513d6000823e601f3d908101601f19168201604052610cfd9190810190613a7a565b905060138787604051610d1192919061401a565b9081526040519081900360200190205460ff1615610d715760405162461bcd60e51b815260206004820152601c60248201527f416c726561647920746f67676c65642077697468207265712e2069640000000060448201526064016107fe565b8060400151610dc25760405162461bcd60e51b815260206004820152601460248201527f506c616e657420646f65736e742065786973747300000000000000000000000060448201526064016107fe565b80516040516331a9108f60e11b815233916001600160a01b03851691636352211e91610df49160040190815260200190565b60206040518083038186803b158015610e0c57600080fd5b505afa158015610e20573d6000803e3d6000fd5b505050506040513d601f19601f82011682018060405250810190610e4491906138dd565b6001600160a01b031614610e865760405162461bcd60e51b81526020600482015260096024820152682737ba1037bbb732b960b91b60448201526064016107fe565b60008787878787604051602001610ea195949392919061405a565b60408051601f1981840301815290829052600654633248da1f60e11b835290925073__$ad9ca387392769a074e8e3cd9fd740c701$__91636491b43e91610efa916001600160a01b039091169085908e9060040161410b565b60006040518083038186803b158015610f1257600080fd5b505af4158015610f26573d6000803e3d6000fd5b50505050600160138989604051610f3e92919061401a565b908152604051908190036020018120805492151560ff199093169290921790915563c876022760e01b81526001600160a01b0384169063c876022790610f8c90899089908990600401614217565b600060405180830381600087803b158015610fa657600080fd5b505af1158015610fba573d6000803e3d6000fd5b50506002546007546040516001600160a01b03909216935080156108fc029250906000818181858888f19350505050158015610ffa573d6000803e3d6000fd5b50505050505050505050565b805160208183018101805160148252928201919093012091528054819061102c906143e9565b80601f0160208091040260200160405190810160405280929190818152602001828054611058906143e9565b80156110a55780601f1061107a576101008083540402835291602001916110a5565b820191906000526020600020905b81548152906001019060200180831161108857829003601f168201915b505050506001830154600284015460039094015492936001600160a01b039091169290915060ff1684565b60006110e46003546001600160a01b031690565b600c5490915060ff166111395760405162461bcd60e51b815260206004820152601760248201527f5374616b696e67206973206e6f7420656e61626c65642e00000000000000000060448201526064016107fe565b600d878760405161114b92919061401a565b9081526040519081900360200190206006015460ff16156111ae5760405162461bcd60e51b815260206004820152601760248201527f4f6e6c792031207374616b696e67206174206f6e63652e00000000000000000060448201526064016107fe565b4282116112095760405162461bcd60e51b815260206004820152602360248201527f54696d652063616e74206265206c657373207468616e2063757272656e742074604482015262696d6560e81b60648201526084016107fe565b604051632587701560e11b815233600482015285906001600160a01b03831690634b0ee02a9060240160206040518083038186803b15801561124a57600080fd5b505afa15801561125e573d6000803e3d6000fd5b505050506040513d601f19601f820116820180604052508101906112829190613e70565b10156112c55760405162461bcd60e51b81526020600482015260126024820152712737ba1032b737bab3b4103a37b5b2b7399760711b60448201526064016107fe565b600754341461130e5760405162461bcd60e51b81526020600482015260156024820152744e6f742073656e6420656e6f75676820424e42277360581b60448201526064016107fe565b6002546007546040516001600160a01b039092169181156108fc0291906000818181858888f1935050505015801561134a573d6000803e3d6000fd5b50600061136e612710611368600f54896132db90919063ffffffff16565b906132ee565b6002546040516323b872dd60e01b81523360048201526001600160a01b039182166024820152604481018390529192508316906323b872dd90606401602060405180830381600087803b1580156113c457600080fd5b505af11580156113d8573d6000803e3d6000fd5b505050506040513d601f19601f820116820180604052508101906113fc9190613915565b5060405163999a7ee760e01b8152600060048201819052906001600160a01b0384169063999a7ee79060240160206040518083038186803b15801561144057600080fd5b505afa158015611454573d6000803e3d6000fd5b505050506040513d601f19601f8201168201806040525081019061147891906138dd565b604051631c81c79560e11b81523360048201526001600160a01b038083166024830152604482018a9052919250908416906339038f2a9060640160c060405180830381600087803b1580156114cc57600080fd5b505af11580156114e0573d6000803e3d6000fd5b505050506040513d601f19601f820116820180604052508101906115049190613b56565b600e8a8a60405161151692919061401a565b9081526040805160209281900383018120845181546001600160a01b03199081166001600160a01b03928316178355868601516001840155868501516002840155606087015160038401556080870151600484018054831691841691909117905560a0909601516005909201805490961691161790935560e0830181523383528051601f8c018390048302810183019091528a8152818301918c908c908190840183828082843760009201919091525050509082525060208082018a905260408051601f8a0183900483028101830182528981529201919089908990819084018382808284376000920191909152505050908252504260208201819052604090910190611624908790614362565b81526001602090910152604051600d90611641908c908c9061401a565b90815260405160209181900382019020825181546001600160a01b0319166001600160a01b039091161781558282015180519192611687926001850192909101906136ea565b5060408201516002820155606082015180516116ad9160038401916020909101906136ea565b506080820151600482015560a0820151600582015560c0909101516006909101805460ff191691151591909117905550505050505050505050565b805160208183018101805160108252928201919093012091528054819061170e906143e9565b80601f016020809104026020016040519081016040528092919081815260200182805461173a906143e9565b80156117875780601f1061175c57610100808354040283529160200191611787565b820191906000526020600020905b81548152906001019060200180831161176a57829003601f168201915b50505050509080600101805461179c906143e9565b80601f01602080910402602001604051908101604052809291908181526020018280546117c8906143e9565b80156118155780601f106117ea57610100808354040283529160200191611815565b820191906000526020600020905b8154815290600101906020018083116117f857829003601f168201915b5050505060028301546003840154600485015460059095015493946001600160a01b039092169390925060ff1686565b6000546001600160a01b0316331461188d5760405162461bcd60e51b8152602060048201819052602482015260008051602061446e83398151915260448201526064016107fe565b601280549115156101000261ff0019909216919091179055565b6000546001600160a01b031633146118ef5760405162461bcd60e51b8152602060048201819052602482015260008051602061446e83398151915260448201526064016107fe565b6012805491151563010000000263ff00000019909216919091179055565b6000546001600160a01b031633146119555760405162461bcd60e51b8152602060048201819052602482015260008051602061446e83398151915260448201526064016107fe565b600f55565b60006011838360405161196e92919061401a565b90815260405190819003602001902054905092915050565b6000546001600160a01b031633146119ce5760405162461bcd60e51b8152602060048201819052602482015260008051602061446e83398151915260448201526064016107fe565b6119d860006132fa565b565b81516020818401810180516011825292820191850191909120919052805482908110611a0557600080fd5b90600052602060002001600091509150508054611a21906143e9565b80601f0160208091040260200160405190810160405280929190818152602001828054611a4d906143e9565b8015611a9a5780601f10611a6f57610100808354040283529160200191611a9a565b820191906000526020600020905b815481529060010190602001808311611a7d57829003601f168201915b505050505081565b6000546001600160a01b03163314611aea5760405162461bcd60e51b8152602060048201819052602482015260008051602061446e83398151915260448201526064016107fe565b600854600b54600a54600954611b009190614362565b611b0a9190614362565b611b149190614362565b606414611b525760405162461bcd60e51b815260206004820152600c60248201526b0546f74616c203d3d203130360a41b60448201526064016107fe565b600993909355600a91909155600b55600855565b600084848484604051602001611b7f94939291906140c3565b60408051601f1981840301815290829052600654633248da1f60e11b835290925073__$ad9ca387392769a074e8e3cd9fd740c701$__91636491b43e91611bd8916001600160a01b039091169085908b9060040161410b565b60006040518083038186803b158015611bf057600080fd5b505af4158015611c04573d6000803e3d6000fd5b5050505060148585604051611c1a92919061401a565b9081526040519081900360200190206003015460ff1615611c7d5760405162461bcd60e51b815260206004820152601660248201527f5265717565737420616c7265616479206578697374730000000000000000000060448201526064016107fe565b336001600160a01b03831614611cd55760405162461bcd60e51b815260206004820152601360248201527f52657175657374206e6f7420666f7220796f750000000000000000000000000060448201526064016107fe565b604051806080016040528086868080601f0160208091040260200160405190810160405280939291908181526020018383808284376000920191909152505050908252503360208201526040808201869052600160609092019190915251601490611d43908890889061401a565b90815260200160405180910390206000820151816000019080519060200190611d6d9291906136ea565b5060208201516001820180546001600160a01b0319166001600160a01b03928316179055604083015160028301556060909201516003909101805460ff1916911515919091179055600554166001600160a01b0316639260e726846040518263ffffffff1660e01b8152600401611de691815260200190565b600060405180830381600087803b158015611e0057600080fd5b505af1158015611e14573d6000803e3d6000fd5b50505050611e2a6003546001600160a01b031690565b60405163a9059cbb60e01b8152336004820152602481018590526001600160a01b03919091169063a9059cbb906044015b602060405180830381600087803b158015611e7557600080fd5b505af1158015611e89573d6000803e3d6000fd5b505050506040513d601f19601f82011682018060405250810190611ead9190613915565b50505050505050565b8051602081830181018051600d82529282019190930120915280546001820180546001600160a01b039092169291611eed906143e9565b80601f0160208091040260200160405190810160405280929190818152602001828054611f19906143e9565b8015611f665780601f10611f3b57610100808354040283529160200191611f66565b820191906000526020600020905b815481529060010190602001808311611f4957829003601f168201915b505050505090806002015490806003018054611f81906143e9565b80601f0160208091040260200160405190810160405280929190818152602001828054611fad906143e9565b8015611ffa5780601f10611fcf57610100808354040283529160200191611ffa565b820191906000526020600020905b815481529060010190602001808311611fdd57829003601f168201915b50505050600483015460058401546006909401549293909290915060ff1687565b6000546001600160a01b031633146120635760405162461bcd60e51b8152602060048201819052602482015260008051602061446e83398151915260448201526064016107fe565b600280546001600160a01b0319166001600160a01b0392909216919091179055565b60158260405161209591906140ef565b9081526040519081900360200190205460ff16156120f55760405162461bcd60e51b815260206004820152601b60248201527f505020696e63726561736520616c726561647920636c61696d6564000000000060448201526064016107fe565b600754341461213e5760405162461bcd60e51b81526020600482015260156024820152744e6f742073656e6420656e6f75676820424e42277360581b60448201526064016107fe565b6002546007546040516001600160a01b039092169181156108fc0291906000818181858888f1935050505015801561217a573d6000803e3d6000fd5b50600061218f6003546001600160a01b031690565b905060003384866040516020016121a893929190613fdb565b60408051601f1981840301815290829052600654633248da1f60e11b835290925073__$ad9ca387392769a074e8e3cd9fd740c701$__91636491b43e91612201916001600160a01b03909116908590889060040161410b565b60006040518083038186803b15801561221957600080fd5b505af415801561222d573d6000803e3d6000fd5b50505050600160158560405161224391906140ef565b908152604051908190036020018120805492151560ff19909316929092179091556348859c6960e11b8152336004820152602481018690526001600160a01b0383169063910b38d290604401600060405180830381600087803b1580156122a957600080fd5b505af11580156122bd573d6000803e3d6000fd5b505050505050505050565b60006122dc6003546001600160a01b031690565b60125490915060ff1661233d5760405162461bcd60e51b8152602060048201526024808201527f4465706f736974696e6720656e6572677920746f6b656e732069732064697361604482015263189b195960e21b60648201526084016107fe565b604051632587701560e11b815233600482015286906001600160a01b03831690634b0ee02a9060240160206040518083038186803b15801561237e57600080fd5b505afa158015612392573d6000803e3d6000fd5b505050506040513d601f19601f820116820180604052508101906123b69190613e70565b10156123f95760405162461bcd60e51b81526020600482015260126024820152712737ba1032b737bab3b4103a37b5b2b7399760711b60448201526064016107fe565b604051636eb1769f60e11b815233600482015230602482015286906001600160a01b0383169063dd62ed3e9060440160206040518083038186803b15801561244057600080fd5b505afa158015612454573d6000803e3d6000fd5b505050506040513d601f19601f820116820180604052508101906124789190613e70565b10156124c65760405162461bcd60e51b815260206004820152601960248201527f417070726f7665207472616e73616374696f6e2066697273740000000000000060448201526064016107fe565b600754341461250f5760405162461bcd60e51b81526020600482015260156024820152744e6f742073656e6420656e6f75676820424e42277360581b60448201526064016107fe565b6040518060c0016040528086868080601f016020809104026020016040519081016040528093929190818152602001838380828437600092019190915250505090825250604080516020601f87018190048102820181019092528581529181019190869086908190840183828082843760009201919091525050509082525033602082015242604080830191909152606082018990526001608090920191909152516010906125c1908890889061401a565b908152602001604051809103902060008201518160000190805190602001906125eb9291906136ea565b50602082810151805161260492600185019201906136ea565b506040828101516002830180546001600160a01b0319166001600160a01b03909216919091179055606083015160038301556080830151600483015560a0909201516005909101805460ff19169115159190911790555160119061266b908590859061401a565b90815260405160209181900382019020805460018101825560009182529190206126979101868661376e565b506126a186612ff8565b6002546007546040516001600160a01b039092169181156108fc0291906000818181858888f19350505050158015611ead573d6000803e3d6000fd5b6000546001600160a01b031633146127255760405162461bcd60e51b8152602060048201819052602482015260008051602061446e83398151915260448201526064016107fe565b60128054911515620100000262ff000019909216919091179055565b60125462010000900460ff166127995760405162461bcd60e51b815260206004820152601660248201527f506c616e657420667573696f6e2064697361626c65640000000000000000000060448201526064016107fe565b6127a789898989888861334a565b60065460405173__$ad9ca387392769a074e8e3cd9fd740c701$__91636491b43e916001600160a01b03909116906127f3908d908d908d908d908d908d908d908d908d90602001614083565b6040516020818303038152906040528d6040518463ffffffff1660e01b81526004016128219392919061410b565b60006040518083038186803b15801561283957600080fd5b505af415801561284d573d6000803e3d6000fd5b50506004805460405163a257ccf360e01b81526001600160a01b03909116935083925063a257ccf391612884918e918e9101614203565b600060405180830381600087803b15801561289e57600080fd5b505af11580156128b2573d6000803e3d6000fd5b505060405163a257ccf360e01b81526001600160a01b038416925063a257ccf391506128e4908b908b90600401614203565b600060405180830381600087803b1580156128fe57600080fd5b505af1158015612912573d6000803e3d6000fd5b5050505061291f86612ff8565b6002546007546040516001600160a01b039092169181156108fc0291906000818181858888f1935050505015801561295b573d6000803e3d6000fd5b506040516351f71c5760e11b81526001600160a01b0382169063a3ee38ae906129909033908990899089908990600401614165565b602060405180830381600087803b1580156129aa57600080fd5b505af11580156129be573d6000803e3d6000fd5b505050506040513d601f19601f820116820180604052508101906129e29190613e70565b505050505050505050505050565b6000546001600160a01b03163314612a385760405162461bcd60e51b8152602060048201819052602482015260008051602061446e83398151915260448201526064016107fe565b600c805460ff1916911515919091179055565b6000546001600160a01b03163314612a935760405162461bcd60e51b8152602060048201819052602482015260008051602061446e83398151915260448201526064016107fe565b6012805460ff1916911515919091179055565b6000546001600160a01b03163314612aee5760405162461bcd60e51b8152602060048201819052602482015260008051602061446e83398151915260448201526064016107fe565b6001600160a01b038116612b535760405162461bcd60e51b815260206004820152602660248201527f4f776e61626c653a206e6577206f776e657220697320746865207a65726f206160448201526564647265737360d01b60648201526084016107fe565b612b5c816132fa565b50565b600d8282604051612b7192919061401a565b9081526040519081900360200190206006015460ff16612be95760405162461bcd60e51b815260206004820152602d60248201527f596f7520617265206e6f74207374616b696e672c206e6f20776974686472617760448201526c30b61030bb30b4b630b136329760991b60648201526084016107fe565b600d8282604051612bfb92919061401a565b9081526020016040518091039020600501544211612c5b5760405162461bcd60e51b815260206004820152601f60248201527f5374616b696e6720706572696f64206973206e6f742066696e69736865642e0060448201526064016107fe565b336001600160a01b0316600d8383604051612c7792919061401a565b908152604051908190036020019020546001600160a01b031614612cdd5760405162461bcd60e51b815260206004820152601160248201527f4e6f7420796f7572207374616b696e672e00000000000000000000000000000060448201526064016107fe565b6007543414612d265760405162461bcd60e51b81526020600482015260156024820152744e6f742073656e6420656e6f75676820424e42277360581b60448201526064016107fe565b6002546007546040516001600160a01b039092169181156108fc0291906000818181858888f19350505050158015612d62573d6000803e3d6000fd5b506000612d776003546001600160a01b031690565b60405163999a7ee760e01b81526000600482018190529192506001600160a01b0383169063999a7ee79060240160206040518083038186803b158015612dbc57600080fd5b505afa158015612dd0573d6000803e3d6000fd5b505050506040513d601f19601f82011682018060405250810190612df491906138dd565b9050600e8484604051612e0892919061401a565b908152604051908190036020018120600501546001600160a01b03169063a9059cbb908490600e90612e3d908990899061401a565b908152604051908190036020018120600101546001600160e01b031960e085901b168252612e8292916004016001600160a01b03929092168252602082015260400190565b602060405180830381600087803b158015612e9c57600080fd5b505af1158015612eb0573d6000803e3d6000fd5b505050506040513d601f19601f82011682018060405250810190612ed49190613915565b50816001600160a01b0316630a044d9682600e8787604051612ef792919061401a565b9081526040519081900360200181206001600160e01b031960e085901b168252612f7392916004016001600160a01b0392831681528154831660208201526001820154604082015260028201546060820152600382015460808201526004820154831660a082015260059091015490911660c082015260e00190565b600060405180830381600087803b158015612f8d57600080fd5b505af1158015612fa1573d6000803e3d6000fd5b5050505050505050565b6000546001600160a01b03163314612ff35760405162461bcd60e51b8152602060048201819052602482015260008051602061446e83398151915260448201526064016107fe565b600755565b600061300c6003546001600160a01b031690565b6040516323b872dd60e01b8152336004820152306024820152604481018490529091506001600160a01b038216906323b872dd90606401602060405180830381600087803b15801561305d57600080fd5b505af1158015613071573d6000803e3d6000fd5b505050506040513d601f19601f820116820180604052508101906130959190613915565b506009546000906130b1906130ab8560646132ee565b906132db565b905060006130cf600a546130ab6064876132ee90919063ffffffff16565b905060006130ed600b546130ab6064886132ee90919063ffffffff16565b9050600061310b6008546130ab6064896132ee90919063ffffffff16565b60035460405163a9059cbb60e01b81526001600160a01b0391821660048201526024810187905291925086169063a9059cbb90604401602060405180830381600087803b15801561315b57600080fd5b505af115801561316f573d6000803e3d6000fd5b505050506040513d601f19601f820116820180604052508101906131939190613915565b5060055460405163a9059cbb60e01b81526001600160a01b039182166004820152602481018590529086169063a9059cbb90604401602060405180830381600087803b1580156131e257600080fd5b505af11580156131f6573d6000803e3d6000fd5b505050506040513d601f19601f8201168201806040525081019061321a9190613915565b5060025460405163a9059cbb60e01b81526001600160a01b039182166004820152602481018490529086169063a9059cbb90604401602060405180830381600087803b15801561326957600080fd5b505af115801561327d573d6000803e3d6000fd5b505050506040513d601f19601f820116820180604052508101906132a19190613915565b5060015460405163a9059cbb60e01b81526001600160a01b039182166004820152602481018390529086169063a9059cbb90604401611e5b565b60006132e7828461439a565b9392505050565b60006132e7828461437a565b600080546001600160a01b038381166001600160a01b0319831681178455604051919092169283917f8be0079c531659141344cd1fd0a4f28419497f9722a3daafe3b4186f6b6457e09190a35050565b60048054604051630805372f60e01b81526001600160a01b03909116916000918391630805372f91613380918c918c9101614203565b60006040518083038186803b15801561339857600080fd5b505afa1580156133ac573d6000803e3d6000fd5b505050506040513d6000823e601f3d908101601f191682016040526133d49190810190613a7a565b90506000826001600160a01b0316630805372f88886040518363ffffffff1660e01b8152600401613406929190614203565b60006040518083038186803b15801561341e57600080fd5b505afa158015613432573d6000803e3d6000fd5b505050506040513d6000823e601f3d908101601f1916820160405261345a9190810190613a7a565b90506000836001600160a01b0316630805372f87876040518363ffffffff1660e01b815260040161348c929190614203565b60006040518083038186803b1580156134a457600080fd5b505afa1580156134b8573d6000803e3d6000fd5b505050506040513d6000823e601f3d908101601f191682016040526134e09190810190613a7a565b9050826040015180156134f4575081604001515b6135405760405162461bcd60e51b815260206004820152601e60248201527f426f7468206275726e20706c616e6574732073686f756c64206578697374000060448201526064016107fe565b82516040516331a9108f60e11b815233916001600160a01b03871691636352211e916135729160040190815260200190565b60206040518083038186803b15801561358a57600080fd5b505afa15801561359e573d6000803e3d6000fd5b505050506040513d601f19601f820116820180604052508101906135c291906138dd565b6001600160a01b0316148015613660575081516040516331a9108f60e11b815233916001600160a01b03871691636352211e916136059160040190815260200190565b60206040518083038186803b15801561361d57600080fd5b505afa158015613631573d6000803e3d6000fd5b505050506040513d601f19601f8201168201806040525081019061365591906138dd565b6001600160a01b0316145b6136985760405162461bcd60e51b81526020600482015260096024820152682737ba1037bbb732b960b91b60448201526064016107fe565b806040015115610ffa5760405162461bcd60e51b815260206004820152601d60248201527f4e657720706c616e657420494420616c7265616479206578697374732e00000060448201526064016107fe565b8280546136f6906143e9565b90600052602060002090601f016020900481019282613718576000855561375e565b82601f1061373157805160ff191683800117855561375e565b8280016001018555821561375e579182015b8281111561375e578251825591602001919060010190613743565b5061376a9291506137e2565b5090565b82805461377a906143e9565b90600052602060002090601f01602090048101928261379c576000855561375e565b82601f106137b55782800160ff1982351617855561375e565b8280016001018555821561375e579182015b8281111561375e5782358255916020019190600101906137c7565b5b8082111561376a57600081556001016137e3565b80516138028161444a565b919050565b80516138028161445f565b60008083601f840112613823578182fd5b50813567ffffffffffffffff81111561383a578182fd5b60208301915083602082850101111561385257600080fd5b9250929050565b600082601f830112613869578081fd5b813561387c6138778261433a565b614309565b818152846020838601011115613890578283fd5b816020850160208301379081016020019190915292915050565b6000606082840312156138bb578081fd5b50919050565b6000602082840312156138d2578081fd5b81356132e78161444a565b6000602082840312156138ee578081fd5b81516132e78161444a565b60006020828403121561390a578081fd5b81356132e78161445f565b600060208284031215613926578081fd5b81516132e78161445f565b60008060208385031215613943578081fd5b823567ffffffffffffffff811115613959578182fd5b61396585828601613812565b90969095509350505050565b60008060008060008060c08789031215613989578182fd5b863567ffffffffffffffff808211156139a0578384fd5b6139ac8a838b01613812565b9098509650602089013595508691506139c88a60408b016138aa565b945060a08901359150808211156139dd578384fd5b506139ea89828a01613812565b979a9699509497509295939492505050565b600060208284031215613a0d578081fd5b813567ffffffffffffffff811115613a23578182fd5b613a2f84828501613859565b949350505050565b60008060408385031215613a49578182fd5b823567ffffffffffffffff811115613a5f578283fd5b613a6b85828601613859565b95602094909401359450505050565b60006020808385031215613a8c578182fd5b825167ffffffffffffffff80821115613aa3578384fd5b9084019060a08287031215613ab6578384fd5b613abe6142e0565b825181528383015182811115613ad2578586fd5b83019150601f82018713613ae4578485fd5b8151613af26138778261433a565b8181528886838601011115613b05578687fd5b613b14828783018887016143b9565b8286015250613b2560408401613807565b6040820152613b3660608401613807565b6060820152613b47608084016137f7565b60808201529695505050505050565b600060c08284031215613b67578081fd5b60405160c0810181811067ffffffffffffffff82111715613b8a57613b8a614434565b6040528251613b988161444a565b808252506020830151602082015260408301516040820152606083015160608201526080830151613bc88161444a565b608082015260a0830151613bdb8161444a565b60a08201529392505050565b60008060008060008060c08789031215613bff578384fd5b613c0988886138aa565b9550606087013567ffffffffffffffff80821115613c25578586fd5b613c318a838b01613812565b90975095506080890135915080821115613c49578384fd5b50613c5689828a01613812565b90945092505060a0870135613c6a8161445f565b809150509295509295509295565b6000806000806000806000806000806101008b8d031215613c97578788fd5b613ca18c8c6138aa565b995060608b013567ffffffffffffffff80821115613cbd57898afd5b613cc98e838f01613812565b909b50995060808d0135915080821115613ce1578586fd5b613ced8e838f01613812565b909950975060a08d0135965060c08d0135915080821115613d0c578586fd5b613d188e838f01613812565b909650945060e08d0135915080821115613d30578384fd5b50613d3d8d828e01613812565b915080935050809150509295989b9194979a5092959850565b600080600080600060c08688031215613d6d578283fd5b613d7787876138aa565b9450606086013567ffffffffffffffff811115613d92578384fd5b613d9e88828901613812565b9095509350506080860135915060a0860135613db98161444a565b809150509295509295909350565b600080600080600080600060e0888a031215613de1578081fd5b613deb89896138aa565b9650606088013567ffffffffffffffff80821115613e07578283fd5b613e138b838c01613812565b909850965060808a0135955060a08a0135915080821115613e32578283fd5b50613e3f8a828b01613812565b989b979a5095989497959660c090950135949350505050565b600060208284031215613e69578081fd5b5035919050565b600060208284031215613e81578081fd5b5051919050565b600080600080600060608688031215613e9f578283fd5b85359450602086013567ffffffffffffffff80821115613ebd578485fd5b613ec989838a01613812565b90965094506040880135915080821115613ee1578283fd5b50613eee88828901613812565b969995985093965092949392505050565b600080600060a08486031215613f13578081fd5b83359250602084013567ffffffffffffffff811115613f30578182fd5b613f3c86828701613859565b925050613f4c85604086016138aa565b90509250925092565b60008060008060808587031215613f6a578182fd5b5050823594602084013594506040840135936060013592509050565b60008151808452613f9e8160208601602086016143b9565b601f01601f19169290920160200192915050565b81835281816020850137506000828201602090810191909152601f909101601f19169091010190565b6bffffffffffffffffffffffff198460601b168152600083516140058160148501602088016143b9565b60149201918201929092526034019392505050565b8183823760009101908152919050565b8385823760609290921b6bffffffffffffffffffffffff1916919092019081526014810191909152603401919050565b8486823760008582018181528486823792151560f81b9290930191825250600101949350505050565b888a82376000898201818152888a823788018781528587602083013785016020810182815284868237509092016020019182525098975050505050505050565b8385823790920190815260609190911b6bffffffffffffffffffffffff19166020820152603401919050565b600082516141018184602087016143b9565b9190910192915050565b6001600160a01b038416815260a06020820152600061412d60a0830185613f86565b9050823560ff811680821461414157600080fd5b80604085015250506020830135606083015260408301356080830152949350505050565b6001600160a01b0386168152606060208201526000614188606083018688613fb2565b828103604084015261419b818587613fb2565b98975050505050505050565b6001600160a01b038816815260e0602082015260006141c960e0830189613f86565b87604084015282810360608401526141e18188613f86565b6080840196909652505060a0810192909252151560c090910152949350505050565b602081526000613a2f602083018486613fb2565b60408152600061422b604083018587613fb2565b90508215156020830152949350505050565b6020815260006132e76020830184613f86565b6080815260006142636080830187613f86565b6001600160a01b039590951660208301525060408101929092521515606090910152919050565b60c08152600061429d60c0830189613f86565b82810360208401526142af8189613f86565b9150506001600160a01b038616604083015284606083015283608083015282151560a0830152979650505050505050565b60405160a0810167ffffffffffffffff8111828210171561430357614303614434565b60405290565b604051601f8201601f1916810167ffffffffffffffff8111828210171561433257614332614434565b604052919050565b600067ffffffffffffffff82111561435457614354614434565b50601f01601f191660200190565b600082198211156143755761437561441e565b500190565b60008261439557634e487b7160e01b81526012600452602481fd5b500490565b60008160001904831182151516156143b4576143b461441e565b500290565b60005b838110156143d45781810151838201526020016143bc565b838111156143e3576000848401525b50505050565b600181811c908216806143fd57607f821691505b602082108114156138bb57634e487b7160e01b600052602260045260246000fd5b634e487b7160e01b600052601160045260246000fd5b634e487b7160e01b600052604160045260246000fd5b6001600160a01b0381168114612b5c57600080fd5b8015158114612b5c57600080fdfe4f776e61626c653a2063616c6c6572206973206e6f7420746865206f776e6572a2646970667358221220f094f90af36be2b62c501088f5ad1d49c815492e6d600e8dceb683198bf60a6e64736f6c63430008040033","abi":[{"inputs":[{"internalType":"address payable","name":"_spaceRiderTokenAddress","type":"address"},{"internalType":"address","name":"_spaceRidersPlanetNFT","type":"address"},{"internalType":"address payable","name":"_feeWallet","type":"address"},{"internalType":"address","name":"_backendAddress","type":"address"},{"internalType":"address","name":"_spaceRidersRewardPoolAddress","type":"address"}],"stateMutability":"nonpayable","type":"constructor"},{"anonymous":false,"inputs":[{"indexed":true,"internalType":"address","name":"previousOwner","type":"address"},{"indexed":true,"internalType":"address","name":"newOwner","type":"address"}],"name":"OwnershipTransferred","type":"event"},{"inputs":[{"internalType":"uint256","name":"_amount","type":"uint256"},{"internalType":"string","name":"_claimReq","type":"string"},{"components":[{"internalType":"uint8","name":"v","type":"uint8"},{"internalType":"bytes32","name":"r","type":"bytes32"},{"internalType":"bytes32","name":"s","type":"bytes32"}],"internalType":"struct OnlyBackend.signatureData","name":"sD","type":"tuple"}],"name":"addPurchasingPower","outputs":[],"stateMutability":"payable","type":"function"},{"inputs":[],"name":"backendAddress","outputs":[{"internalType":"address","name":"","type":"address"}],"stateMutability":"view","type":"function"},{"inputs":[],"name":"bnbFee","outputs":[{"internalType":"uint256","name":"","type":"uint256"}],"stateMutability":"view","type":"function"},{"inputs":[{"internalType":"string","name":"planetGuid","type":"string"},{"internalType":"uint256","name":"planetPrice","type":"uint256"},{"components":[{"internalType":"uint8","name":"v","type":"uint8"},{"internalType":"bytes32","name":"r","type":"bytes32"},{"internalType":"bytes32","name":"s","type":"bytes32"}],"internalType":"struct OnlyBackend.signatureData","name":"sD","type":"tuple"},{"internalType":"string","name":"tokenURI","type":"string"}],"name":"buyPlanet","outputs":[],"stateMutability":"payable","type":"function"},{"inputs":[{"internalType":"uint256","name":"newBnbFee","type":"uint256"}],"name":"changeBnbFee","outputs":[],"stateMutability":"nonpayable","type":"function"},{"inputs":[{"internalType":"string","name":"","type":"string"}],"name":"claimedExtraPurchasingPower","outputs":[{"internalType":"bool","name":"","type":"bool"}],"stateMutability":"view","type":"function"},{"inputs":[{"internalType":"string","name":"","type":"string"}],"name":"conversions","outputs":[{"internalType":"string","name":"guid","type":"string"},{"internalType":"address","name":"owner","type":"address"},{"internalType":"uint256","name":"tokenAmount","type":"uint256"},{"internalType":"bool","name":"exists","type":"bool"}],"stateMutability":"view","type":"function"},{"inputs":[{"components":[{"internalType":"uint8","name":"v","type":"uint8"},{"internalType":"bytes32","name":"r","type":"bytes32"},{"internalType":"bytes32","name":"s","type":"bytes32"}],"internalType":"struct OnlyBackend.signatureData","name":"sD","type":"tuple"},{"internalType":"string","name":"id","type":"string"},{"internalType":"uint256","name":"tokens","type":"uint256"},{"internalType":"address","name":"forAddress","type":"address"}],"name":"convertFromPrimaryResources","outputs":[],"stateMutability":"nonpayable","type":"function"},{"inputs":[],"name":"enablePlanetFusion","outputs":[{"internalType":"bool","name":"","type":"bool"}],"stateMutability":"view","type":"function"},{"inputs":[],"name":"enablePlanetPurchases","outputs":[{"internalType":"bool","name":"","type":"bool"}],"stateMutability":"view","type":"function"},{"inputs":[],"name":"enablePlanetTrading","outputs":[{"internalType":"bool","name":"","type":"bool"}],"stateMutability":"view","type":"function"},{"inputs":[{"internalType":"uint256","name":"amount","type":"uint256"},{"internalType":"string","name":"guid","type":"string"},{"internalType":"string","name":"planetId","type":"string"}],"name":"energyDeposit","outputs":[],"stateMutability":"payable","type":"function"},{"inputs":[{"internalType":"string","name":"","type":"string"}],"name":"energyDeposits","outputs":[{"internalType":"string","name":"guid","type":"string"},{"internalType":"string","name":"planetId","type":"string"},{"internalType":"address","name":"owner","type":"address"},{"internalType":"uint256","name":"createdTimestamp","type":"uint256"},{"internalType":"uint256","name":"amount","type":"uint256"},{"internalType":"bool","name":"exists","type":"bool"}],"stateMutability":"view","type":"function"},{"inputs":[{"internalType":"string","name":"","type":"string"},{"internalType":"uint256","name":"","type":"uint256"}],"name":"energyDepositsMap","outputs":[{"internalType":"string","name":"","type":"string"}],"stateMutability":"view","type":"function"},{"inputs":[{"components":[{"internalType":"uint8","name":"v","type":"uint8"},{"internalType":"bytes32","name":"r","type":"bytes32"},{"internalType":"bytes32","name":"s","type":"bytes32"}],"internalType":"struct OnlyBackend.signatureData","name":"sD","type":"tuple"},{"internalType":"string","name":"burnPlanetGuid1","type":"string"},{"internalType":"string","name":"burnPlanetGuid2","type":"string"},{"internalType":"uint256","name":"tokenPrice","type":"uint256"},{"internalType":"string","name":"newPlanetGuid","type":"string"},{"internalType":"string","name":"newTokenURI","type":"string"}],"name":"fusionPlanet","outputs":[],"stateMutability":"payable","type":"function"},{"inputs":[{"internalType":"string","name":"guid","type":"string"}],"name":"getEnergyDepositsMapCount","outputs":[{"internalType":"uint256","name":"","type":"uint256"}],"stateMutability":"view","type":"function"},{"inputs":[],"name":"owner","outputs":[{"internalType":"address","name":"","type":"address"}],"stateMutability":"view","type":"function"},{"inputs":[],"name":"renounceOwnership","outputs":[],"stateMutability":"nonpayable","type":"function"},{"inputs":[{"internalType":"address","name":"backendSignerAddress","type":"address"}],"name":"setBackendAddress","outputs":[],"stateMutability":"nonpayable","type":"function"},{"inputs":[{"internalType":"bool","name":"enabled","type":"bool"}],"name":"setBenefitStakingEnabled","outputs":[],"stateMutability":"nonpayable","type":"function"},{"inputs":[{"internalType":"uint256","name":"newFee","type":"uint256"}],"name":"setBenefitStakingPerformanceFeeBP","outputs":[],"stateMutability":"nonpayable","type":"function"},{"inputs":[{"internalType":"address payable","name":"newFeeWallet","type":"address"}],"name":"setFeeWallet","outputs":[],"stateMutability":"nonpayable","type":"function"},{"inputs":[{"internalType":"uint256","name":"newLp","type":"uint256"},{"internalType":"uint256","name":"newRp","type":"uint256"},{"internalType":"uint256","name":"newT","type":"uint256"},{"internalType":"uint256","name":"newB","type":"uint256"}],"name":"setIndirectTax","outputs":[],"stateMutability":"nonpayable","type":"function"},{"inputs":[{"components":[{"internalType":"uint8","name":"v","type":"uint8"},{"internalType":"bytes32","name":"r","type":"bytes32"},{"internalType":"bytes32","name":"s","type":"bytes32"}],"internalType":"struct OnlyBackend.signatureData","name":"sD","type":"tuple"},{"internalType":"string","name":"planetId","type":"string"},{"internalType":"uint256","name":"amount","type":"uint256"},{"internalType":"string","name":"tier","type":"string"},{"internalType":"uint256","name":"timeRelease","type":"uint256"}],"name":"stakingRequestV2","outputs":[],"stateMutability":"payable","type":"function"},{"inputs":[{"internalType":"bool","name":"enable","type":"bool"}],"name":"toggleEnergyDeposits","outputs":[],"stateMutability":"nonpayable","type":"function"},{"inputs":[{"internalType":"bool","name":"enable","type":"bool"}],"name":"togglePlanetFusion","outputs":[],"stateMutability":"nonpayable","type":"function"},{"inputs":[{"internalType":"bool","name":"enable","type":"bool"}],"name":"togglePlanetPurchases","outputs":[],"stateMutability":"nonpayable","type":"function"},{"inputs":[{"components":[{"internalType":"uint8","name":"v","type":"uint8"},{"internalType":"bytes32","name":"r","type":"bytes32"},{"internalType":"bytes32","name":"s","type":"bytes32"}],"internalType":"struct OnlyBackend.signatureData","name":"sD","type":"tuple"},{"internalType":"string","name":"requestId","type":"string"},{"internalType":"string","name":"planetGuid","type":"string"},{"internalType":"bool","name":"trading","type":"bool"}],"name":"togglePlanetTrading","outputs":[],"stateMutability":"payable","type":"function"},{"inputs":[{"internalType":"bool","name":"enable","type":"bool"}],"name":"togglePlanetTrading","outputs":[],"stateMutability":"nonpayable","type":"function"},{"inputs":[{"internalType":"string","name":"","type":"string"}],"name":"togglePlanetTradingRequests","outputs":[{"internalType":"bool","name":"","type":"bool"}],"stateMutability":"view","type":"function"},{"inputs":[{"internalType":"address","name":"newOwner","type":"address"}],"name":"transferOwnership","outputs":[],"stateMutability":"nonpayable","type":"function"},{"inputs":[{"internalType":"string","name":"planetId","type":"string"}],"name":"unstakingRequestV2","outputs":[],"stateMutability":"payable","type":"function"},{"inputs":[{"internalType":"string","name":"","type":"string"}],"name":"userStaking","outputs":[{"internalType":"address","name":"owner","type":"address"},{"internalType":"string","name":"planetId","type":"string"},{"internalType":"uint256","name":"amount","type":"uint256"},{"internalType":"string","name":"tier","type":"string"},{"internalType":"uint256","name":"time","type":"uint256"},{"internalType":"uint256","name":"timeRelease","type":"uint256"},{"internalType":"bool","name":"staked","type":"bool"}],"stateMutability":"view","type":"function"},{"inputs":[{"internalType":"string","name":"","type":"string"}],"name":"userStakingLpInfo","outputs":[{"internalType":"address","name":"user","type":"address"},{"internalType":"uint256","name":"lpAmount","type":"uint256"},{"internalType":"uint256","name":"tradeableBalance","type":"uint256"},{"internalType":"uint256","name":"playableBalance","type":"uint256"},{"internalType":"address","name":"router","type":"address"},{"internalType":"address","name":"pair","type":"address"}],"stateMutability":"view","type":"function"}]}