{"address":"0x29036e660Fce164824b232FB0b717D8a002087d1","bytecode":"0x6080604052620000126012600a62000274565b6200001f90600a62000342565b60075560088054600160ff19909116811790915561012c600955600b805461ffff19166101011790556002600c819055600d55600e553480156200006257600080fd5b506040516200475a3803806200475a8339810160408190526200008591620001d9565b62000090336200016c565b600380546001600160a01b038085166001600160a01b031992831617909255600480549284169290911691909117905533600090815260016020526040812080546a52b7d2dcc80cd2e40000009290620000ec90849062000210565b90915550506040516a52b7d2dcc80cd2e4000000815233906000907fddf252ad1be2c89b69c2b068fc378daa952ba7f163c4a11628f55a4df523b3ef9060200160405180910390a35050306000908152601060205260408082208054600160ff19918216811790925533845291909220805490911690911790556200037a565b600080546001600160a01b038381166001600160a01b0319831681178455604051919092169283917f8be0079c531659141344cd1fd0a4f28419497f9722a3daafe3b4186f6b6457e09190a35050565b80516001600160a01b0381168114620001d457600080fd5b919050565b60008060408385031215620001ec578182fd5b620001f783620001bc565b91506200020760208401620001bc565b90509250929050565b6000821982111562000226576200022662000364565b500190565b600181815b808511156200026c57816000190482111562000250576200025062000364565b808516156200025e57918102915b93841c939080029062000230565b509250929050565b60006200028560ff8416836200028c565b9392505050565b6000826200029d575060016200033c565b81620002ac575060006200033c565b8160018114620002c55760028114620002d057620002f0565b60019150506200033c565b60ff841115620002e457620002e462000364565b50506001821b6200033c565b5060208310610133831016604e8410600b841016171562000315575081810a6200033c565b6200032183836200022b565b806000190482111562000338576200033862000364565b0290505b92915050565b60008160001904831182151516156200035f576200035f62000364565b500290565b634e487b7160e01b600052601160045260246000fd5b6143d0806200038a6000396000f3fe60806040526004361061039b5760003560e01c806376a90231116101dc578063c957cba411610102578063e3bcccb4116100a0578063f25558cc1161006f578063f25558cc14610bd9578063f2fde38b14610bf8578063f683aaec14610c18578063f9ef569014610c3857600080fd5b8063e3bcccb414610b4f578063ecb030c214610b7f578063ed5792d714610b9f578063edf9d25e14610bb957600080fd5b8063d8248358116100dc578063d824835814610ab9578063d9703c0414610acf578063da1cdbe414610ae9578063dd62ed3e14610b0957600080fd5b8063c957cba414610a49578063ccc4573014610a83578063d337a7c114610aa357600080fd5b8063a35ea7df1161017a578063adc5a97211610149578063adc5a972146109b9578063be24af9a146109e9578063c34994b114610a09578063c35e2ceb14610a2957600080fd5b8063a35ea7df14610923578063a457c2d714610943578063a9059cbb14610963578063ac6c28021461098357600080fd5b80638efd5e3b116101b65780638efd5e3b14610894578063910b38d2146108b457806395d89b41146108d4578063999a7ee71461090357600080fd5b806376a90231146108365780637ec2cb51146108565780638da5cb5b1461087657600080fd5b806322a9385b116102c15780634b0ee02a1161025f578063695dadd41161022e578063695dadd4146107b457806370a08231146107d4578063715018a6146107f457806374798d6b1461080957600080fd5b80634b0ee02a1461073457806356f952ee14610754578063649c0443146107745780636648f8021461079457600080fd5b80632fa107ae1161029b5780632fa107ae1461065f578063313ce5671461067257806339038f2a14610699578063395093511461071457600080fd5b806322a9385b146105ff57806323b872dd1461061f57806326ed367f1461063f57600080fd5b806314337135116103395780631db2bf2e116103085780631db2bf2e1461058f5780631de3b450146105af5780631fb0383e146105c5578063220f6696146105e557600080fd5b8063143371351461051a57806318160ddd1461053a5780631a6ea8e1146105595780631d4eaead1461057957600080fd5b806306fdde031161037557806306fdde0314610450578063095ea7b3146104945780630a044d96146104b45780630e6a9f8c146104d657600080fd5b806303e870ca146103a757806303fd2a45146103fa57806306c933d81461041057600080fd5b366103a257005b600080fd5b3480156103b357600080fd5b506103dd6103c2366004613c3c565b6015602052600090815260409020546001600160a01b031681565b6040516001600160a01b0390911681526020015b60405180910390f35b34801561040657600080fd5b506103dd61dead81565b34801561041c57600080fd5b5061044061042b366004613c3c565b60106020526000908152604090205460ff1681565b60405190151581526020016103f1565b34801561045c57600080fd5b506104876040518060400160405280600b81526020016a537061636552696465727360a81b81525081565b6040516103f19190614022565b3480156104a057600080fd5b506104406104af366004613db4565b610c4e565b3480156104c057600080fd5b506104d46104cf366004613d19565b610c65565b005b3480156104e257600080fd5b5061050c6104f1366004613c3c565b6001600160a01b031660009081526001602052604090205490565b6040519081526020016103f1565b34801561052657600080fd5b506104d4610535366004613c74565b611146565b34801561054657600080fd5b5061050c6a52b7d2dcc80cd2e400000081565b34801561056557600080fd5b506006546103dd906001600160a01b031681565b34801561058557600080fd5b5061050c600d5481565b34801561059b57600080fd5b506016546103dd906001600160a01b031681565b3480156105bb57600080fd5b5061050c600c5481565b3480156105d157600080fd5b506104d46105e0366004613ef3565b611290565b3480156105f157600080fd5b50600f546104409060ff1681565b34801561060b57600080fd5b506104d461061a366004613c3c565b611320565b34801561062b57600080fd5b5061044061063a366004613cac565b6113a2565b34801561064b57600080fd5b506104d461065a366004613cec565b61144c565b6104d461066d366004613ddf565b6114bf565b34801561067e57600080fd5b50610687601281565b60405160ff90911681526020016103f1565b3480156106a557600080fd5b506106b96106b4366004613cac565b6116bc565b6040516103f19190600060c0820190506001600160a01b038084511683526020840151602084015260408401516040840152606084015160608401528060808501511660808401528060a08501511660a08401525092915050565b34801561072057600080fd5b5061044061072f366004613db4565b611cb2565b34801561074057600080fd5b5061050c61074f366004613c3c565b611cee565b34801561076057600080fd5b5061050c61076f366004613c3c565b611d18565b34801561078057600080fd5b506104d461078f366004613c3c565b611d3e565b3480156107a057600080fd5b506104d46107af366004613c3c565b611da8565b3480156107c057600080fd5b506104d46107cf366004613ef3565b611e12565b3480156107e057600080fd5b5061050c6107ef366004613c3c565b611e5f565b34801561080057600080fd5b506104d4611ed8565b34801561081557600080fd5b5061050c610824366004613c3c565b600a6020526000908152604090205481565b34801561084257600080fd5b506004546103dd906001600160a01b031681565b34801561086257600080fd5b506104d4610871366004613ebb565b611f2c565b34801561088257600080fd5b506000546001600160a01b03166103dd565b3480156108a057600080fd5b506104d46108af366004613ef3565b611f8e565b3480156108c057600080fd5b506104d46108cf366004613db4565b612033565b3480156108e057600080fd5b506104876040518060400160405280600381526020016229a82960e91b81525081565b34801561090f57600080fd5b506103dd61091e366004613ef3565b6120be565b34801561092f57600080fd5b506017546103dd906001600160a01b031681565b34801561094f57600080fd5b5061044061095e366004613db4565b6120e8565b34801561096f57600080fd5b5061044061097e366004613db4565b612181565b34801561098f57600080fd5b506103dd61099e366004613c3c565b6014602052600090815260409020546001600160a01b031681565b3480156109c557600080fd5b506104406109d4366004613c3c565b60136020526000908152604090205460ff1681565b3480156109f557600080fd5b506104d4610a04366004613ef3565b61218e565b348015610a1557600080fd5b5061050c610a24366004613c74565b61222c565b348015610a3557600080fd5b506005546103dd906001600160a01b031681565b348015610a5557600080fd5b5061050c610a64366004613c3c565b6001600160a01b03166000908152600160208190526040909120015490565b348015610a8f57600080fd5b506104d4610a9e366004613ebb565b6124b7565b348015610aaf57600080fd5b5061050c60095481565b348015610ac557600080fd5b5061050c60075481565b348015610adb57600080fd5b506008546104409060ff1681565b348015610af557600080fd5b506104d4610b04366004613ebb565b612512565b348015610b1557600080fd5b5061050c610b24366004613c74565b6001600160a01b03918216600090815260026020908152604080832093909416825291909152205490565b348015610b5b57600080fd5b50610440610b6a366004613c3c565b60116020526000908152604090205460ff1681565b348015610b8b57600080fd5b506104d4610b9a366004613ef3565b61256d565b348015610bab57600080fd5b50600b546104409060ff1681565b348015610bc557600080fd5b506104d4610bd4366004613c3c565b6125fb565b348015610be557600080fd5b50600b5461044090610100900460ff1681565b348015610c0457600080fd5b506104d4610c13366004613c3c565b612665565b348015610c2457600080fd5b506003546103dd906001600160a01b031681565b348015610c4457600080fd5b5061050c600e5481565b6000610c5b33848461271e565b5060015b92915050565b600f805460ff19166001179055600554336001600160a01b0390911614610cd35760405162461bcd60e51b815260206004820152601d60248201527f43414c4c45523a204f6e6c79205370722047616d6520616c6c6f77656400000060448201526064015b60405180910390fd5b60a0810151602082015160405163095ea7b360e01b815284926001600160a01b03169163095ea7b391610d1e9185916004016001600160a01b03929092168252602082015260400190565b602060405180830381600087803b158015610d3857600080fd5b505af1158015610d4c573d6000803e3d6000fd5b505050506040513d601f19601f82011682018060405250810190610d709190613ed7565b50600480546020840151601654604051635d5155ef60e11b815230948101949094526001600160a01b03928316602485015260448401919091526000606484018190526084840181905290821660a48401524260c484015291829184169063baa2abde9060e4016040805180830381600087803b158015610df057600080fd5b505af1158015610e04573d6000803e3d6000fd5b505050506040513d601f19601f82011682018060405250810190610e289190613f23565b6016546040516327a9b11f60e11b81523060048201529294509092506001600160a01b031690634f53623e90602401600060405180830381600087803b158015610e7157600080fd5b505af1158015610e85573d6000803e3d6000fd5b5050601654600480546040516327a9b11f60e11b81526001600160a01b03918216928101929092529091169250634f53623e9150602401600060405180830381600087803b158015610ed657600080fd5b505af1158015610eea573d6000803e3d6000fd5b505050506000610ef930611e5f565b9050610f058483612843565b6000610f1a82610f1430611e5f565b90612a45565b90506000610f288286614157565b9050610f5a6040518060400160405280600e81526020016d746f74616c5370724261636b202560901b81525082612a58565b600080610f67838a612aa1565b91509150610faa6040518060400160405280601581526020017f6e6577547261646561626c6542616c616e63652025000000000000000000000081525083612a58565b610fe96040518060400160405280601481526020017f6e6577506c617961626c6542616c616e6365202500000000000000000000000081525082612a58565b6110176040518060600160405280603a8152602001614321603a9139846110108486614157565b1115612dd4565b826110228284614157565b111561107c5760405162461bcd60e51b815260206004820152602360248201527f496620796f752073656520746869732c206974732070726f6261626c7920612060448201526262756760e81b6064820152608401610cca565b306000908152600160205260408120805485929061109b908490614290565b909155505088516001600160a01b0316600090815260016020526040812080548492906110c9908490614157565b909155505088516001600160a01b0316600090815260016020819052604082200180548392906110fa908490614157565b909155505088516040518381526001600160a01b0390911690309060008051602061437b8339815191529060200160405180910390a35050600f805460ff191690555050505050505050565b6000546001600160a01b0316331461118e5760405162461bcd60e51b8152602060048201819052602482015260008051602061435b8339815191526044820152606401610cca565b6001600160a01b03821660009081526011602052604090205460ff16156111e45760405162461bcd60e51b815260206004820152600a6024820152694445582065786973747360b01b6044820152606401610cca565b6012805460018181019092557fbb8a6a4669ba250d26cd7a459eca9d215f8307e33aebe50379bc5a3617ec34440180546001600160a01b039485166001600160a01b031991821681179092556000828152601160209081526040808320805460ff19908116881790915596909716808352601382528783208054909716909517909555828152601585528581208054831685179055928352601490935292902080549091169091179055565b6000546001600160a01b031633146112d85760405162461bcd60e51b8152602060048201819052602482015260008051602061435b8339815191526044820152606401610cca565b600581111561131b5760405162461bcd60e51b815260206004820152600f60248201526e4d6178204255524e2054415820352560881b6044820152606401610cca565b600d55565b6000546001600160a01b031633146113685760405162461bcd60e51b8152602060048201819052602482015260008051602061435b8339815191526044820152606401610cca565b601680546001600160a01b039092166001600160a01b0319909216821790556000908152601060205260409020805460ff19166001179055565b60006113af848484612e19565b6001600160a01b0384166000908152600260209081526040808320338452909152902054828110156114345760405162461bcd60e51b815260206004820152602860248201527f45524332303a207472616e7366657220616d6f756e74206578636565647320616044820152676c6c6f77616e636560c01b6064820152608401610cca565b611441853385840361271e565b506001949350505050565b6000546001600160a01b031633146114945760405162461bcd60e51b8152602060048201819052602482015260008051602061435b8339815191526044820152606401610cca565b6001600160a01b03919091166000908152601060205260409020805460ff1916911515919091179055565b600f805460ff191660011790556004546001600160a01b0316836114e43330866130f4565b6040516323b872dd60e01b8152336004820152306024820152604481018490526001600160a01b038316906323b872dd90606401602060405180830381600087803b15801561153257600080fd5b505af1158015611546573d6000803e3d6000fd5b505050506040513d601f19601f8201168201806040525081019061156a9190613ed7565b5061157630868661271e565b60405163095ea7b360e01b81526001600160a01b0382811660048301526024820185905283169063095ea7b390604401602060405180830381600087803b1580156115c057600080fd5b505af11580156115d4573d6000803e3d6000fd5b505050506040513d601f19601f820116820180604052508101906115f89190613ed7565b506004805460405162e8e33760e81b815230928101929092526001600160a01b039081166024830152604482018690526064820185905260006084830181905260a48301523360c48301524260e483015282169063e8e337009061010401606060405180830381600087803b15801561167057600080fd5b505af1158015611684573d6000803e3d6000fd5b505050506040513d601f19601f820116820180604052508101906116a89190613f46565b5050600f805460ff19169055505050505050565b6040805160c081018252600080825260208201819052918101829052606081018290526080810182905260a0810191909152600f805460ff19166001179055600554336001600160a01b03909116146117575760405162461bcd60e51b815260206004820152601d60248201527f43414c4c45523a204f6e6c79205370722047616d6520616c6c6f7765640000006044820152606401610cca565b61176084611cee565b8211156117a25760405162461bcd60e51b815260206004820152601060248201526f4e6f7420656e6f7567682066756e647360801b6044820152606401610cca565b600480546040805163c45a015560e01b8152905186936001600160a01b03938416936000939086169263c45a015592828101926020929190829003018186803b1580156117ee57600080fd5b505afa158015611802573d6000803e3d6000fd5b505050506040513d601f19601f820116820180604052508101906118269190613c58565b90506000808661184b8a6001600160a01b031660009081526001602052604090205490565b1061185857869150611880565b6001600160a01b038916600090815260016020526040902054915061187d8288614290565b90505b6001600160a01b038916600090815260016020819052604082200180548392906118ab908490614290565b90915550506001600160a01b038916600090815260016020526040812080548492906118d8908490614290565b909155506118e890508183614157565b3060009081526001602052604081208054909190611907908490614157565b909155505060405187815230906001600160a01b038b169060008051602061437b8339815191529060200160405180910390a360006119478860026131ac565b905061195430878a61271e565b6040516370a0823160e01b81523060048201526000906001600160a01b038716906370a082319060240160206040518083038186803b15801561199657600080fd5b505afa1580156119aa573d6000803e3d6000fd5b505050506040513d601f19601f820116820180604052508101906119ce9190613f0b565b90506119da87836131b8565b6040516370a0823160e01b8152306004820152600090611a5b9083906001600160a01b038a16906370a08231906024015b60206040518083038186803b158015611a2357600080fd5b505afa158015611a37573d6000803e3d6000fd5b505050506040513d601f19601f82011682018060405250810190610f149190613f0b565b60405163095ea7b360e01b81526001600160a01b038a81166004830152602482018390529192509088169063095ea7b390604401602060405180830381600087803b158015611aa957600080fd5b505af1158015611abd573d6000803e3d6000fd5b505050506040513d601f19601f82011682018060405250810190611ae19190613ed7565b50611aed30898c61271e565b6004805460055460405162e8e33760e81b815230938101939093526001600160a01b039182166024840152604483018690526064830184905260006084840181905260a4840181905290821660c48401524260e484015291908a169063e8e337009061010401606060405180830381600087803b158015611b6d57600080fd5b505af1158015611b81573d6000803e3d6000fd5b505050506040513d601f19601f82011682018060405250810190611ba59190613f46565b925050506040518060c001604052808e6001600160a01b031681526020018281526020018781526020018681526020018a6001600160a01b03168152602001886001600160a01b031663e6a4390530600460009054906101000a90046001600160a01b03166040518363ffffffff1660e01b8152600401611c3c9291906001600160a01b0392831681529116602082015260400190565b60206040518083038186803b158015611c5457600080fd5b505afa158015611c68573d6000803e3d6000fd5b505050506040513d601f19601f82011682018060405250810190611c8c9190613c58565b6001600160a01b03169052600f805460ff191690559d9c50505050505050505050505050565b3360008181526002602090815260408083206001600160a01b03871684529091528120549091610c5b918590611ce9908690614157565b61271e565b6001600160a01b03811660009081526001602081905260408220908101549054610c5f9190614157565b6001600160a01b0381166000908152600a6020526040812054600954610c5f9190614157565b6000546001600160a01b03163314611d865760405162461bcd60e51b8152602060048201819052602482015260008051602061435b8339815191526044820152606401610cca565b600680546001600160a01b0319166001600160a01b0392909216919091179055565b6000546001600160a01b03163314611df05760405162461bcd60e51b8152602060048201819052602482015260008051602061435b8339815191526044820152606401610cca565b600580546001600160a01b0319166001600160a01b0392909216919091179055565b6000546001600160a01b03163314611e5a5760405162461bcd60e51b8152602060048201819052602482015260008051602061435b8339815191526044820152606401610cca565b600955565b3360009081526011602052604081205460ff1680611e8c57503360009081526010602052604090205460ff165b15611ebc576001600160a01b0382166000908152600160208190526040909120908101549054610c5f9190614157565b506001600160a01b031660009081526001602052604090205490565b6000546001600160a01b03163314611f205760405162461bcd60e51b8152602060048201819052602482015260008051602061435b8339815191526044820152606401610cca565b611f2a600061333c565b565b6000546001600160a01b03163314611f745760405162461bcd60e51b8152602060048201819052602482015260008051602061435b8339815191526044820152606401610cca565b600b80549115156101000261ff0019909216919091179055565b6000546001600160a01b03163314611fd65760405162461bcd60e51b8152602060048201819052602482015260008051602061435b8339815191526044820152606401610cca565b611fe26012600a6141c6565b611fed90600a614271565b81101561202e5760405162461bcd60e51b815260206004820152600f60248201526e026b4b7103634b897101f1e9018981608d1b6044820152606401610cca565b600755565b6005546001600160a01b0316331461208d5760405162461bcd60e51b815260206004820152601d60248201527f43414c4c45523a204f6e6c79205370722047616d6520616c6c6f7765640000006044820152606401610cca565b6001600160a01b0382166000908152600a6020526040812080548392906120b5908490614157565b90915550505050565b601281815481106120ce57600080fd5b6000918252602090912001546001600160a01b0316905081565b3360009081526002602090815260408083206001600160a01b03861684529091528120548281101561216a5760405162461bcd60e51b815260206004820152602560248201527f45524332303a2064656372656173656420616c6c6f77616e63652062656c6f77604482015264207a65726f60d81b6064820152608401610cca565b612177338585840361271e565b5060019392505050565b6000610c5b338484612e19565b6000546001600160a01b031633146121d65760405162461bcd60e51b8152602060048201819052602482015260008051602061435b8339815191526044820152606401610cca565b60058111156122275760405162461bcd60e51b815260206004820152601660248201527f4d61782052455741524420504f4f4c20544158203525000000000000000000006044820152606401610cca565b600e55565b604080516002808252606082018352600092859284929091602083019080368337019050509050308160008151811061227557634e487b7160e01b600052603260045260246000fd5b6001600160a01b0392831660209182029290920101526004548251911690829060019081106122b457634e487b7160e01b600052603260045260246000fd5b6001600160a01b03928316602091820292909201015260405163d06ca61f60e01b815260009184169063d06ca61f906122fb90670de0b6b3a7640000908690600401614001565b60006040518083038186803b15801561231357600080fd5b505afa158015612327573d6000803e3d6000fd5b505050506040513d6000823e601f3d908101601f1916820160405261234f9190810190613e13565b60018151811061236f57634e487b7160e01b600052603260045260246000fd5b60209081029190910101516003546040516370a0823160e01b81526001600160a01b038881166004830152929350600092909116906370a082319060240160206040518083038186803b1580156123c557600080fd5b505afa1580156123d9573d6000803e3d6000fd5b505050506040513d601f19601f820116820180604052508101906123fd9190613f0b565b9050600181101561240c575060015b6001600160a01b0386166000908152600a60205260408120546009546124329190614157565b9050600083838302670de0b6b3a7640000028161245f57634e487b7160e01b600052601260045260246000fd5b04905060006124706012600a6141c6565b61247a9083614271565b9050806124868a611cee565b1115612494575060006124aa565b61249d89611cee565b6124a79082614290565b90505b9998505050505050505050565b6000546001600160a01b031633146124ff5760405162461bcd60e51b8152602060048201819052602482015260008051602061435b8339815191526044820152606401610cca565b6008805460ff1916911515919091179055565b6000546001600160a01b0316331461255a5760405162461bcd60e51b8152602060048201819052602482015260008051602061435b8339815191526044820152606401610cca565b600b805460ff1916911515919091179055565b6000546001600160a01b031633146125b55760405162461bcd60e51b8152602060048201819052602482015260008051602061435b8339815191526044820152606401610cca565b60058111156125f65760405162461bcd60e51b815260206004820152600d60248201526c4d6178204c502054415820352560981b6044820152606401610cca565b600c55565b6000546001600160a01b031633146126435760405162461bcd60e51b8152602060048201819052602482015260008051602061435b8339815191526044820152606401610cca565b601780546001600160a01b0319166001600160a01b0392909216919091179055565b6000546001600160a01b031633146126ad5760405162461bcd60e51b8152602060048201819052602482015260008051602061435b8339815191526044820152606401610cca565b6001600160a01b0381166127125760405162461bcd60e51b815260206004820152602660248201527f4f776e61626c653a206e6577206f776e657220697320746865207a65726f206160448201526564647265737360d01b6064820152608401610cca565b61271b8161333c565b50565b6001600160a01b0383166127805760405162461bcd60e51b8152602060048201526024808201527f45524332303a20617070726f76652066726f6d20746865207a65726f206164646044820152637265737360e01b6064820152608401610cca565b6001600160a01b0382166127e15760405162461bcd60e51b815260206004820152602260248201527f45524332303a20617070726f766520746f20746865207a65726f206164647265604482015261737360f01b6064820152608401610cca565b6001600160a01b0383811660008181526002602090815260408083209487168084529482529182902085905590518481527f8c5be1e5ebec7d5bd14f71427d1e84f3dd0314c0f7b2291e5b200ac8c7c3b92591015b60405180910390a3505050565b6004546040805160028082526060820183526001600160a01b0390931692600092602083019080368337505060045482519293506001600160a01b0316918391506000906128a157634e487b7160e01b600052603260045260246000fd5b60200260200101906001600160a01b031690816001600160a01b03168152505030816001815181106128e357634e487b7160e01b600052603260045260246000fd5b6001600160a01b03928316602091820292909201015260405163095ea7b360e01b81528582166004820152602481018590529083169063095ea7b390604401602060405180830381600087803b15801561293c57600080fd5b505af1158015612950573d6000803e3d6000fd5b505050506040513d601f19601f820116820180604052508101906129749190613ed7565b50601654604051635c11d79560e01b81526001600160a01b0386811692635c11d795926129b092889260009288929091169042906004016140c1565b600060405180830381600087803b1580156129ca57600080fd5b505af11580156129de573d6000803e3d6000fd5b50506016546040516327a9b11f60e11b81523060048201526001600160a01b039091169250634f53623e9150602401600060405180830381600087803b158015612a2757600080fd5b505af1158015612a3b573d6000803e3d6000fd5b5050505050505050565b6000612a518284614290565b9392505050565b612a9d8282604051602401612a6e929190614059565b60408051601f198184030181529190526020810180516001600160e01b03166309710a9d60e41b17905261338c565b5050565b60408101516060820151600091829182612abb8284614157565b905080871415612ad057829450819350612dca565b80871015612d66576000612ae48883614290565b9050612b156040518060400160405280600d81526020016c646966666572656e636520257360981b81525082612a58565b6000612b226002836142a7565b9050612b4d604051806040016040528060078152602001667265737420257360c81b81525082612a58565b6000612b598284614157565b9050612b886040518060400160405280600b81526020016a68616c664469666620257360a81b81525082612a58565b612b938160026131ac565b9050612bc26040518060400160405280600b81526020016a68616c664469666620257360a81b81525082612a58565b858111158015612bd25750848111155b15612c9657612bfb60405180604001604052806003815260200162292a1960e91b8152506133ad565b612c058187614290565b9750612c466040518060400160405280601681526020017f6e6577547261646561626c6542616c616e63652025730000000000000000000081525089612a58565b612c508186614290565b9650612c916040518060400160405280601581526020017f6e6577506c617961626c6542616c616e6365202573000000000000000000000081525088612a58565b612d5e565b858111158015612ca557508481115b15612cfc57612cce60405180604001604052806003815260200162292a1960e91b8152506133ad565b6000612cda8683614290565b9050612ce68183614157565b612cf09088614290565b98506000975050612d5e565b8581118015612d0b5750848111155b15612d5e57612d346040518060400160405280600381526020016252543360e81b8152506133ad565b6000612d408783614290565b9050612d4c8183614157565b612d569087614290565b975060009850505b505050612dca565b80871115612dca57612d926040518060400160405280600381526020016214950d60ea1b8152506133ad565b6000612d9e8289614290565b90506000612dad8260026131ac565b9050612db98186614157565b9650612dc58185614157565b955050505b5050509250929050565b612a9d8282604051602401612dea929190614035565b60408051601f198184030181529190526020810180516001600160e01b031663c3b5563560e01b17905261338c565b6001600160a01b038316612e7d5760405162461bcd60e51b815260206004820152602560248201527f45524332303a207472616e736665722066726f6d20746865207a65726f206164604482015264647265737360d81b6064820152608401610cca565b6001600160a01b038216612edf5760405162461bcd60e51b815260206004820152602360248201527f45524332303a207472616e7366657220746f20746865207a65726f206164647260448201526265737360e81b6064820152608401610cca565b3360009081526011602052604090205460ff168015612f015750600f5460ff16155b8015612f2657506001600160a01b03831660009081526013602052604090205460ff16155b8015612f345750600b5460ff165b8015612f4a5750600754612f4730611e5f565b10155b8015612f9257506001600160a01b03831660009081526010602052604090205460ff1680612f9057506001600160a01b03821660009081526010602052604090205460ff165b155b15612fc857612fbf604051806040016040528060078152602001666c69717569666960c81b8152506133ad565b612fc8336133f0565b6001600160a01b03831660009081526013602052604090205460ff168061300757506001600160a01b03821660009081526013602052604090205460ff165b801561304f57506001600160a01b03831660009081526010602052604090205460ff168061304d57506001600160a01b03821660009081526010602052604090205460ff165b155b156130875761307760405180604001604052806002815260200161543160f01b8152506133ad565b6130828383836134fe565b505050565b6005546001600160a01b03838116911614156130ca576130c0604051806040016040528060028152602001612a1960f11b8152506133ad565b61308283826138da565b6130ed60405180604001604052806002815260200161543360f01b8152506133ad565b6130828383835b6001600160a01b0383166000908152600160205260409020548181101561312d5760405162461bcd60e51b8152600401610cca9061407b565b6001600160a01b03808516600090815260016020526040808220858503905591851681529081208054849290613164908490614157565b92505081905550826001600160a01b0316846001600160a01b031660008051602061437b8339815191528460405161319e91815260200190565b60405180910390a350505050565b6000612a51828461416f565b60408051600280825260608201835260009260208301908036833701905050905030816000815181106131fb57634e487b7160e01b600052603260045260246000fd5b6001600160a01b03928316602091820292909201015260045482519116908290600190811061323a57634e487b7160e01b600052603260045260246000fd5b60200260200101906001600160a01b031690816001600160a01b03168152505061326530848461271e565b601654604051635c11d79560e01b81526001600160a01b0385811692635c11d795926132a092879260009288929091169042906004016140c1565b600060405180830381600087803b1580156132ba57600080fd5b505af11580156132ce573d6000803e3d6000fd5b5050601654600480546040516327a9b11f60e11b81526001600160a01b03918216928101929092529091169250634f53623e9150602401600060405180830381600087803b15801561331f57600080fd5b505af1158015613333573d6000803e3d6000fd5b50505050505050565b600080546001600160a01b038381166001600160a01b0319831681178455604051919092169283917f8be0079c531659141344cd1fd0a4f28419497f9722a3daafe3b4186f6b6457e09190a35050565b80516a636f6e736f6c652e6c6f67602083016000808483855afa5050505050565b61271b816040516024016133c19190614022565b60408051601f198184030181529190526020810180516001600160e01b031663104c13eb60e21b17905261338c565b600f805460ff1916600117905560045481906001600160a01b0316600061341630611e5f565b905060006134258260026131ac565b905060006134338383612a45565b6040516370a0823160e01b81523060048201529091506000906001600160a01b038616906370a082319060240160206040518083038186803b15801561347857600080fd5b505afa15801561348c573d6000803e3d6000fd5b505050506040513d601f19601f820116820180604052508101906134b09190613f0b565b90506134bc86846131b8565b6040516370a0823160e01b81523060048201526000906134f19083906001600160a01b038916906370a0823190602401611a0b565b90506116a8878483613aa9565b6001600160a01b0383166000908152600160205260409020548111156135365760405162461bcd60e51b8152600401610cca9061407b565b6001600160a01b038316600090815260016020526040902080548290039055600b54610100900460ff161561370757600c546000906135809061357a8460646131ac565b90613c30565b9050600061359e600d5461357a6064866131ac90919063ffffffff16565b905060006135bc600e5461357a6064876131ac90919063ffffffff16565b9050806135c98385614157565b6135d39190614157565b6135dd9085614290565b30600090815260016020526040812080549296508592909190613601908490614157565b909155505061dead600090815260016020527fb34209a263f6c38fe55f099e9e70f9d67e93982480ff3234a5e0108028ad164d8054849290613644908490614157565b90915550506006546001600160a01b031660009081526001602052604081208054839290613673908490614157565b9091555050600c5460405190815230906001600160a01b0388169060008051602061437b8339815191529060200160405180910390a360405182815261dead90309060008051602061437b8339815191529060200160405180910390a36006546040518281526001600160a01b039182169188169060008051602061437b8339815191529060200160405180910390a35050505b6001600160a01b03831660009081526013602052604090205460ff16156138575760085460ff16156137ae576001600160a01b03808416600090815260146020526040812054909161375a91168461222c565b9050808211156137ac5760405162461bcd60e51b815260206004820152601e60248201527f4e6f7420686f6c64696e6720656e6f75676820506c616e6574204e66747300006044820152606401610cca565b505b60006137c0603261357a8460646131ac565b6001600160a01b0384166000908152600160205260408120805492935083929091906137ed908490614157565b90915550506001600160a01b0383166000908152600160208190526040822001805483929061381d908490614157565b92505081905550826001600160a01b0316846001600160a01b031660008051602061437b8339815191528360405161319e91815260200190565b6001600160a01b03821660009081526013602052604090205460ff1615613082576001600160a01b038216600090815260016020526040812080548392906138a0908490614157565b92505081905550816001600160a01b0316836001600160a01b031660008051602061437b8339815191528360405161283691815260200190565b6001600160a01b038216600090815260016020819052604082209081015490546139049190614157565b9050818110156139265760405162461bcd60e51b8152600401610cca9061407b565b6001600160a01b038316600090815260016020819052604090912001548290811115613a14576001600160a01b038416600090815260016020819052604090912001546139739082614290565b6001600160a01b03851660009081526001602081905260408220908101829055805492935083929091906139a8908490614290565b90915550506005546001600160a01b0316600090815260016020526040812080548592906139d7908490614157565b90915550506005546040518481526001600160a01b039182169186169060008051602061437b8339815191529060200160405180910390a3613aa3565b6001600160a01b03841660009081526001602081905260408220018054859290613a3f908490614290565b90915550506005546001600160a01b031660009081526001602052604081208054859290613a6e908490614157565b90915550506005546040518481526001600160a01b039091169060009060008051602061437b8339815191529060200161319e565b50505050565b613ab430848461271e565b6004805460405163095ea7b360e01b81526001600160a01b038681169382019390935260248101849052911690819063095ea7b390604401602060405180830381600087803b158015613b0657600080fd5b505af1158015613b1a573d6000803e3d6000fd5b505050506040513d601f19601f82011682018060405250810190613b3e9190613ed7565b506004546001600160a01b038086169163e8e33700913091168686600080613b6e6000546001600160a01b031690565b60405160e089901b7fffffffff000000000000000000000000000000000000000000000000000000001681526001600160a01b039788166004820152958716602487015260448601949094526064850192909252608484015260a483015290911660c48201524260e482015261010401606060405180830381600087803b158015613bf857600080fd5b505af1158015613c0c573d6000803e3d6000fd5b505050506040513d601f19601f820116820180604052508101906133339190613f46565b6000612a518284614271565b600060208284031215613c4d578081fd5b8135612a51816142fd565b600060208284031215613c69578081fd5b8151612a51816142fd565b60008060408385031215613c86578081fd5b8235613c91816142fd565b91506020830135613ca1816142fd565b809150509250929050565b600080600060608486031215613cc0578081fd5b8335613ccb816142fd565b92506020840135613cdb816142fd565b929592945050506040919091013590565b60008060408385031215613cfe578182fd5b8235613d09816142fd565b91506020830135613ca181614312565b60008082840360e0811215613d2c578283fd5b8335613d37816142fd565b925060c0601f1982011215613d4a578182fd5b50613d536140fd565b6020840135613d61816142fd565b8082525060408401356020820152606084013560408201526080840135606082015260a0840135613d91816142fd565b608082015260c0840135613da4816142fd565b60a0820152919491935090915050565b60008060408385031215613dc6578182fd5b8235613dd1816142fd565b946020939093013593505050565b600080600060608486031215613df3578283fd5b8335613dfe816142fd565b95602085013595506040909401359392505050565b60006020808385031215613e25578182fd5b825167ffffffffffffffff80821115613e3c578384fd5b818501915085601f830112613e4f578384fd5b815181811115613e6157613e616142e7565b8060051b9150613e72848301614126565b8181528481019084860184860187018a1015613e8c578788fd5b8795505b83861015613eae578051835260019590950194918601918601613e90565b5098975050505050505050565b600060208284031215613ecc578081fd5b8135612a5181614312565b600060208284031215613ee8578081fd5b8151612a5181614312565b600060208284031215613f04578081fd5b5035919050565b600060208284031215613f1c578081fd5b5051919050565b60008060408385031215613f35578182fd5b505080516020909101519092909150565b600080600060608486031215613f5a578081fd5b8351925060208401519150604084015190509250925092565b6000815180845260208085019450808401835b83811015613fab5781516001600160a01b031687529582019590820190600101613f86565b509495945050505050565b60008151808452815b81811015613fdb57602081850181015186830182015201613fbf565b81811115613fec5782602083870101525b50601f01601f19169290920160200192915050565b82815260406020820152600061401a6040830184613f73565b949350505050565b602081526000612a516020830184613fb6565b6040815260006140486040830185613fb6565b905082151560208301529392505050565b60408152600061406c6040830185613fb6565b90508260208301529392505050565b60208082526026908201527f45524332303a207472616e7366657220616d6f756e7420657863656564732062604082015265616c616e636560d01b606082015260800190565b85815284602082015260a0604082015260006140e060a0830186613f73565b6001600160a01b0394909416606083015250608001529392505050565b60405160c0810167ffffffffffffffff81118282101715614120576141206142e7565b60405290565b604051601f8201601f1916810167ffffffffffffffff8111828210171561414f5761414f6142e7565b604052919050565b6000821982111561416a5761416a6142bb565b500190565b60008261417e5761417e6142d1565b500490565b600181815b808511156141be5781600019048211156141a4576141a46142bb565b808516156141b157918102915b93841c9390800290614188565b509250929050565b6000612a5160ff8416836000826141df57506001610c5f565b816141ec57506000610c5f565b8160018114614202576002811461420c57614228565b6001915050610c5f565b60ff84111561421d5761421d6142bb565b50506001821b610c5f565b5060208310610133831016604e8410600b841016171561424b575081810a610c5f565b6142558383614183565b8060001904821115614269576142696142bb565b029392505050565b600081600019048311821515161561428b5761428b6142bb565b500290565b6000828210156142a2576142a26142bb565b500390565b6000826142b6576142b66142d1565b500690565b634e487b7160e01b600052601160045260246000fd5b634e487b7160e01b600052601260045260246000fd5b634e487b7160e01b600052604160045260246000fd5b6001600160a01b038116811461271b57600080fd5b801515811461271b57600080fdfe286e6577547261646561626c6542616c616e63652b6e6577506c617961626c6542616c616e636529203c3d20746f74616c5370724261636b20254f776e61626c653a2063616c6c6572206973206e6f7420746865206f776e6572ddf252ad1be2c89b69c2b068fc378daa952ba7f163c4a11628f55a4df523b3efa2646970667358221220e7ee7ada825370d8448a37a6890bbdfe9e5415ab71c759a05738de5f4c65350564736f6c63430008040033","abi":[{"inputs":[{"internalType":"address","name":"_sprNftAddress","type":"address"},{"internalType":"address","name":"_busdAddress","type":"address"}],"stateMutability":"nonpayable","type":"constructor"},{"anonymous":false,"inputs":[{"indexed":true,"internalType":"address","name":"owner","type":"address"},{"indexed":true,"internalType":"address","name":"spender","type":"address"},{"indexed":false,"internalType":"uint256","name":"value","type":"uint256"}],"name":"Approval","type":"event"},{"anonymous":false,"inputs":[{"indexed":true,"internalType":"address","name":"previousOwner","type":"address"},{"indexed":true,"internalType":"address","name":"newOwner","type":"address"}],"name":"OwnershipTransferred","type":"event"},{"anonymous":false,"inputs":[{"indexed":true,"internalType":"address","name":"from","type":"address"},{"indexed":true,"internalType":"address","name":"to","type":"address"},{"indexed":false,"internalType":"uint256","name":"value","type":"uint256"}],"name":"Transfer","type":"event"},{"inputs":[],"name":"DEAD","outputs":[{"internalType":"address","name":"","type":"address"}],"stateMutability":"view","type":"function"},{"inputs":[{"internalType":"address","name":"routerAddr","type":"address"},{"internalType":"uint256","name":"sprAmount","type":"uint256"},{"internalType":"uint256","name":"busdAmount","type":"uint256"}],"name":"addBnbLiquidity","outputs":[],"stateMutability":"payable","type":"function"},{"inputs":[{"internalType":"address","name":"routerAddress","type":"address"},{"internalType":"address","name":"pair","type":"address"}],"name":"addDex","outputs":[],"stateMutability":"nonpayable","type":"function"},{"inputs":[{"internalType":"address","name":"_wallet","type":"address"},{"internalType":"uint256","name":"_amount","type":"uint256"}],"name":"addPurchasingPower","outputs":[],"stateMutability":"nonpayable","type":"function"},{"inputs":[{"internalType":"address","name":"owner","type":"address"},{"internalType":"address","name":"spender","type":"address"}],"name":"allowance","outputs":[{"internalType":"uint256","name":"","type":"uint256"}],"stateMutability":"view","type":"function"},{"inputs":[{"internalType":"address","name":"spender","type":"address"},{"internalType":"uint256","name":"amount","type":"uint256"}],"name":"approve","outputs":[{"internalType":"bool","name":"","type":"bool"}],"stateMutability":"nonpayable","type":"function"},{"inputs":[],"name":"backendSignerAddress","outputs":[{"internalType":"address","name":"","type":"address"}],"stateMutability":"view","type":"function"},{"inputs":[{"internalType":"address","name":"account","type":"address"}],"name":"balanceOf","outputs":[{"internalType":"uint256","name":"","type":"uint256"}],"stateMutability":"view","type":"function"},{"inputs":[],"name":"burnTax","outputs":[{"internalType":"uint256","name":"","type":"uint256"}],"stateMutability":"view","type":"function"},{"inputs":[],"name":"busdAddress","outputs":[{"internalType":"address","name":"","type":"address"}],"stateMutability":"view","type":"function"},{"inputs":[],"name":"decimals","outputs":[{"internalType":"uint8","name":"","type":"uint8"}],"stateMutability":"view","type":"function"},{"inputs":[{"internalType":"address","name":"spender","type":"address"},{"internalType":"uint256","name":"subtractedValue","type":"uint256"}],"name":"decreaseAllowance","outputs":[{"internalType":"bool","name":"","type":"bool"}],"stateMutability":"nonpayable","type":"function"},{"inputs":[{"internalType":"address","name":"","type":"address"}],"name":"dexAddress","outputs":[{"internalType":"bool","name":"","type":"bool"}],"stateMutability":"view","type":"function"},{"inputs":[{"internalType":"uint256","name":"","type":"uint256"}],"name":"dexAddresses","outputs":[{"internalType":"address","name":"","type":"address"}],"stateMutability":"view","type":"function"},{"inputs":[{"internalType":"address","name":"","type":"address"}],"name":"dexPairAddress","outputs":[{"internalType":"address","name":"","type":"address"}],"stateMutability":"view","type":"function"},{"inputs":[{"internalType":"address","name":"","type":"address"}],"name":"extraPurchasingPower","outputs":[{"internalType":"uint256","name":"","type":"uint256"}],"stateMutability":"view","type":"function"},{"inputs":[],"name":"inSwapAndLiquify","outputs":[{"internalType":"bool","name":"","type":"bool"}],"stateMutability":"view","type":"function"},{"inputs":[{"internalType":"address","name":"spender","type":"address"},{"internalType":"uint256","name":"addedValue","type":"uint256"}],"name":"increaseAllowance","outputs":[{"internalType":"bool","name":"","type":"bool"}],"stateMutability":"nonpayable","type":"function"},{"inputs":[],"name":"isTokenTaxEnabled","outputs":[{"internalType":"bool","name":"","type":"bool"}],"stateMutability":"view","type":"function"},{"inputs":[],"name":"liquifyEnabled","outputs":[{"internalType":"bool","name":"","type":"bool"}],"stateMutability":"view","type":"function"},{"inputs":[],"name":"lpTax","outputs":[{"internalType":"uint256","name":"","type":"uint256"}],"stateMutability":"view","type":"function"},{"inputs":[],"name":"maxUsdPurchasePerPlanetNft","outputs":[{"internalType":"uint256","name":"","type":"uint256"}],"stateMutability":"view","type":"function"},{"inputs":[],"name":"minAmountToLiquify","outputs":[{"internalType":"uint256","name":"","type":"uint256"}],"stateMutability":"view","type":"function"},{"inputs":[],"name":"name","outputs":[{"internalType":"string","name":"","type":"string"}],"stateMutability":"view","type":"function"},{"inputs":[],"name":"owner","outputs":[{"internalType":"address","name":"","type":"address"}],"stateMutability":"view","type":"function"},{"inputs":[{"internalType":"address","name":"","type":"address"}],"name":"pairAddress","outputs":[{"internalType":"bool","name":"","type":"bool"}],"stateMutability":"view","type":"function"},{"inputs":[{"internalType":"address","name":"","type":"address"}],"name":"pairDexAddress","outputs":[{"internalType":"address","name":"","type":"address"}],"stateMutability":"view","type":"function"},{"inputs":[{"internalType":"address","name":"account","type":"address"}],"name":"playableBalanceOf","outputs":[{"internalType":"uint256","name":"","type":"uint256"}],"stateMutability":"view","type":"function"},{"inputs":[{"internalType":"address","name":"routerAddr","type":"address"},{"internalType":"address","name":"buyer","type":"address"}],"name":"purchasingPower","outputs":[{"internalType":"uint256","name":"","type":"uint256"}],"stateMutability":"view","type":"function"},{"inputs":[{"internalType":"address","name":"_wallet","type":"address"}],"name":"purchasingPowerAmount","outputs":[{"internalType":"uint256","name":"","type":"uint256"}],"stateMutability":"view","type":"function"},{"inputs":[],"name":"purchasingPowerEnabled","outputs":[{"internalType":"bool","name":"","type":"bool"}],"stateMutability":"view","type":"function"},{"inputs":[],"name":"renounceOwnership","outputs":[],"stateMutability":"nonpayable","type":"function"},{"inputs":[],"name":"rewardPoolTax","outputs":[{"internalType":"uint256","name":"","type":"uint256"}],"stateMutability":"view","type":"function"},{"inputs":[{"internalType":"address","name":"_backendSignerAddress","type":"address"}],"name":"setBackendSignerAddress","outputs":[],"stateMutability":"nonpayable","type":"function"},{"inputs":[{"internalType":"uint256","name":"_burnTax","type":"uint256"}],"name":"setBurnTax","outputs":[],"stateMutability":"nonpayable","type":"function"},{"inputs":[{"internalType":"bool","name":"_isTokenTaxEnabled","type":"bool"}],"name":"setIsTokenTaxEnabled","outputs":[],"stateMutability":"nonpayable","type":"function"},{"inputs":[{"internalType":"bool","name":"_liquifyEnabled","type":"bool"}],"name":"setLiquifyEnabled","outputs":[],"stateMutability":"nonpayable","type":"function"},{"inputs":[{"internalType":"uint256","name":"_lpTax","type":"uint256"}],"name":"setLpTax","outputs":[],"stateMutability":"nonpayable","type":"function"},{"inputs":[{"internalType":"uint256","name":"_maxUsdPurchasePerPlanetNft","type":"uint256"}],"name":"setMaxUsdPurchasePerPlanetNft","outputs":[],"stateMutability":"nonpayable","type":"function"},{"inputs":[{"internalType":"uint256","name":"_minAmountToLiquify","type":"uint256"}],"name":"setMinAmountToLiquify","outputs":[],"stateMutability":"nonpayable","type":"function"},{"inputs":[{"internalType":"bool","name":"_purchasingPowerEnabled","type":"bool"}],"name":"setPurchasingPowerEnabled","outputs":[],"stateMutability":"nonpayable","type":"function"},{"inputs":[{"internalType":"uint256","name":"_rewardPoolTax","type":"uint256"}],"name":"setRewardPoolTax","outputs":[],"stateMutability":"nonpayable","type":"function"},{"inputs":[{"internalType":"address","name":"_sprFundProxy","type":"address"}],"name":"setSprFundProxy","outputs":[],"stateMutability":"nonpayable","type":"function"},{"inputs":[{"internalType":"address","name":"_sprGameAddress","type":"address"}],"name":"setSprGameAddress","outputs":[],"stateMutability":"nonpayable","type":"function"},{"inputs":[{"internalType":"address","name":"_sprRewardPoolAddress","type":"address"}],"name":"setSprRewardPoolAddress","outputs":[],"stateMutability":"nonpayable","type":"function"},{"inputs":[{"internalType":"address","name":"_addr","type":"address"},{"internalType":"bool","name":"_exclude","type":"bool"}],"name":"setWhitelistedAddresses","outputs":[],"stateMutability":"nonpayable","type":"function"},{"inputs":[],"name":"sprFundProxyAddress","outputs":[{"internalType":"address","name":"","type":"address"}],"stateMutability":"view","type":"function"},{"inputs":[],"name":"sprGameAddress","outputs":[{"internalType":"address","name":"","type":"address"}],"stateMutability":"view","type":"function"},{"inputs":[],"name":"sprNft","outputs":[{"internalType":"contract ERC721","name":"","type":"address"}],"stateMutability":"view","type":"function"},{"inputs":[],"name":"sprRewardPoolAddress","outputs":[{"internalType":"address","name":"","type":"address"}],"stateMutability":"view","type":"function"},{"inputs":[],"name":"symbol","outputs":[{"internalType":"string","name":"","type":"string"}],"stateMutability":"view","type":"function"},{"inputs":[{"internalType":"address","name":"account","type":"address"}],"name":"totalBalanceOf","outputs":[{"internalType":"uint256","name":"","type":"uint256"}],"stateMutability":"view","type":"function"},{"inputs":[],"name":"totalSupply","outputs":[{"internalType":"uint256","name":"","type":"uint256"}],"stateMutability":"view","type":"function"},{"inputs":[{"internalType":"address","name":"account","type":"address"}],"name":"tradeableBalanceOf","outputs":[{"internalType":"uint256","name":"","type":"uint256"}],"stateMutability":"view","type":"function"},{"inputs":[{"internalType":"address","name":"recipient","type":"address"},{"internalType":"uint256","name":"amount","type":"uint256"}],"name":"transfer","outputs":[{"internalType":"bool","name":"","type":"bool"}],"stateMutability":"nonpayable","type":"function"},{"inputs":[{"internalType":"address","name":"sender","type":"address"},{"internalType":"address","name":"recipient","type":"address"},{"internalType":"uint256","name":"amount","type":"uint256"}],"name":"transferFrom","outputs":[{"internalType":"bool","name":"","type":"bool"}],"stateMutability":"nonpayable","type":"function"},{"inputs":[{"internalType":"address","name":"newOwner","type":"address"}],"name":"transferOwnership","outputs":[],"stateMutability":"nonpayable","type":"function"},{"inputs":[{"internalType":"address","name":"user","type":"address"},{"internalType":"address","name":"routerAddr","type":"address"},{"internalType":"uint256","name":"sprAmount","type":"uint256"}],"name":"userAddLiquidity","outputs":[{"components":[{"internalType":"address","name":"user","type":"address"},{"internalType":"uint256","name":"lpAmount","type":"uint256"},{"internalType":"uint256","name":"tradeableBalance","type":"uint256"},{"internalType":"uint256","name":"playableBalance","type":"uint256"},{"internalType":"address","name":"router","type":"address"},{"internalType":"address","name":"pair","type":"address"}],"internalType":"struct UserAddLiquidity","name":"","type":"tuple"}],"stateMutability":"nonpayable","type":"function"},{"inputs":[{"internalType":"address","name":"routerAddr","type":"address"},{"components":[{"internalType":"address","name":"user","type":"address"},{"internalType":"uint256","name":"lpAmount","type":"uint256"},{"internalType":"uint256","name":"tradeableBalance","type":"uint256"},{"internalType":"uint256","name":"playableBalance","type":"uint256"},{"internalType":"address","name":"router","type":"address"},{"internalType":"address","name":"pair","type":"address"}],"internalType":"struct UserAddLiquidity","name":"userAddLiquidity","type":"tuple"}],"name":"userRemoveLiquidity","outputs":[],"stateMutability":"nonpayable","type":"function"},{"inputs":[{"internalType":"address","name":"","type":"address"}],"name":"whitelistedAddresses","outputs":[{"internalType":"bool","name":"","type":"bool"}],"stateMutability":"view","type":"function"},{"stateMutability":"payable","type":"receive"}]}