{"address":"0x8c5fDaBA4e1Aa49d9B284B9f24FE0fA11a2D3473","bytecode":"0x6080604052600180546001600160a01b03191661dead1781556608e1bc9bf040006006556007805460ff1990811683179091556032600a55600d805490911690911790556010805464ffffffffff1916620101011790553480156200006357600080fd5b506040516200458a3803806200458a833981016040819052620000869162000135565b6200009133620000e5565b600380546001600160a01b039586166001600160a01b0319918216179091556004805494861694821694909417909355600280549285169284169290921790915560058054919093169116179055620001b5565b600080546001600160a01b038381166001600160a01b0319831681178455604051919092169283917f8be0079c531659141344cd1fd0a4f28419497f9722a3daafe3b4186f6b6457e09190a35050565b600080600080608085870312156200014b578384fd5b845162000158816200019c565b60208601519094506200016b816200019c565b60408601519093506200017e816200019c565b606086015190925062000191816200019c565b939692955090935050565b6001600160a01b0381168114620001b257600080fd5b50565b6143c580620001c56000396000f3fe60806040526004361061020f5760003560e01c806390d49b9d11610118578063d1ecc461116100a0578063f12d7d051161006f578063f12d7d051461068c578063f23b5e251461069f578063f2fde38b146106bf578063f4c07d81146106df578063fcd55574146106f257600080fd5b8063d1ecc46114610608578063d963d89b1461061b578063ea25ebb214610656578063efc174151461067657600080fd5b8063b5980d61116100e7578063b5980d6114610505578063be43cf0d14610525578063c4340f9214610546578063c9513dbd14610566578063cf9d4230146105f557600080fd5b806390d49b9d1461049f578063a293a31e146104bf578063aa6c9144146104d2578063b459a695146104e557600080fd5b80634de812051161019b5780636822a86f1161016a5780636822a86f146103f9578063715018a614610419578063729489161461042e5780638da5cb5b1461044e5780638e8bc9b01461046c57600080fd5b80634de81205146103675780635acb36ce14610387578063600106f4146103b9578063672f967c146103d957600080fd5b806318a26c86116101e257806318a26c86146102b957806326f346a0146102cc5780632a3d97a1146102f957806344b1fa1c1461032757806345fba4f31461034757600080fd5b80630d72d57f1461021457806312a9aea91461025157806314e94c6e146102665780631815ce7d14610299575b600080fd5b34801561022057600080fd5b50600554610234906001600160a01b031681565b6040516001600160a01b0390911681526020015b60405180910390f35b61026461025f366004613a3b565b610712565b005b34801561027257600080fd5b50610286610281366004613ac6565b610ba7565b604051610248979695949392919061419a565b3480156102a557600080fd5b506102646102b4366004613984565b610d96565b6102646102c7366004613c9b565b610e00565b3480156102d857600080fd5b506102ec6102e7366004613b01565b6111f7565b6040516102489190614187565b34801561030557600080fd5b506103196103143660046139fb565b6112bf565b604051908152602001610248565b34801561033357600080fd5b50610286610342366004613ac6565b6112eb565b34801561035357600080fd5b506102646103623660046139c3565b611311565b34801561037357600080fd5b506102646103823660046139c3565b611375565b34801561039357600080fd5b506010546103a990640100000000900460ff1681565b6040519015158152602001610248565b3480156103c557600080fd5b506102646103d43660046139c3565b6113dd565b3480156103e557600080fd5b506102646103f4366004613eb0565b61143f565b34801561040557600080fd5b506103196104143660046139fb565b61148c565b34801561042557600080fd5b506102646114a0565b34801561043a57600080fd5b506102ec610449366004613b01565b6114f4565b34801561045a57600080fd5b506000546001600160a01b0316610234565b34801561047857600080fd5b5061048c610487366004613ac6565b61151f565b60405161024897969594939291906140f1565b3480156104ab57600080fd5b506102646104ba366004613984565b611684565b6102646104cd366004613ee0565b6116ee565b6102646104e0366004613ee0565b611bbf565b3480156104f157600080fd5b506010546103a99062010000900460ff1681565b34801561051157600080fd5b506102646105203660046139c3565b612098565b34801561053157600080fd5b506010546103a9906301000000900460ff1681565b34801561055257600080fd5b506102646105613660046139c3565b6120f3565b34801561057257600080fd5b506105c2610581366004613ac6565b805160208183018101805160098252928201919093012091528054600182015460028301546003909301546001600160a01b03928316939192918216911684565b604080516001600160a01b0395861681526020810194909452918416918301919091529091166060820152608001610248565b610264610603366004613e0a565b612159565b610264610616366004613d2c565b6126cc565b34801561062757600080fd5b506103a9610636366004613ac6565b805160208183018101805160118252928201919093012091525460ff1681565b34801561066257600080fd5b506102646106713660046139c3565b612973565b34801561068257600080fd5b5061031960065481565b61026461069a366004613ee0565b6129ce565b3480156106ab57600080fd5b506102646106ba3660046139c3565b612cbf565b3480156106cb57600080fd5b506102646106da366004613984565b612d1a565b6102646106ed3660046139fb565b612dd3565b3480156106fe57600080fd5b5061026461070d366004613eb0565b613370565b60006107266003546001600160a01b031690565b60048054604051630805372f60e01b81529293506001600160a01b0316916000918391630805372f9161075d918d918d910161414d565b60006040518083038186803b15801561077557600080fd5b505afa158015610789573d6000803e3d6000fd5b505050506040513d6000823e601f3d908101601f191682016040526107b19190810190613b44565b60105490915062010000900460ff166108115760405162461bcd60e51b815260206004820152601e60248201527f50757263686173696e6720706c616e6574732069732064697361626c6564000060448201526064015b60405180910390fd5b8060400151156108635760405162461bcd60e51b815260206004820152601a60248201527f506c616e6574206775696420616c7265616479206578697374730000000000006044820152606401610808565b6040516370a0823160e01b815233600482015287906001600160a01b038516906370a082319060240160206040518083038186803b1580156108a457600080fd5b505afa1580156108b8573d6000803e3d6000fd5b505050506040513d601f19601f820116820180604052508101906108dc9190613ec8565b101561091f5760405162461bcd60e51b81526020600482015260126024820152712737ba1032b737bab3b4103a37b5b2b7399760711b6044820152606401610808565b604051636eb1769f60e11b815233600482015230602482015287906001600160a01b0385169063dd62ed3e9060440160206040518083038186803b15801561096657600080fd5b505afa15801561097a573d6000803e3d6000fd5b505050506040513d601f19601f8201168201806040525081019061099e9190613ec8565b10156109ec5760405162461bcd60e51b815260206004820152601960248201527f417070726f7665207472616e73616374696f6e206669727374000000000000006044820152606401610808565b6006543414610a355760405162461bcd60e51b81526020600482015260156024820152744e6f742073656e6420656e6f75676820424e42277360581b6044820152606401610808565b60008989338a604051602001610a4e9493929190613fbc565b60408051601f1981840301815290829052600554633248da1f60e11b835290925073__$ad9ca387392769a074e8e3cd9fd740c701$__91636491b43e91610aa7916001600160a01b039091169085908c90600401614055565b60006040518083038186803b158015610abf57600080fd5b505af4158015610ad3573d6000803e3d6000fd5b50506002546006546040516001600160a01b03909216935080156108fc029250906000818181858888f19350505050158015610b13573d6000803e3d6000fd5b506040516351f71c5760e11b81526001600160a01b0384169063a3ee38ae90610b489033908e908e908c908c906004016140af565b602060405180830381600087803b158015610b6257600080fd5b505af1158015610b76573d6000803e3d6000fd5b505050506040513d601f19601f82011682018060405250810190610b9a9190613ec8565b5050505050505050505050565b8051602081830181018051600e82529282019190930120915280548190610bcd90614301565b80601f0160208091040260200160405190810160405280929190818152602001828054610bf990614301565b8015610c465780601f10610c1b57610100808354040283529160200191610c46565b820191906000526020600020905b815481529060010190602001808311610c2957829003601f168201915b505050505090806001018054610c5b90614301565b80601f0160208091040260200160405190810160405280929190818152602001828054610c8790614301565b8015610cd45780601f10610ca957610100808354040283529160200191610cd4565b820191906000526020600020905b815481529060010190602001808311610cb757829003601f168201915b505050600284015460038501546004860154600587015460068801805497986001600160a01b039095169793965091945060ff169291610d1390614301565b80601f0160208091040260200160405190810160405280929190818152602001828054610d3f90614301565b8015610d8c5780601f10610d6157610100808354040283529160200191610d8c565b820191906000526020600020905b815481529060010190602001808311610d6f57829003601f168201915b5050505050905087565b6000546001600160a01b03163314610dde5760405162461bcd60e51b815260206004820181905260248201526000805160206143708339815191526044820152606401610808565b600580546001600160a01b0319166001600160a01b0392909216919091179055565b601054640100000000900460ff16610e645760405162461bcd60e51b815260206004820152602160248201527f506c616e65742074726164696e6720746f67676c65206e6f7420656e61626c656044820152601960fa1b6064820152608401610808565b60048054604051630805372f60e01b81526001600160a01b03909116916000918391630805372f91610e9a91899189910161414d565b60006040518083038186803b158015610eb257600080fd5b505afa158015610ec6573d6000803e3d6000fd5b505050506040513d6000823e601f3d908101601f19168201604052610eee9190810190613b44565b905060118787604051610f02929190613fac565b9081526040519081900360200190205460ff1615610f625760405162461bcd60e51b815260206004820152601c60248201527f416c726561647920746f67676c65642077697468207265712e206964000000006044820152606401610808565b8060400151610fb35760405162461bcd60e51b815260206004820152601460248201527f506c616e657420646f65736e74206578697374730000000000000000000000006044820152606401610808565b80516040516331a9108f60e11b815233916001600160a01b03851691636352211e91610fe59160040190815260200190565b60206040518083038186803b158015610ffd57600080fd5b505afa158015611011573d6000803e3d6000fd5b505050506040513d601f19601f8201168201806040525081019061103591906139a7565b6001600160a01b0316146110775760405162461bcd60e51b81526020600482015260096024820152682737ba1037bbb732b960b91b6044820152606401610808565b60008787878787604051602001611092959493929190613fec565b60408051601f1981840301815290829052600554633248da1f60e11b835290925073__$ad9ca387392769a074e8e3cd9fd740c701$__91636491b43e916110eb916001600160a01b039091169085908e90600401614055565b60006040518083038186803b15801561110357600080fd5b505af4158015611117573d6000803e3d6000fd5b5050505060016011898960405161112f929190613fac565b908152604051908190036020018120805492151560ff199093169290921790915563c876022760e01b81526001600160a01b0384169063c87602279061117d90899089908990600401614161565b600060405180830381600087803b15801561119757600080fd5b505af11580156111ab573d6000803e3d6000fd5b50506002546006546040516001600160a01b03909216935080156108fc029250906000818181858888f193505050501580156111eb573d6000803e3d6000fd5b50505050505050505050565b8151602081840181018051600f82529282019185019190912091905280548290811061122257600080fd5b9060005260206000200160009150915050805461123e90614301565b80601f016020809104026020016040519081016040528092919081815260200182805461126a90614301565b80156112b75780601f1061128c576101008083540402835291602001916112b7565b820191906000526020600020905b81548152906001019060200180831161129a57829003601f168201915b505050505081565b6000600f83836040516112d3929190613fac565b90815260405190819003602001902054905092915050565b8051602081830181018051600b82529282019190930120915280548190610bcd90614301565b6000546001600160a01b031633146113595760405162461bcd60e51b815260206004820181905260248201526000805160206143708339815191526044820152606401610808565b60108054911515620100000262ff000019909216919091179055565b6000546001600160a01b031633146113bd5760405162461bcd60e51b815260206004820181905260248201526000805160206143708339815191526044820152606401610808565b601080549115156401000000000264ff0000000019909216919091179055565b6000546001600160a01b031633146114255760405162461bcd60e51b815260206004820181905260248201526000805160206143708339815191526044820152606401610808565b601080549115156101000261ff0019909216919091179055565b6000546001600160a01b031633146114875760405162461bcd60e51b815260206004820181905260248201526000805160206143708339815191526044820152606401610808565b600a55565b6000600c83836040516112d3929190613fac565b6000546001600160a01b031633146114e85760405162461bcd60e51b815260206004820181905260248201526000805160206143708339815191526044820152606401610808565b6114f260006133bd565b565b8151602081840181018051600c82529282019185019190912091905280548290811061122257600080fd5b8051602081830181018051600882529282019190930120915280546001820180546001600160a01b03909216929161155690614301565b80601f016020809104026020016040519081016040528092919081815260200182805461158290614301565b80156115cf5780601f106115a4576101008083540402835291602001916115cf565b820191906000526020600020905b8154815290600101906020018083116115b257829003601f168201915b5050505050908060020154908060030180546115ea90614301565b80601f016020809104026020016040519081016040528092919081815260200182805461161690614301565b80156116635780601f1061163857610100808354040283529160200191611663565b820191906000526020600020905b81548152906001019060200180831161164657829003601f168201915b50505050600483015460058401546006909401549293909290915060ff1687565b6000546001600160a01b031633146116cc5760405162461bcd60e51b815260206004820181905260248201526000805160206143708339815191526044820152606401610808565b600280546001600160a01b0319166001600160a01b0392909216919091179055565b60006117026003546001600160a01b031690565b60105490915060ff166117575760405162461bcd60e51b815260206004820152601660248201527f4465706f736974696e672069732064697361626c6564000000000000000000006044820152606401610808565b6040516370a0823160e01b815233600482015286906001600160a01b038316906370a082319060240160206040518083038186803b15801561179857600080fd5b505afa1580156117ac573d6000803e3d6000fd5b505050506040513d601f19601f820116820180604052508101906117d09190613ec8565b10156118135760405162461bcd60e51b81526020600482015260126024820152712737ba1032b737bab3b4103a37b5b2b7399760711b6044820152606401610808565b604051636eb1769f60e11b815233600482015230602482015286906001600160a01b0383169063dd62ed3e9060440160206040518083038186803b15801561185a57600080fd5b505afa15801561186e573d6000803e3d6000fd5b505050506040513d601f19601f820116820180604052508101906118929190613ec8565b10156118e05760405162461bcd60e51b815260206004820152601960248201527f417070726f7665207472616e73616374696f6e206669727374000000000000006044820152606401610808565b60065434146119295760405162461bcd60e51b81526020600482015260156024820152744e6f742073656e6420656e6f75676820424e42277360581b6044820152606401610808565b6040518060e0016040528086868080601f016020809104026020016040519081016040528093929190818152602001838380828437600092019190915250505090825250604080516020601f8701819004810282018101909252858152918101919086908690819084018382808284376000920191909152505050908252503360208083019190915242604080840191909152606083018a90526001608084015280518082018252600781526619195c1bdcda5d60ca1b9281019290925260a09092015251600e906119fe9088908890613fac565b90815260200160405180910390206000820151816000019080519060200190611a289291906137ad565b506020828101518051611a4192600185019201906137ad565b5060408201516002820180546001600160a01b0319166001600160a01b03909216919091179055606082015160038201556080820151600482015560a082015160058201805460ff191691151591909117905560c08201518051611aaf9160068401916020909101906137ad565b50905050600f8383604051611ac5929190613fac565b9081526040516020918190038201902080546001810182556000918252919020611af191018686613831565b506002546006546040516001600160a01b039092169181156108fc0291906000818181858888f19350505050158015611b2e573d6000803e3d6000fd5b506040516323b872dd60e01b8152336004820152306024820152604481018790526001600160a01b038216906323b872dd906064015b602060405180830381600087803b158015611b7e57600080fd5b505af1158015611b92573d6000803e3d6000fd5b505050506040513d601f19601f82011682018060405250810190611bb691906139df565b50505050505050565b6000611bd36003546001600160a01b031690565b600d5490915060ff16611c345760405162461bcd60e51b8152602060048201526024808201527f4465706f736974696e6720656e6572677920746f6b656e732069732064697361604482015263189b195960e21b6064820152608401610808565b6040516370a0823160e01b815233600482015286906001600160a01b038316906370a082319060240160206040518083038186803b158015611c7557600080fd5b505afa158015611c89573d6000803e3d6000fd5b505050506040513d601f19601f82011682018060405250810190611cad9190613ec8565b1015611cf05760405162461bcd60e51b81526020600482015260126024820152712737ba1032b737bab3b4103a37b5b2b7399760711b6044820152606401610808565b604051636eb1769f60e11b815233600482015230602482015286906001600160a01b0383169063dd62ed3e9060440160206040518083038186803b158015611d3757600080fd5b505afa158015611d4b573d6000803e3d6000fd5b505050506040513d601f19601f82011682018060405250810190611d6f9190613ec8565b1015611dbd5760405162461bcd60e51b815260206004820152601960248201527f417070726f7665207472616e73616374696f6e206669727374000000000000006044820152606401610808565b6006543414611e065760405162461bcd60e51b81526020600482015260156024820152744e6f742073656e6420656e6f75676820424e42277360581b6044820152606401610808565b6040518060e0016040528086868080601f016020809104026020016040519081016040528093929190818152602001838380828437600092019190915250505090825250604080516020601f8701819004810282018101909252858152918101919086908690819084018382808284376000920191909152505050908252503360208083019190915242604080840191909152606083018a90526001608084015280518082018252600781526619195c1bdcda5d60ca1b9281019290925260a09092015251600b90611edb9088908890613fac565b90815260200160405180910390206000820151816000019080519060200190611f059291906137ad565b506020828101518051611f1e92600185019201906137ad565b5060408201516002820180546001600160a01b0319166001600160a01b03909216919091179055606082015160038201556080820151600482015560a082015160058201805460ff191691151591909117905560c08201518051611f8c9160068401916020909101906137ad565b50905050600c8383604051611fa2929190613fac565b9081526040516020918190038201902080546001810182556000918252919020611fce91018686613831565b506002546040516323b872dd60e01b81523360048201526001600160a01b03918216602482015260448101889052908216906323b872dd90606401602060405180830381600087803b15801561202357600080fd5b505af1158015612037573d6000803e3d6000fd5b505050506040513d601f19601f8201168201806040525081019061205b91906139df565b506002546006546040516001600160a01b039092169181156108fc0291906000818181858888f19350505050158015611bb6573d6000803e3d6000fd5b6000546001600160a01b031633146120e05760405162461bcd60e51b815260206004820181905260248201526000805160206143708339815191526044820152606401610808565b6010805460ff1916911515919091179055565b6000546001600160a01b0316331461213b5760405162461bcd60e51b815260206004820181905260248201526000805160206143708339815191526044820152606401610808565b6010805491151563010000000263ff00000019909216919091179055565b600061216d6003546001600160a01b031690565b60075490915060ff166121c25760405162461bcd60e51b815260206004820152601760248201527f5374616b696e67206973206e6f7420656e61626c65642e0000000000000000006044820152606401610808565b600888886040516121d4929190613fac565b9081526040519081900360200190206006015460ff16156122375760405162461bcd60e51b815260206004820152601760248201527f4f6e6c792031207374616b696e67206174206f6e63652e0000000000000000006044820152606401610808565b4283116122925760405162461bcd60e51b815260206004820152602360248201527f54696d652063616e74206265206c657373207468616e2063757272656e742074604482015262696d6560e81b6064820152608401610808565b6040516370a0823160e01b815233600482015286906001600160a01b038316906370a082319060240160206040518083038186803b1580156122d357600080fd5b505afa1580156122e7573d6000803e3d6000fd5b505050506040513d601f19601f8201168201806040525081019061230b9190613ec8565b101561234e5760405162461bcd60e51b81526020600482015260126024820152712737ba1032b737bab3b4103a37b5b2b7399760711b6044820152606401610808565b60065434146123975760405162461bcd60e51b81526020600482015260156024820152744e6f742073656e6420656e6f75676820424e42277360581b6044820152606401610808565b6002546006546040516001600160a01b039092169181156108fc0291906000818181858888f193505050501580156123d3573d6000803e3d6000fd5b506000612710600a54886123e791906142a6565b6123f19190614286565b6002546040516323b872dd60e01b81523360048201526001600160a01b039182166024820152604481018390529192508316906323b872dd90606401602060405180830381600087803b15801561244757600080fd5b505af115801561245b573d6000803e3d6000fd5b505050506040513d601f19601f8201168201806040525081019061247f91906139df565b50604051631c81c79560e11b81523360048201526001600160a01b038481166024830152604482018990528316906339038f2a90606401608060405180830381600087803b1580156124d057600080fd5b505af11580156124e4573d6000803e3d6000fd5b505050506040513d601f19601f820116820180604052508101906125089190613c20565b60098a8a60405161251a929190613fac565b9081526040805160209281900383018120845181546001600160a01b03199081166001600160a01b039283161783558686015160018401558685015160028401805483169184169190911790556060909601516003909201805490961691161790935560e0830181523383528051601f8c018390048302810183019091528a8152818301918c908c908190840183828082843760009201919091525050509082525060208082018a905260408051601f8a0183900483028101830182528981529201919089908990819084018382808284376000920191909152505050908252504260208201526040808201879052600160609092019190915251600890612625908c908c90613fac565b90815260405160209181900382019020825181546001600160a01b0319166001600160a01b03909116178155828201518051919261266b926001850192909101906137ad565b5060408201516002820155606082015180516126919160038401916020909101906137ad565b506080820151600482015560a0820151600582015560c0909101516006909101805460ff191691151591909117905550505050505050505050565b6010546301000000900460ff166127255760405162461bcd60e51b815260206004820152601660248201527f506c616e657420667573696f6e2064697361626c6564000000000000000000006044820152606401610808565b61273389898989888861340d565b60055460405173__$ad9ca387392769a074e8e3cd9fd740c701$__91636491b43e916001600160a01b039091169061277f908d908d908d908d908d908d908d908d908d90602001614015565b6040516020818303038152906040528d6040518463ffffffff1660e01b81526004016127ad93929190614055565b60006040518083038186803b1580156127c557600080fd5b505af41580156127d9573d6000803e3d6000fd5b50506004805460405163a257ccf360e01b81526001600160a01b03909116935083925063a257ccf391612810918e918e910161414d565b600060405180830381600087803b15801561282a57600080fd5b505af115801561283e573d6000803e3d6000fd5b505060405163a257ccf360e01b81526001600160a01b038416925063a257ccf39150612870908b908b9060040161414d565b600060405180830381600087803b15801561288a57600080fd5b505af115801561289e573d6000803e3d6000fd5b50506002546006546040516001600160a01b03909216935080156108fc029250906000818181858888f193505050501580156128de573d6000803e3d6000fd5b506040516351f71c5760e11b81526001600160a01b0382169063a3ee38ae9061291390339089908990899089906004016140af565b602060405180830381600087803b15801561292d57600080fd5b505af1158015612941573d6000803e3d6000fd5b505050506040513d601f19601f820116820180604052508101906129659190613ec8565b505050505050505050505050565b6000546001600160a01b031633146129bb5760405162461bcd60e51b815260206004820181905260248201526000805160206143708339815191526044820152606401610808565b6007805460ff1916911515919091179055565b60006129e26003546001600160a01b031690565b601054909150610100900460ff16612a3c5760405162461bcd60e51b815260206004820152601460248201527f57697468647261772069732064697361626c65640000000000000000000000006044820152606401610808565b6006543414612a855760405162461bcd60e51b81526020600482015260156024820152744e6f742073656e6420656e6f75676820424e42277360581b6044820152606401610808565b6040518060e0016040528086868080601f016020809104026020016040519081016040528093929190818152602001838380828437600092019190915250505090825250604080516020601f8701819004810282018101909252858152918101919086908690819084018382808284376000920191909152505050908252503360208083019190915242604080840191909152606083018a905260016080840152805180820182526008815267776974686472617760c01b9281019290925260a09092015251600e90612b5b9088908890613fac565b90815260200160405180910390206000820151816000019080519060200190612b859291906137ad565b506020828101518051612b9e92600185019201906137ad565b5060408201516002820180546001600160a01b0319166001600160a01b03909216919091179055606082015160038201556080820151600482015560a082015160058201805460ff191691151591909117905560c08201518051612c0c9160068401916020909101906137ad565b50905050600f8383604051612c22929190613fac565b9081526040516020918190038201902080546001810182556000918252919020612c4e91018686613831565b506002546006546040516001600160a01b039092169181156108fc0291906000818181858888f19350505050158015612c8b573d6000803e3d6000fd5b5060405163a9059cbb60e01b8152336004820152602481018790526001600160a01b0382169063a9059cbb90604401611b64565b6000546001600160a01b03163314612d075760405162461bcd60e51b815260206004820181905260248201526000805160206143708339815191526044820152606401610808565b600d805460ff1916911515919091179055565b6000546001600160a01b03163314612d625760405162461bcd60e51b815260206004820181905260248201526000805160206143708339815191526044820152606401610808565b6001600160a01b038116612dc75760405162461bcd60e51b815260206004820152602660248201527f4f776e61626c653a206e6577206f776e657220697320746865207a65726f206160448201526564647265737360d01b6064820152608401610808565b612dd0816133bd565b50565b60088282604051612de5929190613fac565b9081526040519081900360200190206006015460ff16612e5d5760405162461bcd60e51b815260206004820152602d60248201527f596f7520617265206e6f74207374616b696e672c206e6f20776974686472617760448201526c30b61030bb30b4b630b136329760991b6064820152608401610808565b60088282604051612e6f929190613fac565b9081526020016040518091039020600501544211612ecf5760405162461bcd60e51b815260206004820152601f60248201527f5374616b696e6720706572696f64206973206e6f742066696e69736865642e006044820152606401610808565b336001600160a01b031660088383604051612eeb929190613fac565b908152604051908190036020019020546001600160a01b031614612f515760405162461bcd60e51b815260206004820152601160248201527f4e6f7420796f7572207374616b696e672e0000000000000000000000000000006044820152606401610808565b6006543414612f9a5760405162461bcd60e51b81526020600482015260156024820152744e6f742073656e6420656e6f75676820424e42277360581b6044820152606401610808565b6002546006546040516001600160a01b039092169181156108fc0291906000818181858888f19350505050158015612fd6573d6000803e3d6000fd5b50600060088383604051612feb929190613fac565b908152602001604051809103902060040181905550600060088383604051613014929190613fac565b908152602001604051809103902060050181905550604051806020016040528060008152506008838360405161304b929190613fac565b9081526020016040518091039020600101908051906020019061306f9291906137ad565b506040518060200160405280600081525060088383604051613092929190613fac565b908152602001604051809103902060030190805190602001906130b69291906137ad565b506000600883836040516130cb929190613fac565b9081526020016040518091039020600201819055506000600883836040516130f4929190613fac565b908152604051908190036020018120600601805492151560ff199093169290921790915560009060099061312b9085908590613fac565b908152604051908190036020018120546001600160a01b031691506000906009906131599086908690613fac565b9081526020016040518091039020600101549050600060098585604051613181929190613fac565b908152604051908190036020018120600201546001600160a01b031691506000906009906131b29088908890613fac565b908152604051908190036020018120600301546001600160a01b031691506000906009906131e39089908990613fac565b90815260200160405180910390206001018190555060006009878760405161320c929190613fac565b908152602001604051809103902060020160006101000a8154816001600160a01b0302191690836001600160a01b03160217905550600060098787604051613255929190613fac565b9081526040805160209281900383018120600390810180546001600160a01b0319166001600160a01b039687161790555463a9059cbb60e01b8252841660048201819052602482018890529151919385169263a9059cbb926044808401938290030181600087803b1580156132c957600080fd5b505af11580156132dd573d6000803e3d6000fd5b505050506040513d601f19601f8201168201806040525081019061330191906139df565b50604051632efa6b6160e21b81526001600160a01b038481166004830152838116602483015260448201869052868116606483015282169063bbe9ad8490608401600060405180830381600087803b15801561335c57600080fd5b505af1158015610b9a573d6000803e3d6000fd5b6000546001600160a01b031633146133b85760405162461bcd60e51b815260206004820181905260248201526000805160206143708339815191526044820152606401610808565b600655565b600080546001600160a01b038381166001600160a01b0319831681178455604051919092169283917f8be0079c531659141344cd1fd0a4f28419497f9722a3daafe3b4186f6b6457e09190a35050565b60048054604051630805372f60e01b81526001600160a01b03909116916000918391630805372f91613443918c918c910161414d565b60006040518083038186803b15801561345b57600080fd5b505afa15801561346f573d6000803e3d6000fd5b505050506040513d6000823e601f3d908101601f191682016040526134979190810190613b44565b90506000826001600160a01b0316630805372f88886040518363ffffffff1660e01b81526004016134c992919061414d565b60006040518083038186803b1580156134e157600080fd5b505afa1580156134f5573d6000803e3d6000fd5b505050506040513d6000823e601f3d908101601f1916820160405261351d9190810190613b44565b90506000836001600160a01b0316630805372f87876040518363ffffffff1660e01b815260040161354f92919061414d565b60006040518083038186803b15801561356757600080fd5b505afa15801561357b573d6000803e3d6000fd5b505050506040513d6000823e601f3d908101601f191682016040526135a39190810190613b44565b9050826040015180156135b7575081604001515b6136035760405162461bcd60e51b815260206004820152601e60248201527f426f7468206275726e20706c616e6574732073686f756c6420657869737400006044820152606401610808565b82516040516331a9108f60e11b815233916001600160a01b03871691636352211e916136359160040190815260200190565b60206040518083038186803b15801561364d57600080fd5b505afa158015613661573d6000803e3d6000fd5b505050506040513d601f19601f8201168201806040525081019061368591906139a7565b6001600160a01b0316148015613723575081516040516331a9108f60e11b815233916001600160a01b03871691636352211e916136c89160040190815260200190565b60206040518083038186803b1580156136e057600080fd5b505afa1580156136f4573d6000803e3d6000fd5b505050506040513d601f19601f8201168201806040525081019061371891906139a7565b6001600160a01b0316145b61375b5760405162461bcd60e51b81526020600482015260096024820152682737ba1037bbb732b960b91b6044820152606401610808565b8060400151156111eb5760405162461bcd60e51b815260206004820152601d60248201527f4e657720706c616e657420494420616c7265616479206578697374732e0000006044820152606401610808565b8280546137b990614301565b90600052602060002090601f0160209004810192826137db5760008555613821565b82601f106137f457805160ff1916838001178555613821565b82800160010185558215613821579182015b82811115613821578251825591602001919060010190613806565b5061382d9291506138a5565b5090565b82805461383d90614301565b90600052602060002090601f01602090048101928261385f5760008555613821565b82601f106138785782800160ff19823516178555613821565b82800160010185558215613821579182015b8281111561382157823582559160200191906001019061388a565b5b8082111561382d57600081556001016138a6565b80516138c58161434c565b919050565b80516138c581614361565b60008083601f8401126138e6578182fd5b50813567ffffffffffffffff8111156138fd578182fd5b60208301915083602082850101111561391557600080fd5b9250929050565b600082601f83011261392c578081fd5b813561393f61393a8261425e565b61422d565b818152846020838601011115613953578283fd5b816020850160208301379081016020019190915292915050565b60006060828403121561397e578081fd5b50919050565b600060208284031215613995578081fd5b81356139a08161434c565b9392505050565b6000602082840312156139b8578081fd5b81516139a08161434c565b6000602082840312156139d4578081fd5b81356139a081614361565b6000602082840312156139f0578081fd5b81516139a081614361565b60008060208385031215613a0d578081fd5b823567ffffffffffffffff811115613a23578182fd5b613a2f858286016138d5565b90969095509350505050565b60008060008060008060c08789031215613a53578182fd5b863567ffffffffffffffff80821115613a6a578384fd5b613a768a838b016138d5565b909850965060208901359550869150613a928a60408b0161396d565b945060a0890135915080821115613aa7578384fd5b50613ab489828a016138d5565b979a9699509497509295939492505050565b600060208284031215613ad7578081fd5b813567ffffffffffffffff811115613aed578182fd5b613af98482850161391c565b949350505050565b60008060408385031215613b13578182fd5b823567ffffffffffffffff811115613b29578283fd5b613b358582860161391c565b95602094909401359450505050565b60006020808385031215613b56578182fd5b825167ffffffffffffffff80821115613b6d578384fd5b9084019060a08287031215613b80578384fd5b613b88614204565b825181528383015182811115613b9c578586fd5b83019150601f82018713613bae578485fd5b8151613bbc61393a8261425e565b8181528886838601011115613bcf578687fd5b613bde828783018887016142d1565b8286015250613bef604084016138ca565b6040820152613c00606084016138ca565b6060820152613c11608084016138ba565b60808201529695505050505050565b600060808284031215613c31578081fd5b6040516080810181811067ffffffffffffffff82111715613c5457613c54614336565b6040528251613c628161434c565b8152602083810151908201526040830151613c7c8161434c565b60408201526060830151613c8f8161434c565b60608201529392505050565b60008060008060008060c08789031215613cb3578384fd5b613cbd888861396d565b9550606087013567ffffffffffffffff80821115613cd9578586fd5b613ce58a838b016138d5565b90975095506080890135915080821115613cfd578384fd5b50613d0a89828a016138d5565b90945092505060a0870135613d1e81614361565b809150509295509295509295565b6000806000806000806000806000806101008b8d031215613d4b578788fd5b613d558c8c61396d565b995060608b013567ffffffffffffffff80821115613d7157898afd5b613d7d8e838f016138d5565b909b50995060808d0135915080821115613d95578586fd5b613da18e838f016138d5565b909950975060a08d0135965060c08d0135915080821115613dc0578586fd5b613dcc8e838f016138d5565b909650945060e08d0135915080821115613de4578384fd5b50613df18d828e016138d5565b915080935050809150509295989b9194979a5092959850565b600080600080600080600080610100898b031215613e26578182fd5b613e308a8a61396d565b9750606089013567ffffffffffffffff80821115613e4c578384fd5b613e588c838d016138d5565b909950975060808b0135965060a08b0135915080821115613e77578384fd5b50613e848b828c016138d5565b90955093505060c0890135915060e0890135613e9f8161434c565b809150509295985092959890939650565b600060208284031215613ec1578081fd5b5035919050565b600060208284031215613ed9578081fd5b5051919050565b600080600080600060608688031215613ef7578283fd5b85359450602086013567ffffffffffffffff80821115613f15578485fd5b613f2189838a016138d5565b90965094506040880135915080821115613f39578283fd5b50613f46888289016138d5565b969995985093965092949392505050565b60008151808452613f6f8160208601602086016142d1565b601f01601f19169290920160200192915050565b81835281816020850137506000828201602090810191909152601f909101601f19169091010190565b8183823760009101908152919050565b8385823760609290921b6bffffffffffffffffffffffff1916919092019081526014810191909152603401919050565b8486823760008582018181528486823792151560f81b9290930191825250600101949350505050565b888a82376000898201818152888a823788018781528587602083013785016020810182815284868237509092016020019182525098975050505050505050565b6001600160a01b038416815260a06020820152600061407760a0830185613f57565b9050823560ff811680821461408b57600080fd5b80604085015250506020830135606083015260408301356080830152949350505050565b6001600160a01b03861681526060602082015260006140d2606083018688613f83565b82810360408401526140e5818587613f83565b98975050505050505050565b6001600160a01b038816815260e06020820152600061411360e0830189613f57565b876040840152828103606084015261412b8188613f57565b6080840196909652505060a0810192909252151560c090910152949350505050565b602081526000613af9602083018486613f83565b604081526000614175604083018587613f83565b90508215156020830152949350505050565b6020815260006139a06020830184613f57565b60e0815260006141ad60e083018a613f57565b82810360208401526141bf818a613f57565b90506001600160a01b038816604084015286606084015285608084015284151560a084015282810360c08401526141f68185613f57565b9a9950505050505050505050565b60405160a0810167ffffffffffffffff8111828210171561422757614227614336565b60405290565b604051601f8201601f1916810167ffffffffffffffff8111828210171561425657614256614336565b604052919050565b600067ffffffffffffffff82111561427857614278614336565b50601f01601f191660200190565b6000826142a157634e487b7160e01b81526012600452602481fd5b500490565b60008160001904831182151516156142cc57634e487b7160e01b81526011600452602481fd5b500290565b60005b838110156142ec5781810151838201526020016142d4565b838111156142fb576000848401525b50505050565b600181811c9082168061431557607f821691505b6020821081141561397e57634e487b7160e01b600052602260045260246000fd5b634e487b7160e01b600052604160045260246000fd5b6001600160a01b0381168114612dd057600080fd5b8015158114612dd057600080fdfe4f776e61626c653a2063616c6c6572206973206e6f7420746865206f776e6572a2646970667358221220d609a033f767699474997ea8fbc76c031c28e2106a21ea9b053d3bfe0b81bbcc64736f6c63430008040033","abi":[{"inputs":[{"internalType":"address payable","name":"_blackMatterTokenAddress","type":"address"},{"internalType":"address","name":"_spaceRidersPlanetNFT","type":"address"},{"internalType":"address payable","name":"_feeWallet","type":"address"},{"internalType":"address","name":"_backendAddress","type":"address"}],"stateMutability":"nonpayable","type":"constructor"},{"anonymous":false,"inputs":[{"indexed":true,"internalType":"address","name":"previousOwner","type":"address"},{"indexed":true,"internalType":"address","name":"newOwner","type":"address"}],"name":"OwnershipTransferred","type":"event"},{"inputs":[],"name":"backendAddress","outputs":[{"internalType":"address","name":"","type":"address"}],"stateMutability":"view","type":"function"},{"inputs":[{"internalType":"uint256","name":"amount","type":"uint256"},{"internalType":"string","name":"guid","type":"string"},{"internalType":"string","name":"planetId","type":"string"}],"name":"bkmDeposit","outputs":[],"stateMutability":"payable","type":"function"},{"inputs":[{"internalType":"string","name":"","type":"string"},{"internalType":"uint256","name":"","type":"uint256"}],"name":"bkmTransactionMap","outputs":[{"internalType":"string","name":"","type":"string"}],"stateMutability":"view","type":"function"},{"inputs":[{"internalType":"string","name":"","type":"string"}],"name":"bkmTransactions","outputs":[{"internalType":"string","name":"guid","type":"string"},{"internalType":"string","name":"planetId","type":"string"},{"internalType":"address","name":"owner","type":"address"},{"internalType":"uint256","name":"createdTimestamp","type":"uint256"},{"internalType":"uint256","name":"amount","type":"uint256"},{"internalType":"bool","name":"exists","type":"bool"},{"internalType":"string","name":"txType","type":"string"}],"stateMutability":"view","type":"function"},{"inputs":[{"internalType":"uint256","name":"amount","type":"uint256"},{"internalType":"string","name":"guid","type":"string"},{"internalType":"string","name":"planetId","type":"string"}],"name":"bkmWithdraw","outputs":[],"stateMutability":"payable","type":"function"},{"inputs":[],"name":"bnbFee","outputs":[{"internalType":"uint256","name":"","type":"uint256"}],"stateMutability":"view","type":"function"},{"inputs":[{"internalType":"string","name":"planetGuid","type":"string"},{"internalType":"uint256","name":"planetPrice","type":"uint256"},{"components":[{"internalType":"uint8","name":"v","type":"uint8"},{"internalType":"bytes32","name":"r","type":"bytes32"},{"internalType":"bytes32","name":"s","type":"bytes32"}],"internalType":"struct OnlyBackend.signatureData","name":"sD","type":"tuple"},{"internalType":"string","name":"tokenURI","type":"string"}],"name":"buyPlanet","outputs":[],"stateMutability":"payable","type":"function"},{"inputs":[{"internalType":"uint256","name":"newBnbFee","type":"uint256"}],"name":"changeBnbFee","outputs":[],"stateMutability":"nonpayable","type":"function"},{"inputs":[],"name":"enablePlanetFusion","outputs":[{"internalType":"bool","name":"","type":"bool"}],"stateMutability":"view","type":"function"},{"inputs":[],"name":"enablePlanetPurchases","outputs":[{"internalType":"bool","name":"","type":"bool"}],"stateMutability":"view","type":"function"},{"inputs":[],"name":"enablePlanetTrading","outputs":[{"internalType":"bool","name":"","type":"bool"}],"stateMutability":"view","type":"function"},{"inputs":[{"internalType":"uint256","name":"amount","type":"uint256"},{"internalType":"string","name":"guid","type":"string"},{"internalType":"string","name":"planetId","type":"string"}],"name":"energyDeposit","outputs":[],"stateMutability":"payable","type":"function"},{"inputs":[{"internalType":"string","name":"","type":"string"}],"name":"energyDeposits","outputs":[{"internalType":"string","name":"guid","type":"string"},{"internalType":"string","name":"planetId","type":"string"},{"internalType":"address","name":"owner","type":"address"},{"internalType":"uint256","name":"createdTimestamp","type":"uint256"},{"internalType":"uint256","name":"amount","type":"uint256"},{"internalType":"bool","name":"exists","type":"bool"},{"internalType":"string","name":"txType","type":"string"}],"stateMutability":"view","type":"function"},{"inputs":[{"internalType":"string","name":"","type":"string"},{"internalType":"uint256","name":"","type":"uint256"}],"name":"energyDepositsMap","outputs":[{"internalType":"string","name":"","type":"string"}],"stateMutability":"view","type":"function"},{"inputs":[{"components":[{"internalType":"uint8","name":"v","type":"uint8"},{"internalType":"bytes32","name":"r","type":"bytes32"},{"internalType":"bytes32","name":"s","type":"bytes32"}],"internalType":"struct OnlyBackend.signatureData","name":"sD","type":"tuple"},{"internalType":"string","name":"burnPlanetGuid1","type":"string"},{"internalType":"string","name":"burnPlanetGuid2","type":"string"},{"internalType":"uint256","name":"tokenPrice","type":"uint256"},{"internalType":"string","name":"newPlanetGuid","type":"string"},{"internalType":"string","name":"newTokenURI","type":"string"}],"name":"fusionPlanet","outputs":[],"stateMutability":"payable","type":"function"},{"inputs":[{"internalType":"string","name":"guid","type":"string"}],"name":"getBkmTransactionMapCount","outputs":[{"internalType":"uint256","name":"","type":"uint256"}],"stateMutability":"view","type":"function"},{"inputs":[{"internalType":"string","name":"guid","type":"string"}],"name":"getEnergyDepositsMapCount","outputs":[{"internalType":"uint256","name":"","type":"uint256"}],"stateMutability":"view","type":"function"},{"inputs":[],"name":"owner","outputs":[{"internalType":"address","name":"","type":"address"}],"stateMutability":"view","type":"function"},{"inputs":[],"name":"renounceOwnership","outputs":[],"stateMutability":"nonpayable","type":"function"},{"inputs":[{"internalType":"address","name":"backendSignerAddress","type":"address"}],"name":"setBackendAddress","outputs":[],"stateMutability":"nonpayable","type":"function"},{"inputs":[{"internalType":"bool","name":"enabled","type":"bool"}],"name":"setBenefitStakingEnabled","outputs":[],"stateMutability":"nonpayable","type":"function"},{"inputs":[{"internalType":"uint256","name":"newFee","type":"uint256"}],"name":"setBenefitStakingPerformanceFeeBP","outputs":[],"stateMutability":"nonpayable","type":"function"},{"inputs":[{"internalType":"address payable","name":"newFeeWallet","type":"address"}],"name":"setFeeWallet","outputs":[],"stateMutability":"nonpayable","type":"function"},{"inputs":[{"components":[{"internalType":"uint8","name":"v","type":"uint8"},{"internalType":"bytes32","name":"r","type":"bytes32"},{"internalType":"bytes32","name":"s","type":"bytes32"}],"internalType":"struct OnlyBackend.signatureData","name":"sD","type":"tuple"},{"internalType":"string","name":"planetId","type":"string"},{"internalType":"uint256","name":"amount","type":"uint256"},{"internalType":"string","name":"tier","type":"string"},{"internalType":"uint256","name":"timeRelease","type":"uint256"},{"internalType":"address","name":"router","type":"address"}],"name":"stakingRequestV2","outputs":[],"stateMutability":"payable","type":"function"},{"inputs":[{"internalType":"bool","name":"enable","type":"bool"}],"name":"toggleBkmDeposits","outputs":[],"stateMutability":"nonpayable","type":"function"},{"inputs":[{"internalType":"bool","name":"enable","type":"bool"}],"name":"toggleBkmWithdraws","outputs":[],"stateMutability":"nonpayable","type":"function"},{"inputs":[{"internalType":"bool","name":"enable","type":"bool"}],"name":"toggleEnergyDeposits","outputs":[],"stateMutability":"nonpayable","type":"function"},{"inputs":[{"internalType":"bool","name":"enable","type":"bool"}],"name":"togglePlanetFusion","outputs":[],"stateMutability":"nonpayable","type":"function"},{"inputs":[{"internalType":"bool","name":"enable","type":"bool"}],"name":"togglePlanetPurchases","outputs":[],"stateMutability":"nonpayable","type":"function"},{"inputs":[{"components":[{"internalType":"uint8","name":"v","type":"uint8"},{"internalType":"bytes32","name":"r","type":"bytes32"},{"internalType":"bytes32","name":"s","type":"bytes32"}],"internalType":"struct OnlyBackend.signatureData","name":"sD","type":"tuple"},{"internalType":"string","name":"requestId","type":"string"},{"internalType":"string","name":"planetGuid","type":"string"},{"internalType":"bool","name":"trading","type":"bool"}],"name":"togglePlanetTrading","outputs":[],"stateMutability":"payable","type":"function"},{"inputs":[{"internalType":"bool","name":"enable","type":"bool"}],"name":"togglePlanetTrading","outputs":[],"stateMutability":"nonpayable","type":"function"},{"inputs":[{"internalType":"string","name":"","type":"string"}],"name":"togglePlanetTradingRequests","outputs":[{"internalType":"bool","name":"","type":"bool"}],"stateMutability":"view","type":"function"},{"inputs":[{"internalType":"address","name":"newOwner","type":"address"}],"name":"transferOwnership","outputs":[],"stateMutability":"nonpayable","type":"function"},{"inputs":[{"internalType":"string","name":"planetId","type":"string"}],"name":"unstakingRequestV2","outputs":[],"stateMutability":"payable","type":"function"},{"inputs":[{"internalType":"string","name":"","type":"string"}],"name":"userStaking","outputs":[{"internalType":"address","name":"owner","type":"address"},{"internalType":"string","name":"planetId","type":"string"},{"internalType":"uint256","name":"amount","type":"uint256"},{"internalType":"string","name":"tier","type":"string"},{"internalType":"uint256","name":"time","type":"uint256"},{"internalType":"uint256","name":"timeRelease","type":"uint256"},{"internalType":"bool","name":"staked","type":"bool"}],"stateMutability":"view","type":"function"},{"inputs":[{"internalType":"string","name":"","type":"string"}],"name":"userStakingLpInfo","outputs":[{"internalType":"address","name":"wallet","type":"address"},{"internalType":"uint256","name":"lpAmount","type":"uint256"},{"internalType":"address","name":"router","type":"address"},{"internalType":"address","name":"pair","type":"address"}],"stateMutability":"view","type":"function"}]}