{"address":"0x557A519313D7E4abf0337208B3D65ad36A2cED3E","bytecode":"0x6080604052600180546001600160a01b03191661dead1781556608e1bc9bf040006007556005600855601e6009556032600a819055600f600b819055600c805460ff191690931790925590556012805463ffffffff19166101011790553480156200006957600080fd5b50604051620048b9380380620048b98339810160408190526200008c916200014a565b6200009733620000fa565b600380546001600160a01b03199081166001600160a01b03978816179091556004805482169587169590951790945560028054851693861693909317909255600680548416918516919091179055600580549092169216919091179055620001e2565b600080546001600160a01b038381166001600160a01b0319831681178455604051919092169283917f8be0079c531659141344cd1fd0a4f28419497f9722a3daafe3b4186f6b6457e09190a35050565b600080600080600060a0868803121562000162578081fd5b85516200016f81620001c9565b60208701519095506200018281620001c9565b60408701519094506200019581620001c9565b6060870151909350620001a881620001c9565b6080870151909250620001bb81620001c9565b809150509295509295909350565b6001600160a01b0381168114620001df57600080fd5b50565b6146c780620001f26000396000f3fe6080604052600436106101f95760003560e01c80638da5cb5b1161010d578063c9513dbd116100a0578063efc174151161006f578063efc1741514610680578063f23b5e2514610696578063f2fde38b146106b6578063f4c07d81146106d6578063fcd55574146106e957600080fd5b8063c9513dbd1461056a578063d1ecc46114610612578063d963d89b14610625578063ea25ebb21461066057600080fd5b8063aa6c9144116100dc578063aa6c9144146104f8578063b459a6951461050b578063be43cf0d1461052a578063c4340f921461054a57600080fd5b80638da5cb5b146104745780638e8bc9b01461049257806390d49b9d146104c5578063919423f7146104e557600080fd5b80634de81205116101905780636822a86f1161015f5780636822a86f146103c4578063715018a6146103f257806372948916146104075780637c2727b914610434578063826c220c1461045457600080fd5b80634de81205146103185780634f26992b146103385780635acb36ce14610383578063672f967c146103a457600080fd5b8063200a7994116101cc578063200a799414610283578063337b70ad146102b357806344b1fa1c146102c657806345fba4f3146102f857600080fd5b80630d72d57f146101fe57806312a9aea91461023b5780631815ce7d1461025057806318a26c8614610270575b600080fd5b34801561020a57600080fd5b5060065461021e906001600160a01b031681565b6040516001600160a01b0390911681526020015b60405180910390f35b61024e610249366004613b75565b610709565b005b34801561025c57600080fd5b5061024e61026b366004613ac5565b610ba6565b61024e61027e366004613deb565b610c10565b34801561028f57600080fd5b506102a361029e366004613c00565b611006565b6040516102329493929190614454565b61024e6102c1366004613fcb565b6110d0565b3480156102d257600080fd5b506102e66102e1366004613c00565b6116dc565b6040516102329695949392919061448e565b34801561030457600080fd5b5061024e610313366004613afd565b611839565b34801561032457600080fd5b5061024e610333366004613afd565b61189b565b34801561034457600080fd5b50610373610353366004613c00565b805160208183018101805160158252928201919093012091525460ff1681565b6040519015158152602001610232565b34801561038f57600080fd5b50601254610373906301000000900460ff1681565b3480156103b057600080fd5b5061024e6103bf36600461405c565b611901565b3480156103d057600080fd5b506103e46103df366004613b35565b61194e565b604051908152602001610232565b3480156103fe57600080fd5b5061024e61197a565b34801561041357600080fd5b50610427610422366004613c3b565b6119ce565b6040516102329190614441565b34801561044057600080fd5b5061024e61044f366004614159565b611a96565b34801561046057600080fd5b5061024e61046f366004613f5a565b611b5a565b34801561048057600080fd5b506000546001600160a01b031661021e565b34801561049e57600080fd5b506104b26104ad366004613c00565b611eaa565b60405161023297969594939291906143ab565b3480156104d157600080fd5b5061024e6104e0366004613ac5565b61200f565b61024e6104f3366004614103565b612079565b61024e61050636600461408c565b6122bc565b34801561051757600080fd5b5060125461037390610100900460ff1681565b34801561053657600080fd5b506012546103739062010000900460ff1681565b34801561055657600080fd5b5061024e610565366004613afd565b6126d1565b34801561057657600080fd5b506105d4610585366004613c00565b8051602081830181018051600e825292820191909301209152805460018201546002830154600384015460048501546005909501546001600160a01b0394851695939492939192918216911686565b604080516001600160a01b039788168152602081019690965285019390935260608401919091528316608083015290911660a082015260c001610232565b61024e610620366004613e7c565b612735565b34801561063157600080fd5b50610373610640366004613c00565b805160208183018101805160138252928201919093012091525460ff1681565b34801561066c57600080fd5b5061024e61067b366004613afd565b6129e4565b34801561068c57600080fd5b506103e460075481565b3480156106a257600080fd5b5061024e6106b1366004613afd565b612a3f565b3480156106c257600080fd5b5061024e6106d1366004613ac5565b612a9a565b61024e6106e4366004613b35565b612b53565b3480156106f557600080fd5b5061024e61070436600461405c565b6131af565b600061071d6003546001600160a01b031690565b60048054604051630805372f60e01b81529293506001600160a01b0316916000918391630805372f91610754918d918d9101614407565b60006040518083038186803b15801561076c57600080fd5b505afa158015610780573d6000803e3d6000fd5b505050506040513d6000823e601f3d908101601f191682016040526107a89190810190613c7e565b601254909150610100900460ff166108075760405162461bcd60e51b815260206004820152601e60248201527f50757263686173696e6720706c616e6574732069732064697361626c6564000060448201526064015b60405180910390fd5b8060400151156108595760405162461bcd60e51b815260206004820152601a60248201527f506c616e6574206775696420616c72656164792065786973747300000000000060448201526064016107fe565b604051632587701560e11b815233600482015287906001600160a01b03851690634b0ee02a9060240160206040518083038186803b15801561089a57600080fd5b505afa1580156108ae573d6000803e3d6000fd5b505050506040513d601f19601f820116820180604052508101906108d29190614074565b10156109155760405162461bcd60e51b81526020600482015260126024820152712737ba1032b737bab3b4103a37b5b2b7399760711b60448201526064016107fe565b604051636eb1769f60e11b815233600482015230602482015287906001600160a01b0385169063dd62ed3e9060440160206040518083038186803b15801561095c57600080fd5b505afa158015610970573d6000803e3d6000fd5b505050506040513d601f19601f820116820180604052508101906109949190614074565b10156109e25760405162461bcd60e51b815260206004820152601960248201527f417070726f7665207472616e73616374696f6e2066697273740000000000000060448201526064016107fe565b6007543414610a2b5760405162461bcd60e51b81526020600482015260156024820152744e6f742073656e6420656e6f75676820424e42277360581b60448201526064016107fe565b60008989338a604051602001610a44949392919061422e565b60408051601f1981840301815290829052600654633248da1f60e11b835290925073__$ad9ca387392769a074e8e3cd9fd740c701$__91636491b43e91610a9d916001600160a01b039091169085908c9060040161430f565b60006040518083038186803b158015610ab557600080fd5b505af4158015610ac9573d6000803e3d6000fd5b50505050610ad6886131fc565b6002546007546040516001600160a01b039092169181156108fc0291906000818181858888f19350505050158015610b12573d6000803e3d6000fd5b506040516351f71c5760e11b81526001600160a01b0384169063a3ee38ae90610b479033908e908e908c908c90600401614369565b602060405180830381600087803b158015610b6157600080fd5b505af1158015610b75573d6000803e3d6000fd5b505050506040513d601f19601f82011682018060405250810190610b999190614074565b5050505050505050505050565b6000546001600160a01b03163314610bee5760405162461bcd60e51b8152602060048201819052602482015260008051602061467283398151915260448201526064016107fe565b600680546001600160a01b0319166001600160a01b0392909216919091179055565b6012546301000000900460ff16610c735760405162461bcd60e51b815260206004820152602160248201527f506c616e65742074726164696e6720746f67676c65206e6f7420656e61626c656044820152601960fa1b60648201526084016107fe565b60048054604051630805372f60e01b81526001600160a01b03909116916000918391630805372f91610ca9918991899101614407565b60006040518083038186803b158015610cc157600080fd5b505afa158015610cd5573d6000803e3d6000fd5b505050506040513d6000823e601f3d908101601f19168201604052610cfd9190810190613c7e565b905060138787604051610d1192919061421e565b9081526040519081900360200190205460ff1615610d715760405162461bcd60e51b815260206004820152601c60248201527f416c726561647920746f67676c65642077697468207265712e2069640000000060448201526064016107fe565b8060400151610dc25760405162461bcd60e51b815260206004820152601460248201527f506c616e657420646f65736e742065786973747300000000000000000000000060448201526064016107fe565b80516040516331a9108f60e11b815233916001600160a01b03851691636352211e91610df49160040190815260200190565b60206040518083038186803b158015610e0c57600080fd5b505afa158015610e20573d6000803e3d6000fd5b505050506040513d601f19601f82011682018060405250810190610e449190613ae1565b6001600160a01b031614610e865760405162461bcd60e51b81526020600482015260096024820152682737ba1037bbb732b960b91b60448201526064016107fe565b60008787878787604051602001610ea195949392919061425e565b60408051601f1981840301815290829052600654633248da1f60e11b835290925073__$ad9ca387392769a074e8e3cd9fd740c701$__91636491b43e91610efa916001600160a01b039091169085908e9060040161430f565b60006040518083038186803b158015610f1257600080fd5b505af4158015610f26573d6000803e3d6000fd5b50505050600160138989604051610f3e92919061421e565b908152604051908190036020018120805492151560ff199093169290921790915563c876022760e01b81526001600160a01b0384169063c876022790610f8c9089908990899060040161441b565b600060405180830381600087803b158015610fa657600080fd5b505af1158015610fba573d6000803e3d6000fd5b50506002546007546040516001600160a01b03909216935080156108fc029250906000818181858888f19350505050158015610ffa573d6000803e3d6000fd5b50505050505050505050565b805160208183018101805160148252928201919093012091528054819061102c906145ed565b80601f0160208091040260200160405190810160405280929190818152602001828054611058906145ed565b80156110a55780601f1061107a576101008083540402835291602001916110a5565b820191906000526020600020905b81548152906001019060200180831161108857829003601f168201915b505050506001830154600284015460039094015492936001600160a01b039091169290915060ff1684565b60006110e46003546001600160a01b031690565b600c5490915060ff166111395760405162461bcd60e51b815260206004820152601760248201527f5374616b696e67206973206e6f7420656e61626c65642e00000000000000000060448201526064016107fe565b600d878760405161114b92919061421e565b9081526040519081900360200190206006015460ff16156111ae5760405162461bcd60e51b815260206004820152601760248201527f4f6e6c792031207374616b696e67206174206f6e63652e00000000000000000060448201526064016107fe565b4282116112095760405162461bcd60e51b815260206004820152602360248201527f54696d652063616e74206265206c657373207468616e2063757272656e742074604482015262696d6560e81b60648201526084016107fe565b604051632587701560e11b815233600482015285906001600160a01b03831690634b0ee02a9060240160206040518083038186803b15801561124a57600080fd5b505afa15801561125e573d6000803e3d6000fd5b505050506040513d601f19601f820116820180604052508101906112829190614074565b10156112c55760405162461bcd60e51b81526020600482015260126024820152712737ba1032b737bab3b4103a37b5b2b7399760711b60448201526064016107fe565b600754341461130e5760405162461bcd60e51b81526020600482015260156024820152744e6f742073656e6420656e6f75676820424e42277360581b60448201526064016107fe565b6002546007546040516001600160a01b039092169181156108fc0291906000818181858888f1935050505015801561134a573d6000803e3d6000fd5b50600061136e612710611368600f54896134df90919063ffffffff16565b906134f2565b6002546040516323b872dd60e01b81523360048201526001600160a01b039182166024820152604481018390529192508316906323b872dd90606401602060405180830381600087803b1580156113c457600080fd5b505af11580156113d8573d6000803e3d6000fd5b505050506040513d601f19601f820116820180604052508101906113fc9190613b19565b5060405163999a7ee760e01b8152600060048201819052906001600160a01b0384169063999a7ee79060240160206040518083038186803b15801561144057600080fd5b505afa158015611454573d6000803e3d6000fd5b505050506040513d601f19601f820116820180604052508101906114789190613ae1565b604051631c81c79560e11b81523360048201526001600160a01b038083166024830152604482018a9052919250908416906339038f2a9060640160c060405180830381600087803b1580156114cc57600080fd5b505af11580156114e0573d6000803e3d6000fd5b505050506040513d601f19601f820116820180604052508101906115049190613d5a565b600e8a8a60405161151692919061421e565b9081526040805160209281900383018120845181546001600160a01b03199081166001600160a01b03928316178355868601516001840155868501516002840155606087015160038401556080870151600484018054831691841691909117905560a0909601516005909201805490961691161790935560e0830181523383528051601f8c018390048302810183019091528a8152818301918c908c908190840183828082843760009201919091525050509082525060208082018a905260408051601f8a0183900483028101830182528981529201919089908990819084018382808284376000920191909152505050908252504260208201526040808201879052600160609092019190915251600d90611635908c908c9061421e565b90815260405160209181900382019020825181546001600160a01b0319166001600160a01b03909116178155828201518051919261167b926001850192909101906138ee565b5060408201516002820155606082015180516116a19160038401916020909101906138ee565b506080820151600482015560a0820151600582015560c0909101516006909101805460ff191691151591909117905550505050505050505050565b8051602081830181018051601082529282019190930120915280548190611702906145ed565b80601f016020809104026020016040519081016040528092919081815260200182805461172e906145ed565b801561177b5780601f106117505761010080835404028352916020019161177b565b820191906000526020600020905b81548152906001019060200180831161175e57829003601f168201915b505050505090806001018054611790906145ed565b80601f01602080910402602001604051908101604052809291908181526020018280546117bc906145ed565b80156118095780601f106117de57610100808354040283529160200191611809565b820191906000526020600020905b8154815290600101906020018083116117ec57829003601f168201915b5050505060028301546003840154600485015460059095015493946001600160a01b039092169390925060ff1686565b6000546001600160a01b031633146118815760405162461bcd60e51b8152602060048201819052602482015260008051602061467283398151915260448201526064016107fe565b601280549115156101000261ff0019909216919091179055565b6000546001600160a01b031633146118e35760405162461bcd60e51b8152602060048201819052602482015260008051602061467283398151915260448201526064016107fe565b6012805491151563010000000263ff00000019909216919091179055565b6000546001600160a01b031633146119495760405162461bcd60e51b8152602060048201819052602482015260008051602061467283398151915260448201526064016107fe565b600f55565b60006011838360405161196292919061421e565b90815260405190819003602001902054905092915050565b6000546001600160a01b031633146119c25760405162461bcd60e51b8152602060048201819052602482015260008051602061467283398151915260448201526064016107fe565b6119cc60006134fe565b565b815160208184018101805160118252928201918501919091209190528054829081106119f957600080fd5b90600052602060002001600091509150508054611a15906145ed565b80601f0160208091040260200160405190810160405280929190818152602001828054611a41906145ed565b8015611a8e5780601f10611a6357610100808354040283529160200191611a8e565b820191906000526020600020905b815481529060010190602001808311611a7157829003601f168201915b505050505081565b6000546001600160a01b03163314611ade5760405162461bcd60e51b8152602060048201819052602482015260008051602061467283398151915260448201526064016107fe565b600854600b54600a54600954611af49190614566565b611afe9190614566565b611b089190614566565b606414611b465760405162461bcd60e51b815260206004820152600c60248201526b0546f74616c203d3d203130360a41b60448201526064016107fe565b600993909355600a91909155600b55600855565b600084848484604051602001611b7394939291906142c7565b60408051601f1981840301815290829052600654633248da1f60e11b835290925073__$ad9ca387392769a074e8e3cd9fd740c701$__91636491b43e91611bcc916001600160a01b039091169085908b9060040161430f565b60006040518083038186803b158015611be457600080fd5b505af4158015611bf8573d6000803e3d6000fd5b5050505060148585604051611c0e92919061421e565b9081526040519081900360200190206003015460ff1615611c715760405162461bcd60e51b815260206004820152601660248201527f5265717565737420616c7265616479206578697374730000000000000000000060448201526064016107fe565b336001600160a01b03831614611cc95760405162461bcd60e51b815260206004820152601360248201527f52657175657374206e6f7420666f7220796f750000000000000000000000000060448201526064016107fe565b604051806080016040528086868080601f0160208091040260200160405190810160405280939291908181526020018383808284376000920191909152505050908252503360208201526040808201869052600160609092019190915251601490611d37908890889061421e565b90815260200160405180910390206000820151816000019080519060200190611d619291906138ee565b5060208201516001820180546001600160a01b0319166001600160a01b03928316179055604083015160028301556060909201516003909101805460ff1916911515919091179055600554166001600160a01b0316639260e726846040518263ffffffff1660e01b8152600401611dda91815260200190565b600060405180830381600087803b158015611df457600080fd5b505af1158015611e08573d6000803e3d6000fd5b50505050611e1e6003546001600160a01b031690565b60405163a9059cbb60e01b8152336004820152602481018590526001600160a01b03919091169063a9059cbb906044015b602060405180830381600087803b158015611e6957600080fd5b505af1158015611e7d573d6000803e3d6000fd5b505050506040513d601f19601f82011682018060405250810190611ea19190613b19565b50505050505050565b8051602081830181018051600d82529282019190930120915280546001820180546001600160a01b039092169291611ee1906145ed565b80601f0160208091040260200160405190810160405280929190818152602001828054611f0d906145ed565b8015611f5a5780601f10611f2f57610100808354040283529160200191611f5a565b820191906000526020600020905b815481529060010190602001808311611f3d57829003601f168201915b505050505090806002015490806003018054611f75906145ed565b80601f0160208091040260200160405190810160405280929190818152602001828054611fa1906145ed565b8015611fee5780601f10611fc357610100808354040283529160200191611fee565b820191906000526020600020905b815481529060010190602001808311611fd157829003601f168201915b50505050600483015460058401546006909401549293909290915060ff1687565b6000546001600160a01b031633146120575760405162461bcd60e51b8152602060048201819052602482015260008051602061467283398151915260448201526064016107fe565b600280546001600160a01b0319166001600160a01b0392909216919091179055565b60158260405161208991906142f3565b9081526040519081900360200190205460ff16156120e95760405162461bcd60e51b815260206004820152601b60248201527f505020696e63726561736520616c726561647920636c61696d6564000000000060448201526064016107fe565b60075434146121325760405162461bcd60e51b81526020600482015260156024820152744e6f742073656e6420656e6f75676820424e42277360581b60448201526064016107fe565b6002546007546040516001600160a01b039092169181156108fc0291906000818181858888f1935050505015801561216e573d6000803e3d6000fd5b5060006121836003546001600160a01b031690565b9050600033848660405160200161219c939291906141df565b60408051601f1981840301815290829052600654633248da1f60e11b835290925073__$ad9ca387392769a074e8e3cd9fd740c701$__91636491b43e916121f5916001600160a01b03909116908590889060040161430f565b60006040518083038186803b15801561220d57600080fd5b505af4158015612221573d6000803e3d6000fd5b50505050600160158560405161223791906142f3565b908152604051908190036020018120805492151560ff19909316929092179091556348859c6960e11b8152336004820152602481018690526001600160a01b0383169063910b38d290604401600060405180830381600087803b15801561229d57600080fd5b505af11580156122b1573d6000803e3d6000fd5b505050505050505050565b60006122d06003546001600160a01b031690565b60125490915060ff166123315760405162461bcd60e51b8152602060048201526024808201527f4465706f736974696e6720656e6572677920746f6b656e732069732064697361604482015263189b195960e21b60648201526084016107fe565b604051632587701560e11b815233600482015286906001600160a01b03831690634b0ee02a9060240160206040518083038186803b15801561237257600080fd5b505afa158015612386573d6000803e3d6000fd5b505050506040513d601f19601f820116820180604052508101906123aa9190614074565b10156123ed5760405162461bcd60e51b81526020600482015260126024820152712737ba1032b737bab3b4103a37b5b2b7399760711b60448201526064016107fe565b604051636eb1769f60e11b815233600482015230602482015286906001600160a01b0383169063dd62ed3e9060440160206040518083038186803b15801561243457600080fd5b505afa158015612448573d6000803e3d6000fd5b505050506040513d601f19601f8201168201806040525081019061246c9190614074565b10156124ba5760405162461bcd60e51b815260206004820152601960248201527f417070726f7665207472616e73616374696f6e2066697273740000000000000060448201526064016107fe565b60075434146125035760405162461bcd60e51b81526020600482015260156024820152744e6f742073656e6420656e6f75676820424e42277360581b60448201526064016107fe565b6040518060c0016040528086868080601f016020809104026020016040519081016040528093929190818152602001838380828437600092019190915250505090825250604080516020601f87018190048102820181019092528581529181019190869086908190840183828082843760009201919091525050509082525033602082015242604080830191909152606082018990526001608090920191909152516010906125b5908890889061421e565b908152602001604051809103902060008201518160000190805190602001906125df9291906138ee565b5060208281015180516125f892600185019201906138ee565b506040828101516002830180546001600160a01b0319166001600160a01b03909216919091179055606083015160038301556080830151600483015560a0909201516005909101805460ff19169115159190911790555160119061265f908590859061421e565b908152604051602091819003820190208054600181018255600091825291902061268b91018686613972565b50612695866131fc565b6002546007546040516001600160a01b039092169181156108fc0291906000818181858888f19350505050158015611ea1573d6000803e3d6000fd5b6000546001600160a01b031633146127195760405162461bcd60e51b8152602060048201819052602482015260008051602061467283398151915260448201526064016107fe565b60128054911515620100000262ff000019909216919091179055565b60125462010000900460ff1661278d5760405162461bcd60e51b815260206004820152601660248201527f506c616e657420667573696f6e2064697361626c65640000000000000000000060448201526064016107fe565b61279b89898989888861354e565b60065460405173__$ad9ca387392769a074e8e3cd9fd740c701$__91636491b43e916001600160a01b03909116906127e7908d908d908d908d908d908d908d908d908d90602001614287565b6040516020818303038152906040528d6040518463ffffffff1660e01b81526004016128159392919061430f565b60006040518083038186803b15801561282d57600080fd5b505af4158015612841573d6000803e3d6000fd5b50506004805460405163a257ccf360e01b81526001600160a01b03909116935083925063a257ccf391612878918e918e9101614407565b600060405180830381600087803b15801561289257600080fd5b505af11580156128a6573d6000803e3d6000fd5b505060405163a257ccf360e01b81526001600160a01b038416925063a257ccf391506128d8908b908b90600401614407565b600060405180830381600087803b1580156128f257600080fd5b505af1158015612906573d6000803e3d6000fd5b50505050612913866131fc565b6002546007546040516001600160a01b039092169181156108fc0291906000818181858888f1935050505015801561294f573d6000803e3d6000fd5b506040516351f71c5760e11b81526001600160a01b0382169063a3ee38ae906129849033908990899089908990600401614369565b602060405180830381600087803b15801561299e57600080fd5b505af11580156129b2573d6000803e3d6000fd5b505050506040513d601f19601f820116820180604052508101906129d69190614074565b505050505050505050505050565b6000546001600160a01b03163314612a2c5760405162461bcd60e51b8152602060048201819052602482015260008051602061467283398151915260448201526064016107fe565b600c805460ff1916911515919091179055565b6000546001600160a01b03163314612a875760405162461bcd60e51b8152602060048201819052602482015260008051602061467283398151915260448201526064016107fe565b6012805460ff1916911515919091179055565b6000546001600160a01b03163314612ae25760405162461bcd60e51b8152602060048201819052602482015260008051602061467283398151915260448201526064016107fe565b6001600160a01b038116612b475760405162461bcd60e51b815260206004820152602660248201527f4f776e61626c653a206e6577206f776e657220697320746865207a65726f206160448201526564647265737360d01b60648201526084016107fe565b612b50816134fe565b50565b600d8282604051612b6592919061421e565b9081526040519081900360200190206006015460ff16612bdd5760405162461bcd60e51b815260206004820152602d60248201527f596f7520617265206e6f74207374616b696e672c206e6f20776974686472617760448201526c30b61030bb30b4b630b136329760991b60648201526084016107fe565b600d8282604051612bef92919061421e565b9081526020016040518091039020600501544211612c4f5760405162461bcd60e51b815260206004820152601f60248201527f5374616b696e6720706572696f64206973206e6f742066696e69736865642e0060448201526064016107fe565b336001600160a01b0316600d8383604051612c6b92919061421e565b908152604051908190036020019020546001600160a01b031614612cd15760405162461bcd60e51b815260206004820152601160248201527f4e6f7420796f7572207374616b696e672e00000000000000000000000000000060448201526064016107fe565b6007543414612d1a5760405162461bcd60e51b81526020600482015260156024820152744e6f742073656e6420656e6f75676820424e42277360581b60448201526064016107fe565b6002546007546040516001600160a01b039092169181156108fc0291906000818181858888f19350505050158015612d56573d6000803e3d6000fd5b506000600d8383604051612d6b92919061421e565b9081526020016040518091039020600401819055506000600d8383604051612d9492919061421e565b90815260200160405180910390206005018190555060405180602001604052806000815250600d8383604051612dcb92919061421e565b90815260200160405180910390206001019080519060200190612def9291906138ee565b5060405180602001604052806000815250600d8383604051612e1292919061421e565b90815260200160405180910390206003019080519060200190612e369291906138ee565b506000600d8383604051612e4b92919061421e565b9081526020016040518091039020600201819055506000600d8383604051612e7492919061421e565b908152604051908190036020018120600601805492151560ff1990931692909217909155600090600e90612eab908590859061421e565b908152604051908190036020018120546001600160a01b03169150600090600e90612ed9908690869061421e565b90815260200160405180910390206001015490506000600e8585604051612f0192919061421e565b90815260200160405180910390206002015490506000600e8686604051612f2992919061421e565b90815260200160405180910390206003015490506000600e8787604051612f5192919061421e565b908152604051908190036020018120600401546001600160a01b03169150600090600e90612f82908a908a9061421e565b908152604051908190036020018120600501546001600160a01b03169150600090600e90612fb3908b908b9061421e565b9081526020016040518091039020600101819055506000600e8989604051612fdc92919061421e565b9081526020016040518091039020600201819055506000600e898960405161300592919061421e565b9081526020016040518091039020600301819055506000600e898960405161302e92919061421e565b908152602001604051809103902060040160006101000a8154816001600160a01b0302191690836001600160a01b031602179055506000600e898960405161307792919061421e565b908152604080516020928190038301812060050180546001600160a01b0319166001600160a01b0395861617905560035463a9059cbb60e01b8252841660048201819052602482018a90529151919385169263a9059cbb926044808401938290030181600087803b1580156130eb57600080fd5b505af11580156130ff573d6000803e3d6000fd5b505050506040513d601f19601f820116820180604052508101906131239190613b19565b506040516387b7a26760e01b81526001600160a01b03848116600483015283811660248301526044820188905288811660648301526084820187905260a482018690528216906387b7a2679060c401600060405180830381600087803b15801561318c57600080fd5b505af11580156131a0573d6000803e3d6000fd5b50505050505050505050505050565b6000546001600160a01b031633146131f75760405162461bcd60e51b8152602060048201819052602482015260008051602061467283398151915260448201526064016107fe565b600755565b60006132106003546001600160a01b031690565b6040516323b872dd60e01b8152336004820152306024820152604481018490529091506001600160a01b038216906323b872dd90606401602060405180830381600087803b15801561326157600080fd5b505af1158015613275573d6000803e3d6000fd5b505050506040513d601f19601f820116820180604052508101906132999190613b19565b506009546000906132b5906132af8560646134f2565b906134df565b905060006132d3600a546132af6064876134f290919063ffffffff16565b905060006132f1600b546132af6064886134f290919063ffffffff16565b9050600061330f6008546132af6064896134f290919063ffffffff16565b60035460405163a9059cbb60e01b81526001600160a01b0391821660048201526024810187905291925086169063a9059cbb90604401602060405180830381600087803b15801561335f57600080fd5b505af1158015613373573d6000803e3d6000fd5b505050506040513d601f19601f820116820180604052508101906133979190613b19565b5060055460405163a9059cbb60e01b81526001600160a01b039182166004820152602481018590529086169063a9059cbb90604401602060405180830381600087803b1580156133e657600080fd5b505af11580156133fa573d6000803e3d6000fd5b505050506040513d601f19601f8201168201806040525081019061341e9190613b19565b5060025460405163a9059cbb60e01b81526001600160a01b039182166004820152602481018490529086169063a9059cbb90604401602060405180830381600087803b15801561346d57600080fd5b505af1158015613481573d6000803e3d6000fd5b505050506040513d601f19601f820116820180604052508101906134a59190613b19565b5060015460405163a9059cbb60e01b81526001600160a01b039182166004820152602481018390529086169063a9059cbb90604401611e4f565b60006134eb828461459e565b9392505050565b60006134eb828461457e565b600080546001600160a01b038381166001600160a01b0319831681178455604051919092169283917f8be0079c531659141344cd1fd0a4f28419497f9722a3daafe3b4186f6b6457e09190a35050565b60048054604051630805372f60e01b81526001600160a01b03909116916000918391630805372f91613584918c918c9101614407565b60006040518083038186803b15801561359c57600080fd5b505afa1580156135b0573d6000803e3d6000fd5b505050506040513d6000823e601f3d908101601f191682016040526135d89190810190613c7e565b90506000826001600160a01b0316630805372f88886040518363ffffffff1660e01b815260040161360a929190614407565b60006040518083038186803b15801561362257600080fd5b505afa158015613636573d6000803e3d6000fd5b505050506040513d6000823e601f3d908101601f1916820160405261365e9190810190613c7e565b90506000836001600160a01b0316630805372f87876040518363ffffffff1660e01b8152600401613690929190614407565b60006040518083038186803b1580156136a857600080fd5b505afa1580156136bc573d6000803e3d6000fd5b505050506040513d6000823e601f3d908101601f191682016040526136e49190810190613c7e565b9050826040015180156136f8575081604001515b6137445760405162461bcd60e51b815260206004820152601e60248201527f426f7468206275726e20706c616e6574732073686f756c64206578697374000060448201526064016107fe565b82516040516331a9108f60e11b815233916001600160a01b03871691636352211e916137769160040190815260200190565b60206040518083038186803b15801561378e57600080fd5b505afa1580156137a2573d6000803e3d6000fd5b505050506040513d601f19601f820116820180604052508101906137c69190613ae1565b6001600160a01b0316148015613864575081516040516331a9108f60e11b815233916001600160a01b03871691636352211e916138099160040190815260200190565b60206040518083038186803b15801561382157600080fd5b505afa158015613835573d6000803e3d6000fd5b505050506040513d601f19601f820116820180604052508101906138599190613ae1565b6001600160a01b0316145b61389c5760405162461bcd60e51b81526020600482015260096024820152682737ba1037bbb732b960b91b60448201526064016107fe565b806040015115610ffa5760405162461bcd60e51b815260206004820152601d60248201527f4e657720706c616e657420494420616c7265616479206578697374732e00000060448201526064016107fe565b8280546138fa906145ed565b90600052602060002090601f01602090048101928261391c5760008555613962565b82601f1061393557805160ff1916838001178555613962565b82800160010185558215613962579182015b82811115613962578251825591602001919060010190613947565b5061396e9291506139e6565b5090565b82805461397e906145ed565b90600052602060002090601f0160209004810192826139a05760008555613962565b82601f106139b95782800160ff19823516178555613962565b82800160010185558215613962579182015b828111156139625782358255916020019190600101906139cb565b5b8082111561396e57600081556001016139e7565b8051613a068161464e565b919050565b8051613a0681614663565b60008083601f840112613a27578182fd5b50813567ffffffffffffffff811115613a3e578182fd5b602083019150836020828501011115613a5657600080fd5b9250929050565b600082601f830112613a6d578081fd5b8135613a80613a7b8261453e565b61450d565b818152846020838601011115613a94578283fd5b816020850160208301379081016020019190915292915050565b600060608284031215613abf578081fd5b50919050565b600060208284031215613ad6578081fd5b81356134eb8161464e565b600060208284031215613af2578081fd5b81516134eb8161464e565b600060208284031215613b0e578081fd5b81356134eb81614663565b600060208284031215613b2a578081fd5b81516134eb81614663565b60008060208385031215613b47578081fd5b823567ffffffffffffffff811115613b5d578182fd5b613b6985828601613a16565b90969095509350505050565b60008060008060008060c08789031215613b8d578182fd5b863567ffffffffffffffff80821115613ba4578384fd5b613bb08a838b01613a16565b909850965060208901359550869150613bcc8a60408b01613aae565b945060a0890135915080821115613be1578384fd5b50613bee89828a01613a16565b979a9699509497509295939492505050565b600060208284031215613c11578081fd5b813567ffffffffffffffff811115613c27578182fd5b613c3384828501613a5d565b949350505050565b60008060408385031215613c4d578182fd5b823567ffffffffffffffff811115613c63578283fd5b613c6f85828601613a5d565b95602094909401359450505050565b60006020808385031215613c90578182fd5b825167ffffffffffffffff80821115613ca7578384fd5b9084019060a08287031215613cba578384fd5b613cc26144e4565b825181528383015182811115613cd6578586fd5b83019150601f82018713613ce8578485fd5b8151613cf6613a7b8261453e565b8181528886838601011115613d09578687fd5b613d18828783018887016145bd565b8286015250613d2960408401613a0b565b6040820152613d3a60608401613a0b565b6060820152613d4b608084016139fb565b60808201529695505050505050565b600060c08284031215613d6b578081fd5b60405160c0810181811067ffffffffffffffff82111715613d8e57613d8e614638565b6040528251613d9c8161464e565b808252506020830151602082015260408301516040820152606083015160608201526080830151613dcc8161464e565b608082015260a0830151613ddf8161464e565b60a08201529392505050565b60008060008060008060c08789031215613e03578384fd5b613e0d8888613aae565b9550606087013567ffffffffffffffff80821115613e29578586fd5b613e358a838b01613a16565b90975095506080890135915080821115613e4d578384fd5b50613e5a89828a01613a16565b90945092505060a0870135613e6e81614663565b809150509295509295509295565b6000806000806000806000806000806101008b8d031215613e9b578788fd5b613ea58c8c613aae565b995060608b013567ffffffffffffffff80821115613ec157898afd5b613ecd8e838f01613a16565b909b50995060808d0135915080821115613ee5578586fd5b613ef18e838f01613a16565b909950975060a08d0135965060c08d0135915080821115613f10578586fd5b613f1c8e838f01613a16565b909650945060e08d0135915080821115613f34578384fd5b50613f418d828e01613a16565b915080935050809150509295989b9194979a5092959850565b600080600080600060c08688031215613f71578283fd5b613f7b8787613aae565b9450606086013567ffffffffffffffff811115613f96578384fd5b613fa288828901613a16565b9095509350506080860135915060a0860135613fbd8161464e565b809150509295509295909350565b600080600080600080600060e0888a031215613fe5578081fd5b613fef8989613aae565b9650606088013567ffffffffffffffff8082111561400b578283fd5b6140178b838c01613a16565b909850965060808a0135955060a08a0135915080821115614036578283fd5b506140438a828b01613a16565b989b979a5095989497959660c090950135949350505050565b60006020828403121561406d578081fd5b5035919050565b600060208284031215614085578081fd5b5051919050565b6000806000806000606086880312156140a3578283fd5b85359450602086013567ffffffffffffffff808211156140c1578485fd5b6140cd89838a01613a16565b909650945060408801359150808211156140e5578283fd5b506140f288828901613a16565b969995985093965092949392505050565b600080600060a08486031215614117578081fd5b83359250602084013567ffffffffffffffff811115614134578182fd5b61414086828701613a5d565b9250506141508560408601613aae565b90509250925092565b6000806000806080858703121561416e578182fd5b5050823594602084013594506040840135936060013592509050565b600081518084526141a28160208601602086016145bd565b601f01601f19169290920160200192915050565b81835281816020850137506000828201602090810191909152601f909101601f19169091010190565b6bffffffffffffffffffffffff198460601b168152600083516142098160148501602088016145bd565b60149201918201929092526034019392505050565b8183823760009101908152919050565b8385823760609290921b6bffffffffffffffffffffffff1916919092019081526014810191909152603401919050565b8486823760008582018181528486823792151560f81b9290930191825250600101949350505050565b888a82376000898201818152888a823788018781528587602083013785016020810182815284868237509092016020019182525098975050505050505050565b8385823790920190815260609190911b6bffffffffffffffffffffffff19166020820152603401919050565b600082516143058184602087016145bd565b9190910192915050565b6001600160a01b038416815260a06020820152600061433160a083018561418a565b9050823560ff811680821461434557600080fd5b80604085015250506020830135606083015260408301356080830152949350505050565b6001600160a01b038616815260606020820152600061438c6060830186886141b6565b828103604084015261439f8185876141b6565b98975050505050505050565b6001600160a01b038816815260e0602082015260006143cd60e083018961418a565b87604084015282810360608401526143e5818861418a565b6080840196909652505060a0810192909252151560c090910152949350505050565b602081526000613c336020830184866141b6565b60408152600061442f6040830185876141b6565b90508215156020830152949350505050565b6020815260006134eb602083018461418a565b608081526000614467608083018761418a565b6001600160a01b039590951660208301525060408101929092521515606090910152919050565b60c0815260006144a160c083018961418a565b82810360208401526144b3818961418a565b9150506001600160a01b038616604083015284606083015283608083015282151560a0830152979650505050505050565b60405160a0810167ffffffffffffffff8111828210171561450757614507614638565b60405290565b604051601f8201601f1916810167ffffffffffffffff8111828210171561453657614536614638565b604052919050565b600067ffffffffffffffff82111561455857614558614638565b50601f01601f191660200190565b6000821982111561457957614579614622565b500190565b60008261459957634e487b7160e01b81526012600452602481fd5b500490565b60008160001904831182151516156145b8576145b8614622565b500290565b60005b838110156145d85781810151838201526020016145c0565b838111156145e7576000848401525b50505050565b600181811c9082168061460157607f821691505b60208210811415613abf57634e487b7160e01b600052602260045260246000fd5b634e487b7160e01b600052601160045260246000fd5b634e487b7160e01b600052604160045260246000fd5b6001600160a01b0381168114612b5057600080fd5b8015158114612b5057600080fdfe4f776e61626c653a2063616c6c6572206973206e6f7420746865206f776e6572a26469706673582212209d8e4ca82b6821c76d1942eed27752464745b67f9d955e3e6cfc19f75d87f9d964736f6c63430008040033","abi":[{"inputs":[{"internalType":"address payable","name":"_spaceRiderTokenAddress","type":"address"},{"internalType":"address","name":"_spaceRidersPlanetNFT","type":"address"},{"internalType":"address payable","name":"_feeWallet","type":"address"},{"internalType":"address","name":"_backendAddress","type":"address"},{"internalType":"address","name":"_spaceRidersRewardPoolAddress","type":"address"}],"stateMutability":"nonpayable","type":"constructor"},{"anonymous":false,"inputs":[{"indexed":true,"internalType":"address","name":"previousOwner","type":"address"},{"indexed":true,"internalType":"address","name":"newOwner","type":"address"}],"name":"OwnershipTransferred","type":"event"},{"inputs":[{"internalType":"uint256","name":"_amount","type":"uint256"},{"internalType":"string","name":"_claimReq","type":"string"},{"components":[{"internalType":"uint8","name":"v","type":"uint8"},{"internalType":"bytes32","name":"r","type":"bytes32"},{"internalType":"bytes32","name":"s","type":"bytes32"}],"internalType":"struct OnlyBackend.signatureData","name":"sD","type":"tuple"}],"name":"addPurchasingPower","outputs":[],"stateMutability":"payable","type":"function"},{"inputs":[],"name":"backendAddress","outputs":[{"internalType":"address","name":"","type":"address"}],"stateMutability":"view","type":"function"},{"inputs":[],"name":"bnbFee","outputs":[{"internalType":"uint256","name":"","type":"uint256"}],"stateMutability":"view","type":"function"},{"inputs":[{"internalType":"string","name":"planetGuid","type":"string"},{"internalType":"uint256","name":"planetPrice","type":"uint256"},{"components":[{"internalType":"uint8","name":"v","type":"uint8"},{"internalType":"bytes32","name":"r","type":"bytes32"},{"internalType":"bytes32","name":"s","type":"bytes32"}],"internalType":"struct OnlyBackend.signatureData","name":"sD","type":"tuple"},{"internalType":"string","name":"tokenURI","type":"string"}],"name":"buyPlanet","outputs":[],"stateMutability":"payable","type":"function"},{"inputs":[{"internalType":"uint256","name":"newBnbFee","type":"uint256"}],"name":"changeBnbFee","outputs":[],"stateMutability":"nonpayable","type":"function"},{"inputs":[{"internalType":"string","name":"","type":"string"}],"name":"claimedExtraPurchasingPower","outputs":[{"internalType":"bool","name":"","type":"bool"}],"stateMutability":"view","type":"function"},{"inputs":[{"internalType":"string","name":"","type":"string"}],"name":"conversions","outputs":[{"internalType":"string","name":"guid","type":"string"},{"internalType":"address","name":"owner","type":"address"},{"internalType":"uint256","name":"tokenAmount","type":"uint256"},{"internalType":"bool","name":"exists","type":"bool"}],"stateMutability":"view","type":"function"},{"inputs":[{"components":[{"internalType":"uint8","name":"v","type":"uint8"},{"internalType":"bytes32","name":"r","type":"bytes32"},{"internalType":"bytes32","name":"s","type":"bytes32"}],"internalType":"struct OnlyBackend.signatureData","name":"sD","type":"tuple"},{"internalType":"string","name":"id","type":"string"},{"internalType":"uint256","name":"tokens","type":"uint256"},{"internalType":"address","name":"forAddress","type":"address"}],"name":"convertFromPrimaryResources","outputs":[],"stateMutability":"nonpayable","type":"function"},{"inputs":[],"name":"enablePlanetFusion","outputs":[{"internalType":"bool","name":"","type":"bool"}],"stateMutability":"view","type":"function"},{"inputs":[],"name":"enablePlanetPurchases","outputs":[{"internalType":"bool","name":"","type":"bool"}],"stateMutability":"view","type":"function"},{"inputs":[],"name":"enablePlanetTrading","outputs":[{"internalType":"bool","name":"","type":"bool"}],"stateMutability":"view","type":"function"},{"inputs":[{"internalType":"uint256","name":"amount","type":"uint256"},{"internalType":"string","name":"guid","type":"string"},{"internalType":"string","name":"planetId","type":"string"}],"name":"energyDeposit","outputs":[],"stateMutability":"payable","type":"function"},{"inputs":[{"internalType":"string","name":"","type":"string"}],"name":"energyDeposits","outputs":[{"internalType":"string","name":"guid","type":"string"},{"internalType":"string","name":"planetId","type":"string"},{"internalType":"address","name":"owner","type":"address"},{"internalType":"uint256","name":"createdTimestamp","type":"uint256"},{"internalType":"uint256","name":"amount","type":"uint256"},{"internalType":"bool","name":"exists","type":"bool"}],"stateMutability":"view","type":"function"},{"inputs":[{"internalType":"string","name":"","type":"string"},{"internalType":"uint256","name":"","type":"uint256"}],"name":"energyDepositsMap","outputs":[{"internalType":"string","name":"","type":"string"}],"stateMutability":"view","type":"function"},{"inputs":[{"components":[{"internalType":"uint8","name":"v","type":"uint8"},{"internalType":"bytes32","name":"r","type":"bytes32"},{"internalType":"bytes32","name":"s","type":"bytes32"}],"internalType":"struct OnlyBackend.signatureData","name":"sD","type":"tuple"},{"internalType":"string","name":"burnPlanetGuid1","type":"string"},{"internalType":"string","name":"burnPlanetGuid2","type":"string"},{"internalType":"uint256","name":"tokenPrice","type":"uint256"},{"internalType":"string","name":"newPlanetGuid","type":"string"},{"internalType":"string","name":"newTokenURI","type":"string"}],"name":"fusionPlanet","outputs":[],"stateMutability":"payable","type":"function"},{"inputs":[{"internalType":"string","name":"guid","type":"string"}],"name":"getEnergyDepositsMapCount","outputs":[{"internalType":"uint256","name":"","type":"uint256"}],"stateMutability":"view","type":"function"},{"inputs":[],"name":"owner","outputs":[{"internalType":"address","name":"","type":"address"}],"stateMutability":"view","type":"function"},{"inputs":[],"name":"renounceOwnership","outputs":[],"stateMutability":"nonpayable","type":"function"},{"inputs":[{"internalType":"address","name":"backendSignerAddress","type":"address"}],"name":"setBackendAddress","outputs":[],"stateMutability":"nonpayable","type":"function"},{"inputs":[{"internalType":"bool","name":"enabled","type":"bool"}],"name":"setBenefitStakingEnabled","outputs":[],"stateMutability":"nonpayable","type":"function"},{"inputs":[{"internalType":"uint256","name":"newFee","type":"uint256"}],"name":"setBenefitStakingPerformanceFeeBP","outputs":[],"stateMutability":"nonpayable","type":"function"},{"inputs":[{"internalType":"address payable","name":"newFeeWallet","type":"address"}],"name":"setFeeWallet","outputs":[],"stateMutability":"nonpayable","type":"function"},{"inputs":[{"internalType":"uint256","name":"newLp","type":"uint256"},{"internalType":"uint256","name":"newRp","type":"uint256"},{"internalType":"uint256","name":"newT","type":"uint256"},{"internalType":"uint256","name":"newB","type":"uint256"}],"name":"setIndirectTax","outputs":[],"stateMutability":"nonpayable","type":"function"},{"inputs":[{"components":[{"internalType":"uint8","name":"v","type":"uint8"},{"internalType":"bytes32","name":"r","type":"bytes32"},{"internalType":"bytes32","name":"s","type":"bytes32"}],"internalType":"struct OnlyBackend.signatureData","name":"sD","type":"tuple"},{"internalType":"string","name":"planetId","type":"string"},{"internalType":"uint256","name":"amount","type":"uint256"},{"internalType":"string","name":"tier","type":"string"},{"internalType":"uint256","name":"timeRelease","type":"uint256"}],"name":"stakingRequestV2","outputs":[],"stateMutability":"payable","type":"function"},{"inputs":[{"internalType":"bool","name":"enable","type":"bool"}],"name":"toggleEnergyDeposits","outputs":[],"stateMutability":"nonpayable","type":"function"},{"inputs":[{"internalType":"bool","name":"enable","type":"bool"}],"name":"togglePlanetFusion","outputs":[],"stateMutability":"nonpayable","type":"function"},{"inputs":[{"internalType":"bool","name":"enable","type":"bool"}],"name":"togglePlanetPurchases","outputs":[],"stateMutability":"nonpayable","type":"function"},{"inputs":[{"components":[{"internalType":"uint8","name":"v","type":"uint8"},{"internalType":"bytes32","name":"r","type":"bytes32"},{"internalType":"bytes32","name":"s","type":"bytes32"}],"internalType":"struct OnlyBackend.signatureData","name":"sD","type":"tuple"},{"internalType":"string","name":"requestId","type":"string"},{"internalType":"string","name":"planetGuid","type":"string"},{"internalType":"bool","name":"trading","type":"bool"}],"name":"togglePlanetTrading","outputs":[],"stateMutability":"payable","type":"function"},{"inputs":[{"internalType":"bool","name":"enable","type":"bool"}],"name":"togglePlanetTrading","outputs":[],"stateMutability":"nonpayable","type":"function"},{"inputs":[{"internalType":"string","name":"","type":"string"}],"name":"togglePlanetTradingRequests","outputs":[{"internalType":"bool","name":"","type":"bool"}],"stateMutability":"view","type":"function"},{"inputs":[{"internalType":"address","name":"newOwner","type":"address"}],"name":"transferOwnership","outputs":[],"stateMutability":"nonpayable","type":"function"},{"inputs":[{"internalType":"string","name":"planetId","type":"string"}],"name":"unstakingRequestV2","outputs":[],"stateMutability":"payable","type":"function"},{"inputs":[{"internalType":"string","name":"","type":"string"}],"name":"userStaking","outputs":[{"internalType":"address","name":"owner","type":"address"},{"internalType":"string","name":"planetId","type":"string"},{"internalType":"uint256","name":"amount","type":"uint256"},{"internalType":"string","name":"tier","type":"string"},{"internalType":"uint256","name":"time","type":"uint256"},{"internalType":"uint256","name":"timeRelease","type":"uint256"},{"internalType":"bool","name":"staked","type":"bool"}],"stateMutability":"view","type":"function"},{"inputs":[{"internalType":"string","name":"","type":"string"}],"name":"userStakingLpInfo","outputs":[{"internalType":"address","name":"user","type":"address"},{"internalType":"uint256","name":"lpAmount","type":"uint256"},{"internalType":"uint256","name":"tradeableBalance","type":"uint256"},{"internalType":"uint256","name":"playableBalance","type":"uint256"},{"internalType":"address","name":"router","type":"address"},{"internalType":"address","name":"pair","type":"address"}],"stateMutability":"view","type":"function"}]}